{"abi":[{"type":"constructor","inputs":[{"name":"admin","type":"address","internalType":"address"},{"name":"_ccidToken","type":"address","internalType":"address"}],"stateMutability":"nonpayable"},{"type":"function","name":"DEFAULT_ADMIN_ROLE","inputs":[],"outputs":[{"name":"","type":"bytes32","internalType":"bytes32"}],"stateMutability":"view"},{"type":"function","name":"addToAllowlist","inputs":[{"name":"wallet","type":"address","internalType":"address"}],"outputs":[],"stateMutability":"nonpayable"},{"type":"function","name":"allowlist","inputs":[{"name":"","type":"address","internalType":"address"}],"outputs":[{"name":"","type":"bool","internalType":"bool"}],"stateMutability":"view"},{"type":"function","name":"blockWallet","inputs":[{"name":"wallet","type":"address","internalType":"address"}],"outputs":[],"stateMutability":"nonpayable"},{"type":"function","name":"blocklist","inputs":[{"name":"","type":"address","internalType":"address"}],"outputs":[{"name":"","type":"bool","internalType":"bool"}],"stateMutability":"view"},{"type":"function","name":"ccidToken","inputs":[],"outputs":[{"name":"","type":"address","internalType":"contract ICCIDToken"}],"stateMutability":"view"},{"type":"function","name":"checkCompliance","inputs":[{"name":"wallet","type":"address","internalType":"address"}],"outputs":[{"name":"","type":"bool","internalType":"bool"}],"stateMutability":"view"},{"type":"function","name":"complianceEnabled","inputs":[],"outputs":[{"name":"","type":"bool","internalType":"bool"}],"stateMutability":"view"},{"type":"function","name":"getRoleAdmin","inputs":[{"name":"role","type":"bytes32","internalType":"bytes32"}],"outputs":[{"name":"","type":"bytes32","internalType":"bytes32"}],"stateMutability":"view"},{"type":"function","name":"grantRole","inputs":[{"name":"role","type":"bytes32","internalType":"bytes32"},{"name":"account","type":"address","internalType":"address"}],"outputs":[],"stateMutability":"nonpayable"},{"type":"function","name":"hasRole","inputs":[{"name":"role","type":"bytes32","internalType":"bytes32"},{"name":"account","type":"address","internalType":"address"}],"outputs":[{"name":"","type":"bool","internalType":"bool"}],"stateMutability":"view"},{"type":"function","name":"removeFromAllowlist","inputs":[{"name":"wallet","type":"address","internalType":"address"}],"outputs":[],"stateMutability":"nonpayable"},{"type":"function","name":"renounceRole","inputs":[{"name":"role","type":"bytes32","internalType":"bytes32"},{"name":"callerConfirmation","type":"address","internalType":"address"}],"outputs":[],"stateMutability":"nonpayable"},{"type":"function","name":"requireCompliance","inputs":[{"name":"wallet","type":"address","internalType":"address"}],"outputs":[],"stateMutability":"view"},{"type":"function","name":"revokeRole","inputs":[{"name":"role","type":"bytes32","internalType":"bytes32"},{"name":"account","type":"address","internalType":"address"}],"outputs":[],"stateMutability":"nonpayable"},{"type":"function","name":"setCCIDToken","inputs":[{"name":"newToken","type":"address","internalType":"address"}],"outputs":[],"stateMutability":"nonpayable"},{"type":"function","name":"setComplianceEnabled","inputs":[{"name":"enabled","type":"bool","internalType":"bool"}],"outputs":[],"stateMutability":"nonpayable"},{"type":"function","name":"supportsInterface","inputs":[{"name":"interfaceId","type":"bytes4","internalType":"bytes4"}],"outputs":[{"name":"","type":"bool","internalType":"bool"}],"stateMutability":"view"},{"type":"function","name":"unblockWallet","inputs":[{"name":"wallet","type":"address","internalType":"address"}],"outputs":[],"stateMutability":"nonpayable"},{"type":"event","name":"CCIDTokenUpdated","inputs":[{"name":"newToken","type":"address","indexed":true,"internalType":"address"}],"anonymous":false},{"type":"event","name":"ComplianceStatusChanged","inputs":[{"name":"enabled","type":"bool","indexed":false,"internalType":"bool"}],"anonymous":false},{"type":"event","name":"RoleAdminChanged","inputs":[{"name":"role","type":"bytes32","indexed":true,"internalType":"bytes32"},{"name":"previousAdminRole","type":"bytes32","indexed":true,"internalType":"bytes32"},{"name":"newAdminRole","type":"bytes32","indexed":true,"internalType":"bytes32"}],"anonymous":false},{"type":"event","name":"RoleGranted","inputs":[{"name":"role","type":"bytes32","indexed":true,"internalType":"bytes32"},{"name":"account","type":"address","indexed":true,"internalType":"address"},{"name":"sender","type":"address","indexed":true,"internalType":"address"}],"anonymous":false},{"type":"event","name":"RoleRevoked","inputs":[{"name":"role","type":"bytes32","indexed":true,"internalType":"bytes32"},{"name":"account","type":"address","indexed":true,"internalType":"address"},{"name":"sender","type":"address","indexed":true,"internalType":"address"}],"anonymous":false},{"type":"event","name":"WalletAllowlisted","inputs":[{"name":"wallet","type":"address","indexed":true,"internalType":"address"}],"anonymous":false},{"type":"event","name":"WalletBlocked","inputs":[{"name":"wallet","type":"address","indexed":true,"internalType":"address"}],"anonymous":false},{"type":"event","name":"WalletUnblocked","inputs":[{"name":"wallet","type":"address","indexed":true,"internalType":"address"}],"anonymous":false},{"type":"error","name":"AccessControlBadConfirmation","inputs":[]},{"type":"error","name":"AccessControlUnauthorizedAccount","inputs":[{"name":"account","type":"address","internalType":"address"},{"name":"neededRole","type":"bytes32","internalType":"bytes32"}]},{"type":"error","name":"WalletIsBlocked","inputs":[{"name":"wallet","type":"address","internalType":"address"}]},{"type":"error","name":"WalletNotCompliant","inputs":[{"name":"wallet","type":"address","internalType":"address"}]}],"bytecode":{"object":"0x608060405234801561000f575f80fd5b50604051610b59380380610b5983398101604081905261002e91610128565b6100385f83610064565b50600180546001600160a81b0319166001600160a01b0390921691909117600160a01b17905550610159565b5f828152602081815260408083206001600160a01b038516845290915281205460ff16610104575f838152602081815260408083206001600160a01b03861684529091529020805460ff191660011790556100bc3390565b6001600160a01b0316826001600160a01b0316847f2f8788117e7eff1d82e926ec794901d17c78024a50270940304540a733656f0d60405160405180910390a4506001610107565b505f5b92915050565b80516001600160a01b0381168114610123575f80fd5b919050565b5f8060408385031215610139575f80fd5b6101428361010d565b91506101506020840161010d565b90509250929050565b6109f3806101665f395ff3fe608060405234801561000f575f80fd5b506004361061011c575f3560e01c80637b450a35116100a9578063d547741f1161006e578063d547741f14610279578063d83c82701461028c578063e04e77f7146102a0578063e5c7160b146102b3578063f8e86ece146102d5575f80fd5b80637b450a351461021757806391d148541461022a578063a217fddf1461023d578063a7cd52cb14610244578063cad8439f14610266575f80fd5b80632c289dcf116100ef5780632c289dcf146101a05780632f2ff15d146101b3578063347015e1146101c657806336568abe146101f15780635da93d7e14610204575f80fd5b806301ffc9a714610120578063053e89d7146101485780631c8e11791461015d578063248a9ca314610170575b5f80fd5b61013361012e3660046108d7565b6102e8565b60405190151581526020015b60405180910390f35b61015b610156366004610920565b61031e565b005b61015b61016b366004610920565b610374565b61019261017e366004610939565b5f9081526020819052604090206001015490565b60405190815260200161013f565b6101336101ae366004610920565b6103c7565b61015b6101c1366004610950565b61049b565b6001546101d9906001600160a01b031681565b6040516001600160a01b03909116815260200161013f565b61015b6101ff366004610950565b6104c5565b61015b610212366004610920565b6104fd565b61015b610225366004610920565b610528565b610133610238366004610950565b61057c565b6101925f81565b610133610252366004610920565b60036020525f908152604090205460ff1681565b61015b610274366004610920565b6105a4565b61015b610287366004610950565b6106bb565b60015461013390600160a01b900460ff1681565b61015b6102ae366004610987565b6106df565b6101336102c1366004610920565b60026020525f908152604090205460ff1681565b61015b6102e3366004610920565b610742565b5f6001600160e01b03198216637965db0b60e01b148061031857506301ffc9a760e01b6001600160e01b03198316145b92915050565b5f61032881610798565b6001600160a01b0382165f81815260026020526040808220805460ff19166001179055517fcf2dbf883a1fe810b3a8c6f6460de86f65cc58987fb8e14c93df2dc2dd6d122e9190a25050565b5f61037e81610798565b6001600160a01b0382165f81815260026020526040808220805460ff19169055517ffa359fa479d4786cd6e488e348397c5435162d391cc1467f6f813c1d27fd17589190a25050565b6001600160a01b0381165f9081526002602052604081205460ff16156103ee57505f919050565b6001600160a01b0382165f9081526003602052604090205460ff161561041657506001919050565b600154600160a01b900460ff1661042f57506001919050565b600154604051638b1b925f60e01b81526001600160a01b03848116600483015290911690638b1b925f90602401602060405180830381865afa158015610477573d5f803e3d5ffd5b505050506040513d601f19601f8201168201806040525081019061031891906109a2565b5f828152602081905260409020600101546104b581610798565b6104bf83836107a2565b50505050565b6001600160a01b03811633146104ee5760405163334bd91960e11b815260040160405180910390fd5b6104f88282610831565b505050565b5f61050781610798565b506001600160a01b03165f908152600360205260409020805460ff19169055565b5f61053281610798565b600180546001600160a01b0319166001600160a01b0384169081179091556040517f76e2ce327e0712fb7ead69faece74d86ef81ae151453283094c31a37cdccae53905f90a25050565b5f918252602082815260408084206001600160a01b0393909316845291905290205460ff1690565b6001600160a01b0381165f9081526002602052604090205460ff16156105ed57604051631d7b012b60e31b81526001600160a01b03821660048201526024015b60405180910390fd5b6001600160a01b0381165f9081526003602052604090205460ff16156106105750565b600154600160a01b900460ff166106245750565b600154604051638b1b925f60e01b81526001600160a01b03838116600483015290911690638b1b925f90602401602060405180830381865afa15801561066c573d5f803e3d5ffd5b505050506040513d601f19601f8201168201806040525081019061069091906109a2565b6106b857604051630e2f5da360e31b81526001600160a01b03821660048201526024016105e4565b50565b5f828152602081905260409020600101546106d581610798565b6104bf8383610831565b5f6106e981610798565b60018054831515600160a01b0260ff60a01b199091161790556040517fb5103bfdd9a9a565bb5a198ec4b04db50d8195e53118337ecc1cc278d50c6e869061073690841515815260200190565b60405180910390a15050565b5f61074c81610798565b6001600160a01b0382165f81815260036020526040808220805460ff19166001179055517f25f3533d66a2b4a6dfa066bf9a82ddb92abd181180450d5a3163122262e17a7e9190a25050565b6106b8813361089a565b5f6107ad838361057c565b61082a575f838152602081815260408083206001600160a01b03861684529091529020805460ff191660011790556107e23390565b6001600160a01b0316826001600160a01b0316847f2f8788117e7eff1d82e926ec794901d17c78024a50270940304540a733656f0d60405160405180910390a4506001610318565b505f610318565b5f61083c838361057c565b1561082a575f838152602081815260408083206001600160a01b0386168085529252808320805460ff1916905551339286917ff6391f5c32d9c69d2a47ea670b442974b53935d1edc7fd64eb21e047a839171b9190a4506001610318565b6108a4828261057c565b6108d35760405163e2517d3f60e01b81526001600160a01b0382166004820152602481018390526044016105e4565b5050565b5f602082840312156108e7575f80fd5b81356001600160e01b0319811681146108fe575f80fd5b9392505050565b80356001600160a01b038116811461091b575f80fd5b919050565b5f60208284031215610930575f80fd5b6108fe82610905565b5f60208284031215610949575f80fd5b5035919050565b5f8060408385031215610961575f80fd5b8235915061097160208401610905565b90509250929050565b80151581146106b8575f80fd5b5f60208284031215610997575f80fd5b81356108fe8161097a565b5f602082840312156109b2575f80fd5b81516108fe8161097a56fea26469706673582212201c4ea222c674ae74a58b1f0aa469a880e8a1c219d026247ead7faeed8d07d79064736f6c63430008180033","linkReferences":{}},"methodIdentifiers":{"DEFAULT_ADMIN_ROLE()":"a217fddf","addToAllowlist(address)":"f8e86ece","allowlist(address)":"a7cd52cb","blockWallet(address)":"053e89d7","blocklist(address)":"e5c7160b","ccidToken()":"347015e1","checkCompliance(address)":"2c289dcf","complianceEnabled()":"d83c8270","getRoleAdmin(bytes32)":"248a9ca3","grantRole(bytes32,address)":"2f2ff15d","hasRole(bytes32,address)":"91d14854","removeFromAllowlist(address)":"5da93d7e","renounceRole(bytes32,address)":"36568abe","requireCompliance(address)":"cad8439f","revokeRole(bytes32,address)":"d547741f","setCCIDToken(address)":"7b450a35","setComplianceEnabled(bool)":"e04e77f7","supportsInterface(bytes4)":"01ffc9a7","unblockWallet(address)":"1c8e1179"},"id":95}