{"abi":[{"type":"constructor","inputs":[{"name":"_admin","type":"address","internalType":"address"},{"name":"_ccipRouter","type":"address","internalType":"address"},{"name":"_usdc","type":"address","internalType":"address"},{"name":"_link","type":"address","internalType":"address"}],"stateMutability":"nonpayable"},{"type":"receive","stateMutability":"payable"},{"type":"function","name":"DEFAULT_ADMIN_ROLE","inputs":[],"outputs":[{"name":"","type":"bytes32","internalType":"bytes32"}],"stateMutability":"view"},{"type":"function","name":"PAUSER_ROLE","inputs":[],"outputs":[{"name":"","type":"bytes32","internalType":"bytes32"}],"stateMutability":"view"},{"type":"function","name":"ccipRouter","inputs":[],"outputs":[{"name":"","type":"address","internalType":"contract IRouterClient"}],"stateMutability":"view"},{"type":"function","name":"depositToHub","inputs":[{"name":"amount","type":"uint256","internalType":"uint256"}],"outputs":[{"name":"messageId","type":"bytes32","internalType":"bytes32"}],"stateMutability":"nonpayable"},{"type":"function","name":"getRoleAdmin","inputs":[{"name":"role","type":"bytes32","internalType":"bytes32"}],"outputs":[{"name":"","type":"bytes32","internalType":"bytes32"}],"stateMutability":"view"},{"type":"function","name":"grantRole","inputs":[{"name":"role","type":"bytes32","internalType":"bytes32"},{"name":"account","type":"address","internalType":"address"}],"outputs":[],"stateMutability":"nonpayable"},{"type":"function","name":"hasRole","inputs":[{"name":"role","type":"bytes32","internalType":"bytes32"},{"name":"account","type":"address","internalType":"address"}],"outputs":[{"name":"","type":"bool","internalType":"bool"}],"stateMutability":"view"},{"type":"function","name":"hubChainSelector","inputs":[],"outputs":[{"name":"","type":"uint64","internalType":"uint64"}],"stateMutability":"view"},{"type":"function","name":"hubPoolAddress","inputs":[],"outputs":[{"name":"","type":"address","internalType":"address"}],"stateMutability":"view"},{"type":"function","name":"linkToken","inputs":[],"outputs":[{"name":"","type":"address","internalType":"contract IERC20"}],"stateMutability":"view"},{"type":"function","name":"pause","inputs":[],"outputs":[],"stateMutability":"nonpayable"},{"type":"function","name":"paused","inputs":[],"outputs":[{"name":"","type":"bool","internalType":"bool"}],"stateMutability":"view"},{"type":"function","name":"renounceRole","inputs":[{"name":"role","type":"bytes32","internalType":"bytes32"},{"name":"callerConfirmation","type":"address","internalType":"address"}],"outputs":[],"stateMutability":"nonpayable"},{"type":"function","name":"revokeRole","inputs":[{"name":"role","type":"bytes32","internalType":"bytes32"},{"name":"account","type":"address","internalType":"address"}],"outputs":[],"stateMutability":"nonpayable"},{"type":"function","name":"setHubTarget","inputs":[{"name":"_hubRouterSelector","type":"uint64","internalType":"uint64"},{"name":"_hubPool","type":"address","internalType":"address"}],"outputs":[],"stateMutability":"nonpayable"},{"type":"function","name":"supportsInterface","inputs":[{"name":"interfaceId","type":"bytes4","internalType":"bytes4"}],"outputs":[{"name":"","type":"bool","internalType":"bool"}],"stateMutability":"view"},{"type":"function","name":"underlyingAsset","inputs":[],"outputs":[{"name":"","type":"address","internalType":"contract IERC20"}],"stateMutability":"view"},{"type":"function","name":"unpause","inputs":[],"outputs":[],"stateMutability":"nonpayable"},{"type":"function","name":"withdrawNative","inputs":[{"name":"to","type":"address","internalType":"address"}],"outputs":[],"stateMutability":"nonpayable"},{"type":"event","name":"DepositInitiated","inputs":[{"name":"lender","type":"address","indexed":true,"internalType":"address"},{"name":"amount","type":"uint256","indexed":false,"internalType":"uint256"},{"name":"messageId","type":"bytes32","indexed":false,"internalType":"bytes32"}],"anonymous":false},{"type":"event","name":"HubUpdated","inputs":[{"name":"hubChainSelector","type":"uint64","indexed":false,"internalType":"uint64"},{"name":"poolAddress","type":"address","indexed":false,"internalType":"address"}],"anonymous":false},{"type":"event","name":"Paused","inputs":[{"name":"account","type":"address","indexed":false,"internalType":"address"}],"anonymous":false},{"type":"event","name":"RoleAdminChanged","inputs":[{"name":"role","type":"bytes32","indexed":true,"internalType":"bytes32"},{"name":"previousAdminRole","type":"bytes32","indexed":true,"internalType":"bytes32"},{"name":"newAdminRole","type":"bytes32","indexed":true,"internalType":"bytes32"}],"anonymous":false},{"type":"event","name":"RoleGranted","inputs":[{"name":"role","type":"bytes32","indexed":true,"internalType":"bytes32"},{"name":"account","type":"address","indexed":true,"internalType":"address"},{"name":"sender","type":"address","indexed":true,"internalType":"address"}],"anonymous":false},{"type":"event","name":"RoleRevoked","inputs":[{"name":"role","type":"bytes32","indexed":true,"internalType":"bytes32"},{"name":"account","type":"address","indexed":true,"internalType":"address"},{"name":"sender","type":"address","indexed":true,"internalType":"address"}],"anonymous":false},{"type":"event","name":"Unpaused","inputs":[{"name":"account","type":"address","indexed":false,"internalType":"address"}],"anonymous":false},{"type":"error","name":"AccessControlBadConfirmation","inputs":[]},{"type":"error","name":"AccessControlUnauthorizedAccount","inputs":[{"name":"account","type":"address","internalType":"address"},{"name":"neededRole","type":"bytes32","internalType":"bytes32"}]},{"type":"error","name":"EnforcedPause","inputs":[]},{"type":"error","name":"ExpectedPause","inputs":[]},{"type":"error","name":"InvalidHub","inputs":[]},{"type":"error","name":"NotEnoughBalance","inputs":[{"name":"currentBalance","type":"uint256","internalType":"uint256"},{"name":"calculatedFees","type":"uint256","internalType":"uint256"}]},{"type":"error","name":"ReentrancyGuardReentrantCall","inputs":[]},{"type":"error","name":"SafeERC20FailedOperation","inputs":[{"name":"token","type":"address","internalType":"address"}]},{"type":"error","name":"ZeroAddress","inputs":[]},{"type":"error","name":"ZeroAmount","inputs":[]}],"bytecode":{"object":"0x60e060405234801562000010575f80fd5b50604051620016ea380380620016ea8339810160408190526200003391620001dd565b60017f9b779b17422d0df92223018b32b4d1fa46e071723d6817e2486d003becc55f00556001600160a01b03841615806200007557506001600160a01b038316155b806200008857506001600160a01b038216155b15620000a75760405163d92e233d60e01b815260040160405180910390fd5b620000b35f8562000115565b50620000e07f65d7a28e3265b37a6474929f336521b332c1681b933f6cb9f3376673440d862a8562000115565b506001600160a01b0380841660805282811660a0528116156200010b576001600160a01b03811660c0525b5050505062000237565b5f828152602081815260408083206001600160a01b038516845290915281205460ff16620001b8575f838152602081815260408083206001600160a01b03861684529091529020805460ff191660011790556200016f3390565b6001600160a01b0316826001600160a01b0316847f2f8788117e7eff1d82e926ec794901d17c78024a50270940304540a733656f0d60405160405180910390a4506001620001bb565b505f5b92915050565b80516001600160a01b0381168114620001d8575f80fd5b919050565b5f805f8060808587031215620001f1575f80fd5b620001fc85620001c1565b93506200020c60208601620001c1565b92506200021c60408601620001c1565b91506200022c60608601620001c1565b905092959194509250565b60805160a05160c051611426620002c45f395f81816102a00152818161087d015281816108ac01528181610a3101528181610a7301528181610b000152610ba201525f81816102ea01528181610743015281816107b6015261094301525f8181610163015281816109650152818161099e01528181610bc401528181610bfb0152610ccd01526114265ff3fe608060405260043610610113575f3560e01c806357970e931161009d578063a217fddf11610062578063a217fddf1461033f578063b99aa29714610352578063d547741f14610392578063e63ab1e9146103b1578063f98a46b9146103e4575f80fd5b806357970e931461028f5780635c975abb146102c25780637158da7c146102d95780638456cb591461030c57806391d1485414610320575f80fd5b80632f2ff15d116100e35780632f2ff15d146101fa5780632f622e6b1461021957806332e26eac1461023857806336568abe1461025c5780633f4ba83a1461027b575f80fd5b806301ffc9a71461011e5780630de2298414610152578063100d416f1461019d578063248a9ca3146101be575f80fd5b3661011a57005b5f80fd5b348015610129575f80fd5b5061013d6101383660046111d3565b610403565b60405190151581526020015b60405180910390f35b34801561015d575f80fd5b506101857f000000000000000000000000000000000000000000000000000000000000000081565b6040516001600160a01b039091168152602001610149565b3480156101a8575f80fd5b506101bc6101b7366004611217565b610439565b005b3480156101c9575f80fd5b506101ec6101d8366004611256565b5f9081526020819052604090206001015490565b604051908152602001610149565b348015610205575f80fd5b506101bc61021436600461126d565b610524565b348015610224575f80fd5b506101bc61023336600461128e565b61054e565b348015610243575f80fd5b506001546101859061010090046001600160a01b031681565b348015610267575f80fd5b506101bc61027636600461126d565b6105f3565b348015610286575f80fd5b506101bc610626565b34801561029a575f80fd5b506101857f000000000000000000000000000000000000000000000000000000000000000081565b3480156102cd575f80fd5b5060015460ff1661013d565b3480156102e4575f80fd5b506101857f000000000000000000000000000000000000000000000000000000000000000081565b348015610317575f80fd5b506101bc61063b565b34801561032b575f80fd5b5061013d61033a36600461126d565b61066d565b34801561034a575f80fd5b506101ec5f81565b34801561035d575f80fd5b5060015461037990600160a81b900467ffffffffffffffff1681565b60405167ffffffffffffffff9091168152602001610149565b34801561039d575f80fd5b506101bc6103ac36600461126d565b610695565b3480156103bc575f80fd5b506101ec7f65d7a28e3265b37a6474929f336521b332c1681b933f6cb9f3376673440d862a81565b3480156103ef575f80fd5b506101ec6103fe366004611256565b6106b9565b5f6001600160e01b03198216637965db0b60e01b148061043357506301ffc9a760e01b6001600160e01b03198316145b92915050565b5f61044381610dcf565b6001600160a01b03821661046a5760405163d92e233d60e01b815260040160405180910390fd5b8267ffffffffffffffff165f0361049457604051630722710b60e51b815260040160405180910390fd5b60018054610100600160e81b031916600160a81b67ffffffffffffffff8681168202610100600160a81b031916929092176101006001600160a01b038781168202929092179485905560408051938604909416835290930490921660208301527f95fa1fbaa671cd65c7b6a19629396a15a37491ac763701e9c831bdfc457afc44910160405180910390a1505050565b5f8281526020819052604090206001015461053e81610dcf565b6105488383610dd9565b50505050565b5f61055881610dcf565b5f826001600160a01b0316476040515f6040518083038185875af1925050503d805f81146105a1576040519150601f19603f3d011682016040523d82523d5f602084013e6105a6565b606091505b50509050806105ee5760405162461bcd60e51b815260206004820152600f60248201526e151c985b9cd9995c8819985a5b1959608a1b60448201526064015b60405180910390fd5b505050565b6001600160a01b038116331461061c5760405163334bd91960e11b815260040160405180910390fd5b6105ee8282610e68565b5f61063081610dcf565b610638610ed1565b50565b7f65d7a28e3265b37a6474929f336521b332c1681b933f6cb9f3376673440d862a61066581610dcf565b610638610f23565b5f918252602082815260408084206001600160a01b0393909316845291905290205460ff1690565b5f828152602081905260409020600101546106af81610dcf565b6105488383610e68565b5f6106c2610f5e565b6106ca610f84565b815f036106ea57604051631f2a200560e01b815260040160405180910390fd5b600154600160a81b900467ffffffffffffffff161580610718575060015461010090046001600160a01b0316155b1561073657604051630722710b60e51b815260040160405180910390fd5b61076b6001600160a01b037f000000000000000000000000000000000000000000000000000000000000000016333085610fb2565b6040805160018082528183019092525f91816020015b604080518082019091525f808252602082015281526020019060019003908161078157905050905060405180604001604052807f00000000000000000000000000000000000000000000000000000000000000006001600160a01b0316815260200184815250815f815181106107f9576107f96112a7565b60209081029190910101526040805160a0810190915260015461010090046001600160a01b031660c08201525f908060e0810160405160208183030381529060405281526020013360405160200161086091906001600160a01b0391909116815260200190565b60408051601f1981840301815291815290825260208201859052017f00000000000000000000000000000000000000000000000000000000000000006001600160a01b0316156108d0577f00000000000000000000000000000000000000000000000000000000000000006108d2565b5f5b6001600160a01b03168152602001610932604051806020016040528062061a8081525060408051915160248084019190915281518084039091018152604490920190526020810180516001600160e01b03166397a657c960e01b17905290565b9052905061098a6001600160a01b037f0000000000000000000000000000000000000000000000000000000000000000167f000000000000000000000000000000000000000000000000000000000000000086610fe8565b6001546040516320487ded60e01b81525f917f00000000000000000000000000000000000000000000000000000000000000006001600160a01b0316916320487ded916109ee91600160a81b90910467ffffffffffffffff169086906004016112fe565b602060405180830381865afa158015610a09573d5f803e3d5ffd5b505050506040513d601f19601f82011682018060405250810190610a2d91906113d9565b90507f00000000000000000000000000000000000000000000000000000000000000006001600160a01b031615610c91576040516370a0823160e01b81523060048201527f00000000000000000000000000000000000000000000000000000000000000006001600160a01b0316906370a0823190602401602060405180830381865afa158015610ac0573d5f803e3d5ffd5b505050506040513d601f19601f82011682018060405250810190610ae491906113d9565b811115610b95576040516370a0823160e01b81523060048201527f00000000000000000000000000000000000000000000000000000000000000006001600160a01b0316906370a0823190602401602060405180830381865afa158015610b4d573d5f803e3d5ffd5b505050506040513d601f19601f82011682018060405250810190610b7191906113d9565b604051634787a10360e11b81526004810191909152602481018290526044016105e5565b610be96001600160a01b037f0000000000000000000000000000000000000000000000000000000000000000167f000000000000000000000000000000000000000000000000000000000000000083610fe8565b6001546040516396f4e9f960e01b81527f00000000000000000000000000000000000000000000000000000000000000006001600160a01b0316916396f4e9f991610c4a91600160a81b900467ffffffffffffffff169086906004016112fe565b6020604051808303815f875af1158015610c66573d5f803e3d5ffd5b505050506040513d601f19601f82011682018060405250810190610c8a91906113d9565b9350610d63565b47811115610cbb57604051634787a10360e11b8152476004820152602481018290526044016105e5565b6001546040516396f4e9f960e01b81527f00000000000000000000000000000000000000000000000000000000000000006001600160a01b0316916396f4e9f9918491610d1f91600160a81b90910467ffffffffffffffff169087906004016112fe565b60206040518083038185885af1158015610d3b573d5f803e3d5ffd5b50505050506040513d601f19601f82011682018060405250810190610d6091906113d9565b93505b604080518681526020810186905233917f94a1dfce76bbf3c35636e126d6e91811e00b7c541791ffe982d201a063acb8ed910160405180910390a2505050610dca60017f9b779b17422d0df92223018b32b4d1fa46e071723d6817e2486d003becc55f0055565b919050565b6106388133611062565b5f610de4838361066d565b610e61575f838152602081815260408083206001600160a01b03861684529091529020805460ff19166001179055610e193390565b6001600160a01b0316826001600160a01b0316847f2f8788117e7eff1d82e926ec794901d17c78024a50270940304540a733656f0d60405160405180910390a4506001610433565b505f610433565b5f610e73838361066d565b15610e61575f838152602081815260408083206001600160a01b0386168085529252808320805460ff1916905551339286917ff6391f5c32d9c69d2a47ea670b442974b53935d1edc7fd64eb21e047a839171b9190a4506001610433565b610ed961109f565b6001805460ff191690557f5db9ee0a495bf2e6ff9c91a7834c1ba4fdd244a5e8aa4e537bd38aeae4b073aa335b6040516001600160a01b03909116815260200160405180910390a1565b610f2b610f5e565b6001805460ff1916811790557f62e78cea01bee320cd4e420270b5ea74000d11b0c9f74754ebdbfc544b05a25833610f06565b60015460ff1615610f825760405163d93c066560e01b815260040160405180910390fd5b565b610f8c6110c2565b60027f9b779b17422d0df92223018b32b4d1fa46e071723d6817e2486d003becc55f0055565b610fc0848484846001611104565b61054857604051635274afe760e01b81526001600160a01b03851660048201526024016105e5565b610ff48383835f611171565b6105ee5761100583835f6001611171565b61102d57604051635274afe760e01b81526001600160a01b03841660048201526024016105e5565b61103a8383836001611171565b6105ee57604051635274afe760e01b81526001600160a01b03841660048201526024016105e5565b61106c828261066d565b61109b5760405163e2517d3f60e01b81526001600160a01b0382166004820152602481018390526044016105e5565b5050565b60015460ff16610f8257604051638dfc202b60e01b815260040160405180910390fd5b7f9b779b17422d0df92223018b32b4d1fa46e071723d6817e2486d003becc55f0054600203610f8257604051633ee5aeb560e01b815260040160405180910390fd5b6040516323b872dd60e01b5f8181526001600160a01b038781166004528616602452604485905291602083606481808c5af1925060015f51148316611160578383151615611154573d5f823e3d81fd5b5f883b113d1516831692505b604052505f60605295945050505050565b60405163095ea7b360e01b5f8181526001600160a01b038616600452602485905291602083604481808b5af1925060015f511483166111c75783831516156111bb573d5f823e3d81fd5b5f873b113d1516831692505b60405250949350505050565b5f602082840312156111e3575f80fd5b81356001600160e01b0319811681146111fa575f80fd5b9392505050565b80356001600160a01b0381168114610dca575f80fd5b5f8060408385031215611228575f80fd5b823567ffffffffffffffff8116811461123f575f80fd5b915061124d60208401611201565b90509250929050565b5f60208284031215611266575f80fd5b5035919050565b5f806040838503121561127e575f80fd5b8235915061124d60208401611201565b5f6020828403121561129e575f80fd5b6111fa82611201565b634e487b7160e01b5f52603260045260245ffd5b5f81518084525f5b818110156112df576020818501810151868301820152016112c3565b505f602082860101526020601f19601f83011685010191505092915050565b5f604067ffffffffffffffff851683526020604081850152845160a0604086015261132c60e08601826112bb565b905081860151603f198087840301606088015261134983836112bb565b6040890151888203830160808a0152805180835290860194505f9350908501905b8084101561139c57845180516001600160a01b031683528601518683015293850193600193909301929086019061136a565b5060608901516001600160a01b031660a08901526080890151888203830160c08a015295506113cb81876112bb565b9a9950505050505050505050565b5f602082840312156113e9575f80fd5b505191905056fea2646970667358221220364971166155ae048957f286e274eee2d77ab0852b03481eae7443ee16241ed164736f6c63430008180033","linkReferences":{}},"methodIdentifiers":{"DEFAULT_ADMIN_ROLE()":"a217fddf","PAUSER_ROLE()":"e63ab1e9","ccipRouter()":"0de22984","depositToHub(uint256)":"f98a46b9","getRoleAdmin(bytes32)":"248a9ca3","grantRole(bytes32,address)":"2f2ff15d","hasRole(bytes32,address)":"91d14854","hubChainSelector()":"b99aa297","hubPoolAddress()":"32e26eac","linkToken()":"57970e93","pause()":"8456cb59","paused()":"5c975abb","renounceRole(bytes32,address)":"36568abe","revokeRole(bytes32,address)":"d547741f","setHubTarget(uint64,address)":"100d416f","supportsInterface(bytes4)":"01ffc9a7","underlyingAsset()":"7158da7c","unpause()":"3f4ba83a","withdrawNative(address)":"2f622e6b"},"id":101}