{"abi":[{"type":"function","name":"EVM_EXTRA_ARGS_V1_TAG","inputs":[],"outputs":[{"name":"","type":"bytes4","internalType":"bytes4"}],"stateMutability":"view"},{"type":"function","name":"GENERIC_EXTRA_ARGS_V2_TAG","inputs":[],"outputs":[{"name":"","type":"bytes4","internalType":"bytes4"}],"stateMutability":"view"},{"type":"function","name":"GENERIC_EXTRA_ARGS_V3_TAG","inputs":[],"outputs":[{"name":"","type":"bytes4","internalType":"bytes4"}],"stateMutability":"view"},{"type":"function","name":"SUI_ACCOUNT_BYTE_SIZE","inputs":[],"outputs":[{"name":"","type":"uint256","internalType":"uint256"}],"stateMutability":"view"},{"type":"function","name":"SUI_EXTRA_ARGS_MAX_RECEIVER_OBJECT_IDS","inputs":[],"outputs":[{"name":"","type":"uint256","internalType":"uint256"}],"stateMutability":"view"},{"type":"function","name":"SUI_EXTRA_ARGS_V1_TAG","inputs":[],"outputs":[{"name":"","type":"bytes4","internalType":"bytes4"}],"stateMutability":"view"},{"type":"function","name":"SUI_MESSAGING_ACCOUNTS_OVERHEAD","inputs":[],"outputs":[{"name":"","type":"uint256","internalType":"uint256"}],"stateMutability":"view"},{"type":"function","name":"SUI_TOKEN_TRANSFER_DATA_OVERHEAD","inputs":[],"outputs":[{"name":"","type":"uint256","internalType":"uint256"}],"stateMutability":"view"},{"type":"function","name":"SVM_ACCOUNT_BYTE_SIZE","inputs":[],"outputs":[{"name":"","type":"uint256","internalType":"uint256"}],"stateMutability":"view"},{"type":"function","name":"SVM_EXTRA_ARGS_MAX_ACCOUNTS","inputs":[],"outputs":[{"name":"","type":"uint256","internalType":"uint256"}],"stateMutability":"view"},{"type":"function","name":"SVM_EXTRA_ARGS_V1_TAG","inputs":[],"outputs":[{"name":"","type":"bytes4","internalType":"bytes4"}],"stateMutability":"view"},{"type":"function","name":"SVM_MESSAGING_ACCOUNTS_OVERHEAD","inputs":[],"outputs":[{"name":"","type":"uint256","internalType":"uint256"}],"stateMutability":"view"},{"type":"function","name":"SVM_TOKEN_TRANSFER_DATA_OVERHEAD","inputs":[],"outputs":[{"name":"","type":"uint256","internalType":"uint256"}],"stateMutability":"view"}],"bytecode":{"object":"0x6101b4610035600b8282823980515f1a60731461002957634e487b7160e01b5f525f60045260245ffd5b305f52607381538281f3fe73000000000000000000000000000000000000000030146080604052600436106100d6575f3560e01c806390c21ba611610093578063b5f958fc1161006e578063b5f958fc1461016d578063bd62fad914610132578063f736d63a14610175578063fe489112146100da575f80fd5b806390c21ba6146101485780639713cbbd14610156578063a5dd87d81461015f575f80fd5b80631ac428f8146100da57806335f92242146100f55780633ab8c0d01461011c5780635dd8ee3e1461012a57806371953f60146101325780637498e3551461013a575b5f80fd5b6100e2604081565b6040519081526020015b60405180910390f35b61010363302326cb60e01b81565b6040516001600160e01b031990911681526020016100ec565b6101036397a657c960e01b81565b6100e2600281565b6100e2602081565b610103630181dcf160e41b81565b6101036321ea4ca960e01b81565b6100e261012c81565b610103630f9d9d5d60e11b81565b6100e2600181565b6100e261010c8156fea264697066735822122017756052a40e2f0858305444c8136509c14582546935b2c39572b6c354cafc2464736f6c63430008180033","linkReferences":{}},"methodIdentifiers":{"EVM_EXTRA_ARGS_V1_TAG()":"3ab8c0d0","GENERIC_EXTRA_ARGS_V2_TAG()":"7498e355","GENERIC_EXTRA_ARGS_V3_TAG()":"35f92242","SUI_ACCOUNT_BYTE_SIZE()":"bd62fad9","SUI_EXTRA_ARGS_MAX_RECEIVER_OBJECT_IDS()":"fe489112","SUI_EXTRA_ARGS_V1_TAG()":"90c21ba6","SUI_MESSAGING_ACCOUNTS_OVERHEAD()":"b5f958fc","SUI_TOKEN_TRANSFER_DATA_OVERHEAD()":"f736d63a","SVM_ACCOUNT_BYTE_SIZE()":"71953f60","SVM_EXTRA_ARGS_MAX_ACCOUNTS()":"1ac428f8","SVM_EXTRA_ARGS_V1_TAG()":"a5dd87d8","SVM_MESSAGING_ACCOUNTS_OVERHEAD()":"5dd8ee3e","SVM_TOKEN_TRANSFER_DATA_OVERHEAD()":"9713cbbd"},"id":93}