{"abi":[{"type":"constructor","inputs":[{"name":"initialOwner","type":"address","internalType":"address"}],"stateMutability":"nonpayable"},{"type":"function","name":"balanceOf","inputs":[{"name":"account","type":"address","internalType":"address"},{"name":"id","type":"uint256","internalType":"uint256"}],"outputs":[{"name":"","type":"uint256","internalType":"uint256"}],"stateMutability":"view"},{"type":"function","name":"balanceOfBatch","inputs":[{"name":"accounts","type":"address[]","internalType":"address[]"},{"name":"ids","type":"uint256[]","internalType":"uint256[]"}],"outputs":[{"name":"","type":"uint256[]","internalType":"uint256[]"}],"stateMutability":"view"},{"type":"function","name":"faucet","inputs":[{"name":"id","type":"uint256","internalType":"uint256"},{"name":"amount","type":"uint256","internalType":"uint256"}],"outputs":[],"stateMutability":"nonpayable"},{"type":"function","name":"isApprovedForAll","inputs":[{"name":"account","type":"address","internalType":"address"},{"name":"operator","type":"address","internalType":"address"}],"outputs":[{"name":"","type":"bool","internalType":"bool"}],"stateMutability":"view"},{"type":"function","name":"mint","inputs":[{"name":"to","type":"address","internalType":"address"},{"name":"id","type":"uint256","internalType":"uint256"},{"name":"amount","type":"uint256","internalType":"uint256"},{"name":"data","type":"bytes","internalType":"bytes"}],"outputs":[],"stateMutability":"nonpayable"},{"type":"function","name":"mintBatch","inputs":[{"name":"to","type":"address","internalType":"address"},{"name":"ids","type":"uint256[]","internalType":"uint256[]"},{"name":"amounts","type":"uint256[]","internalType":"uint256[]"},{"name":"data","type":"bytes","internalType":"bytes"}],"outputs":[],"stateMutability":"nonpayable"},{"type":"function","name":"name","inputs":[],"outputs":[{"name":"","type":"string","internalType":"string"}],"stateMutability":"pure"},{"type":"function","name":"owner","inputs":[],"outputs":[{"name":"","type":"address","internalType":"address"}],"stateMutability":"view"},{"type":"function","name":"renounceOwnership","inputs":[],"outputs":[],"stateMutability":"nonpayable"},{"type":"function","name":"safeBatchTransferFrom","inputs":[{"name":"from","type":"address","internalType":"address"},{"name":"to","type":"address","internalType":"address"},{"name":"ids","type":"uint256[]","internalType":"uint256[]"},{"name":"values","type":"uint256[]","internalType":"uint256[]"},{"name":"data","type":"bytes","internalType":"bytes"}],"outputs":[],"stateMutability":"nonpayable"},{"type":"function","name":"safeTransferFrom","inputs":[{"name":"from","type":"address","internalType":"address"},{"name":"to","type":"address","internalType":"address"},{"name":"id","type":"uint256","internalType":"uint256"},{"name":"value","type":"uint256","internalType":"uint256"},{"name":"data","type":"bytes","internalType":"bytes"}],"outputs":[],"stateMutability":"nonpayable"},{"type":"function","name":"setApprovalForAll","inputs":[{"name":"operator","type":"address","internalType":"address"},{"name":"approved","type":"bool","internalType":"bool"}],"outputs":[],"stateMutability":"nonpayable"},{"type":"function","name":"supportsInterface","inputs":[{"name":"interfaceId","type":"bytes4","internalType":"bytes4"}],"outputs":[{"name":"","type":"bool","internalType":"bool"}],"stateMutability":"view"},{"type":"function","name":"symbol","inputs":[],"outputs":[{"name":"","type":"string","internalType":"string"}],"stateMutability":"pure"},{"type":"function","name":"transferOwnership","inputs":[{"name":"newOwner","type":"address","internalType":"address"}],"outputs":[],"stateMutability":"nonpayable"},{"type":"function","name":"uri","inputs":[{"name":"","type":"uint256","internalType":"uint256"}],"outputs":[{"name":"","type":"string","internalType":"string"}],"stateMutability":"view"},{"type":"event","name":"ApprovalForAll","inputs":[{"name":"account","type":"address","indexed":true,"internalType":"address"},{"name":"operator","type":"address","indexed":true,"internalType":"address"},{"name":"approved","type":"bool","indexed":false,"internalType":"bool"}],"anonymous":false},{"type":"event","name":"OwnershipTransferred","inputs":[{"name":"previousOwner","type":"address","indexed":true,"internalType":"address"},{"name":"newOwner","type":"address","indexed":true,"internalType":"address"}],"anonymous":false},{"type":"event","name":"TransferBatch","inputs":[{"name":"operator","type":"address","indexed":true,"internalType":"address"},{"name":"from","type":"address","indexed":true,"internalType":"address"},{"name":"to","type":"address","indexed":true,"internalType":"address"},{"name":"ids","type":"uint256[]","indexed":false,"internalType":"uint256[]"},{"name":"values","type":"uint256[]","indexed":false,"internalType":"uint256[]"}],"anonymous":false},{"type":"event","name":"TransferSingle","inputs":[{"name":"operator","type":"address","indexed":true,"internalType":"address"},{"name":"from","type":"address","indexed":true,"internalType":"address"},{"name":"to","type":"address","indexed":true,"internalType":"address"},{"name":"id","type":"uint256","indexed":false,"internalType":"uint256"},{"name":"value","type":"uint256","indexed":false,"internalType":"uint256"}],"anonymous":false},{"type":"event","name":"URI","inputs":[{"name":"value","type":"string","indexed":false,"internalType":"string"},{"name":"id","type":"uint256","indexed":true,"internalType":"uint256"}],"anonymous":false},{"type":"error","name":"ERC1155InsufficientBalance","inputs":[{"name":"sender","type":"address","internalType":"address"},{"name":"balance","type":"uint256","internalType":"uint256"},{"name":"needed","type":"uint256","internalType":"uint256"},{"name":"tokenId","type":"uint256","internalType":"uint256"}]},{"type":"error","name":"ERC1155InvalidApprover","inputs":[{"name":"approver","type":"address","internalType":"address"}]},{"type":"error","name":"ERC1155InvalidArrayLength","inputs":[{"name":"idsLength","type":"uint256","internalType":"uint256"},{"name":"valuesLength","type":"uint256","internalType":"uint256"}]},{"type":"error","name":"ERC1155InvalidOperator","inputs":[{"name":"operator","type":"address","internalType":"address"}]},{"type":"error","name":"ERC1155InvalidReceiver","inputs":[{"name":"receiver","type":"address","internalType":"address"}]},{"type":"error","name":"ERC1155InvalidSender","inputs":[{"name":"sender","type":"address","internalType":"address"}]},{"type":"error","name":"ERC1155MissingApprovalForAll","inputs":[{"name":"operator","type":"address","internalType":"address"},{"name":"owner","type":"address","internalType":"address"}]},{"type":"error","name":"OwnableInvalidOwner","inputs":[{"name":"owner","type":"address","internalType":"address"}]},{"type":"error","name":"OwnableUnauthorizedAccount","inputs":[{"name":"account","type":"address","internalType":"address"}]}],"bytecode":{"object":"0x608060405234801562000010575f80fd5b5060405162001746380380620017468339810160408190526200003391620000fe565b806040518060600160405280602b81526020016200171b602b913962000059816200009b565b506001600160a01b0381166200008857604051631e4fbdf760e01b81525f600482015260240160405180910390fd5b6200009381620000ad565b505062000297565b6002620000a98282620001cb565b5050565b600380546001600160a01b038381166001600160a01b0319831681179093556040519116919082907f8be0079c531659141344cd1fd0a4f28419497f9722a3daafe3b4186f6b6457e0905f90a35050565b5f602082840312156200010f575f80fd5b81516001600160a01b038116811462000126575f80fd5b9392505050565b634e487b7160e01b5f52604160045260245ffd5b600181811c908216806200015657607f821691505b6020821081036200017557634e487b7160e01b5f52602260045260245ffd5b50919050565b601f821115620001c657805f5260205f20601f840160051c81016020851015620001a25750805b601f840160051c820191505b81811015620001c3575f8155600101620001ae565b50505b505050565b81516001600160401b03811115620001e757620001e76200012d565b620001ff81620001f8845462000141565b846200017b565b602080601f83116001811462000235575f84156200021d5750858301515b5f19600386901b1c1916600185901b1785556200028f565b5f85815260208120601f198616915b82811015620002655788860151825594840194600190910190840162000244565b50858210156200028357878501515f19600388901b60f8161c191681555b505060018460011b0185555b505050505050565b61147680620002a55f395ff3fe608060405234801561000f575f80fd5b50600436106100fa575f3560e01c8063731133e911610093578063e985e9c511610063578063e985e9c514610220578063f242432a1461025b578063f2fde38b1461026e578063f981379814610281575f80fd5b8063731133e9146101bf5780638da5cb5b146101d257806395d89b41146101ed578063a22cb4651461020d575f80fd5b80631f7fdffa116100ce5780631f7fdffa1461016f5780632eb2c2d6146101845780634e1273f414610197578063715018a6146101b7575f80fd5b8062fdd58e146100fe57806301ffc9a71461012457806306fdde03146101475780630e89341c1461015c575b5f80fd5b61011161010c366004610d2e565b610294565b6040519081526020015b60405180910390f35b610137610132366004610d6b565b6102bb565b604051901515815260200161011b565b61014f61030a565b60405161011b9190610dd0565b61014f61016a366004610de2565b61032a565b61018261017d366004610f39565b6103bc565b005b610182610192366004610fcc565b6103d6565b6101aa6101a536600461106f565b6103f5565b60405161011b9190611163565b6101826104c5565b6101826101cd366004611175565b6104d8565b6003546040516001600160a01b03909116815260200161011b565b60408051808201909152600481526310d3d39160e21b602082015261014f565b61018261021b3660046111c6565b6104ec565b61013761022e3660046111ff565b6001600160a01b039182165f90815260016020908152604080832093909416825291909152205460ff1690565b610182610269366004611230565b6104fb565b61018261027c366004611290565b610511565b61018261028f3660046112a9565b61054e565b5f818152602081815260408083206001600160a01b03861684529091529020545b92915050565b5f6001600160e01b03198216636cdb3d1360e11b14806102eb57506001600160e01b031982166303a24d0760e21b145b806102b557506301ffc9a760e01b6001600160e01b03198316146102b5565b606060405180606001604052806023815260200161141e60239139905090565b606060028054610339906112c9565b80601f0160208091040260200160405190810160405280929190818152602001828054610365906112c9565b80156103b05780601f10610387576101008083540402835291602001916103b0565b820191905f5260205f20905b81548152906001019060200180831161039357829003601f168201915b50505050509050919050565b6103c4610568565b6103d084848484610595565b50505050565b6103e1335b866105cd565b6103ee8585858585610645565b5050505050565b6060815183511461042b5781518351604051635b05999160e01b8152600481019290925260248201526044015b60405180910390fd5b5f835167ffffffffffffffff81111561044657610446610df9565b60405190808252806020026020018201604052801561046f578160200160208202803683370190505b5090505f5b84518110156104bd5760208082028601015161049890602080840287010151610294565b8282815181106104aa576104aa611301565b6020908102919091010152600101610474565b509392505050565b6104cd610568565b6104d65f6106a5565b565b6104e0610568565b6103d0848484846106f6565b6104f733838361075a565b5050565b610504336103db565b6103ee8585858585610817565b610519610568565b6001600160a01b03811661054257604051631e4fbdf760e01b81525f6004820152602401610422565b61054b816106a5565b50565b6104f733838360405180602001604052805f8152506106f6565b6003546001600160a01b031633146104d65760405163118cdaa760e01b8152336004820152602401610422565b6001600160a01b0384166105be57604051632bfa23e760e11b81525f6004820152602401610422565b6103d05f8585858560016108a4565b816001600160a01b0316816001600160a01b03161415801561061457506001600160a01b038082165f9081526001602090815260408083209386168352929052205460ff16155b156104f75760405163711bec9160e11b81526001600160a01b03808416600483015282166024820152604401610422565b6001600160a01b03841661066e57604051632bfa23e760e11b81525f6004820152602401610422565b6001600160a01b03851661069657604051626a0d4560e21b81525f6004820152602401610422565b6103ee858585858560016108a4565b600380546001600160a01b038381166001600160a01b0319831681179093556040519116919082907f8be0079c531659141344cd1fd0a4f28419497f9722a3daafe3b4186f6b6457e0905f90a35050565b6001600160a01b03841661071f57604051632bfa23e760e11b81525f6004820152602401610422565b604080516001808252602082018690528183019081526060820185905260808201909252906107525f87848487846108a4565b505050505050565b6001600160a01b03831661078357604051631f18c42760e11b81525f6004820152602401610422565b6001600160a01b0382166107ab5760405162ced3e160e81b81525f6004820152602401610422565b6001600160a01b038381165f81815260016020908152604080832094871680845294825291829020805460ff191686151590811790915591519182527f17307eab39ab6107e8899845ad3d59bd9653f200f220920489ca2b5937696c31910160405180910390a3505050565b6001600160a01b03841661084057604051632bfa23e760e11b81525f6004820152602401610422565b6001600160a01b03851661086857604051626a0d4560e21b81525f6004820152602401610422565b6040805160018082526020820186905281830190815260608201859052608082019092529061089b87878484875f6108a4565b50505050505050565b6108b0868686866108fc565b6001600160a01b03851615610752573381156108d9576108d4818888888888610b0b565b61089b565b602085810151908501516108f1838a8a85858a610c2c565b505050505050505050565b805182511461092b5781518151604051635b05999160e01b815260048101929092526024820152604401610422565b335f5b8351811015610a2d576020818102858101820151908501909101516001600160a01b038816156109df575f828152602081815260408083206001600160a01b038c168452909152902054818110156109b9576040516303dee4c560e01b81526001600160a01b038a166004820152602481018290526044810183905260648101849052608401610422565b5f838152602081815260408083206001600160a01b038d16845290915290209082900390555b6001600160a01b03871615610a23575f828152602081815260408083206001600160a01b038b16845290915281208054839290610a1d908490611315565b90915550505b505060010161092e565b508251600103610aad5760208301515f906020840151909150856001600160a01b0316876001600160a01b0316846001600160a01b03167fc3d58168c5ae7397731d063d5bbf3d657854427343f4c083240f7aacaa2d0f628585604051610a9e929190918252602082015260400190565b60405180910390a450506103ee565b836001600160a01b0316856001600160a01b0316826001600160a01b03167f4a39dc06d4c0dbc64b70af90fd698a233a518aa5d07e595d983b8c0526c8f7fb8686604051610afc929190611334565b60405180910390a45050505050565b6001600160a01b0384163b156107525760405163bc197c8160e01b81526001600160a01b0385169063bc197c8190610b4f9089908990889088908890600401611361565b6020604051808303815f875af1925050508015610b89575060408051601f3d908101601f19168201909252610b86918101906113be565b60015b610bf0573d808015610bb6576040519150601f19603f3d011682016040523d82523d5f602084013e610bbb565b606091505b5080515f03610be857604051632bfa23e760e11b81526001600160a01b0386166004820152602401610422565b805160208201fd5b6001600160e01b0319811663bc197c8160e01b1461089b57604051632bfa23e760e11b81526001600160a01b0386166004820152602401610422565b6001600160a01b0384163b156107525760405163f23a6e6160e01b81526001600160a01b0385169063f23a6e6190610c7090899089908890889088906004016113d9565b6020604051808303815f875af1925050508015610caa575060408051601f3d908101601f19168201909252610ca7918101906113be565b60015b610cd7573d808015610bb6576040519150601f19603f3d011682016040523d82523d5f602084013e610bbb565b6001600160e01b0319811663f23a6e6160e01b1461089b57604051632bfa23e760e11b81526001600160a01b0386166004820152602401610422565b80356001600160a01b0381168114610d29575f80fd5b919050565b5f8060408385031215610d3f575f80fd5b610d4883610d13565b946020939093013593505050565b6001600160e01b03198116811461054b575f80fd5b5f60208284031215610d7b575f80fd5b8135610d8681610d56565b9392505050565b5f81518084525f5b81811015610db157602081850181015186830182015201610d95565b505f602082860101526020601f19601f83011685010191505092915050565b602081525f610d866020830184610d8d565b5f60208284031215610df2575f80fd5b5035919050565b634e487b7160e01b5f52604160045260245ffd5b604051601f8201601f1916810167ffffffffffffffff81118282101715610e3657610e36610df9565b604052919050565b5f67ffffffffffffffff821115610e5757610e57610df9565b5060051b60200190565b5f82601f830112610e70575f80fd5b81356020610e85610e8083610e3e565b610e0d565b8083825260208201915060208460051b870101935086841115610ea6575f80fd5b602086015b84811015610ec25780358352918301918301610eab565b509695505050505050565b5f82601f830112610edc575f80fd5b813567ffffffffffffffff811115610ef657610ef6610df9565b610f09601f8201601f1916602001610e0d565b818152846020838601011115610f1d575f80fd5b816020850160208301375f918101602001919091529392505050565b5f805f8060808587031215610f4c575f80fd5b610f5585610d13565b9350602085013567ffffffffffffffff80821115610f71575f80fd5b610f7d88838901610e61565b94506040870135915080821115610f92575f80fd5b610f9e88838901610e61565b93506060870135915080821115610fb3575f80fd5b50610fc087828801610ecd565b91505092959194509250565b5f805f805f60a08688031215610fe0575f80fd5b610fe986610d13565b9450610ff760208701610d13565b9350604086013567ffffffffffffffff80821115611013575f80fd5b61101f89838a01610e61565b94506060880135915080821115611034575f80fd5b61104089838a01610e61565b93506080880135915080821115611055575f80fd5b5061106288828901610ecd565b9150509295509295909350565b5f8060408385031215611080575f80fd5b823567ffffffffffffffff80821115611097575f80fd5b818501915085601f8301126110aa575f80fd5b813560206110ba610e8083610e3e565b82815260059290921b840181019181810190898411156110d8575f80fd5b948201945b838610156110fd576110ee86610d13565b825294820194908201906110dd565b96505086013592505080821115611112575f80fd5b5061111f85828601610e61565b9150509250929050565b5f815180845260208085019450602084015f5b838110156111585781518752958201959082019060010161113c565b509495945050505050565b602081525f610d866020830184611129565b5f805f8060808587031215611188575f80fd5b61119185610d13565b93506020850135925060408501359150606085013567ffffffffffffffff8111156111ba575f80fd5b610fc087828801610ecd565b5f80604083850312156111d7575f80fd5b6111e083610d13565b9150602083013580151581146111f4575f80fd5b809150509250929050565b5f8060408385031215611210575f80fd5b61121983610d13565b915061122760208401610d13565b90509250929050565b5f805f805f60a08688031215611244575f80fd5b61124d86610d13565b945061125b60208701610d13565b93506040860135925060608601359150608086013567ffffffffffffffff811115611284575f80fd5b61106288828901610ecd565b5f602082840312156112a0575f80fd5b610d8682610d13565b5f80604083850312156112ba575f80fd5b50508035926020909101359150565b600181811c908216806112dd57607f821691505b6020821081036112fb57634e487b7160e01b5f52602260045260245ffd5b50919050565b634e487b7160e01b5f52603260045260245ffd5b808201808211156102b557634e487b7160e01b5f52601160045260245ffd5b604081525f6113466040830185611129565b82810360208401526113588185611129565b95945050505050565b6001600160a01b0386811682528516602082015260a0604082018190525f9061138c90830186611129565b828103606084015261139e8186611129565b905082810360808401526113b28185610d8d565b98975050505050505050565b5f602082840312156113ce575f80fd5b8151610d8681610d56565b6001600160a01b03868116825285166020820152604081018490526060810183905260a0608082018190525f9061141290830184610d8d565b97965050505050505056fe506f6c796d61726b657420436f6e646974696f6e616c20546f6b656e20284d6f636b29a264697066735822122023980e592c0bf6403fe4747dba2752f8fe1777f1aae9eb763708b8a28b16d62b64736f6c6343000818003368747470733a2f2f6d6f636b2e706f6c796d61726b65742e636f6d2f746f6b656e2f7b69647d2e6a736f6e","linkReferences":{}},"methodIdentifiers":{"balanceOf(address,uint256)":"00fdd58e","balanceOfBatch(address[],uint256[])":"4e1273f4","faucet(uint256,uint256)":"f9813798","isApprovedForAll(address,address)":"e985e9c5","mint(address,uint256,uint256,bytes)":"731133e9","mintBatch(address,uint256[],uint256[],bytes)":"1f7fdffa","name()":"06fdde03","owner()":"8da5cb5b","renounceOwnership()":"715018a6","safeBatchTransferFrom(address,address,uint256[],uint256[],bytes)":"2eb2c2d6","safeTransferFrom(address,address,uint256,uint256,bytes)":"f242432a","setApprovalForAll(address,bool)":"a22cb465","supportsInterface(bytes4)":"01ffc9a7","symbol()":"95d89b41","transferOwnership(address)":"f2fde38b","uri(uint256)":"0e89341c"},"id":102}