{"abi":[{"type":"constructor","inputs":[{"name":"admin","type":"address","internalType":"address"}],"stateMutability":"nonpayable"},{"type":"function","name":"DEFAULT_ADMIN_ROLE","inputs":[],"outputs":[{"name":"","type":"bytes32","internalType":"bytes32"}],"stateMutability":"view"},{"type":"function","name":"IDENTITY_PROVIDER_ROLE","inputs":[],"outputs":[{"name":"","type":"bytes32","internalType":"bytes32"}],"stateMutability":"view"},{"type":"function","name":"approve","inputs":[{"name":"to","type":"address","internalType":"address"},{"name":"tokenId","type":"uint256","internalType":"uint256"}],"outputs":[],"stateMutability":"nonpayable"},{"type":"function","name":"balanceOf","inputs":[{"name":"owner","type":"address","internalType":"address"}],"outputs":[{"name":"","type":"uint256","internalType":"uint256"}],"stateMutability":"view"},{"type":"function","name":"getApproved","inputs":[{"name":"tokenId","type":"uint256","internalType":"uint256"}],"outputs":[{"name":"","type":"address","internalType":"address"}],"stateMutability":"view"},{"type":"function","name":"getRoleAdmin","inputs":[{"name":"role","type":"bytes32","internalType":"bytes32"}],"outputs":[{"name":"","type":"bytes32","internalType":"bytes32"}],"stateMutability":"view"},{"type":"function","name":"getTokenId","inputs":[{"name":"wallet","type":"address","internalType":"address"}],"outputs":[{"name":"","type":"uint256","internalType":"uint256"}],"stateMutability":"view"},{"type":"function","name":"grantRole","inputs":[{"name":"role","type":"bytes32","internalType":"bytes32"},{"name":"account","type":"address","internalType":"address"}],"outputs":[],"stateMutability":"nonpayable"},{"type":"function","name":"hasRole","inputs":[{"name":"role","type":"bytes32","internalType":"bytes32"},{"name":"account","type":"address","internalType":"address"}],"outputs":[{"name":"","type":"bool","internalType":"bool"}],"stateMutability":"view"},{"type":"function","name":"isApprovedForAll","inputs":[{"name":"owner","type":"address","internalType":"address"},{"name":"operator","type":"address","internalType":"address"}],"outputs":[{"name":"","type":"bool","internalType":"bool"}],"stateMutability":"view"},{"type":"function","name":"isRevoked","inputs":[{"name":"","type":"uint256","internalType":"uint256"}],"outputs":[{"name":"","type":"bool","internalType":"bool"}],"stateMutability":"view"},{"type":"function","name":"isValid","inputs":[{"name":"wallet","type":"address","internalType":"address"}],"outputs":[{"name":"valid","type":"bool","internalType":"bool"}],"stateMutability":"view"},{"type":"function","name":"mint","inputs":[{"name":"wallet","type":"address","internalType":"address"},{"name":"expiry","type":"uint256","internalType":"uint256"}],"outputs":[{"name":"tokenId","type":"uint256","internalType":"uint256"}],"stateMutability":"nonpayable"},{"type":"function","name":"name","inputs":[],"outputs":[{"name":"","type":"string","internalType":"string"}],"stateMutability":"view"},{"type":"function","name":"ownerOf","inputs":[{"name":"tokenId","type":"uint256","internalType":"uint256"}],"outputs":[{"name":"","type":"address","internalType":"address"}],"stateMutability":"view"},{"type":"function","name":"renew","inputs":[{"name":"tokenId","type":"uint256","internalType":"uint256"},{"name":"newExpiry","type":"uint256","internalType":"uint256"}],"outputs":[],"stateMutability":"nonpayable"},{"type":"function","name":"renounceRole","inputs":[{"name":"role","type":"bytes32","internalType":"bytes32"},{"name":"callerConfirmation","type":"address","internalType":"address"}],"outputs":[],"stateMutability":"nonpayable"},{"type":"function","name":"revoke","inputs":[{"name":"tokenId","type":"uint256","internalType":"uint256"}],"outputs":[],"stateMutability":"nonpayable"},{"type":"function","name":"revokeRole","inputs":[{"name":"role","type":"bytes32","internalType":"bytes32"},{"name":"account","type":"address","internalType":"address"}],"outputs":[],"stateMutability":"nonpayable"},{"type":"function","name":"safeTransferFrom","inputs":[{"name":"from","type":"address","internalType":"address"},{"name":"to","type":"address","internalType":"address"},{"name":"tokenId","type":"uint256","internalType":"uint256"}],"outputs":[],"stateMutability":"nonpayable"},{"type":"function","name":"safeTransferFrom","inputs":[{"name":"from","type":"address","internalType":"address"},{"name":"to","type":"address","internalType":"address"},{"name":"tokenId","type":"uint256","internalType":"uint256"},{"name":"data","type":"bytes","internalType":"bytes"}],"outputs":[],"stateMutability":"nonpayable"},{"type":"function","name":"setApprovalForAll","inputs":[{"name":"operator","type":"address","internalType":"address"},{"name":"approved","type":"bool","internalType":"bool"}],"outputs":[],"stateMutability":"nonpayable"},{"type":"function","name":"supportsInterface","inputs":[{"name":"interfaceId","type":"bytes4","internalType":"bytes4"}],"outputs":[{"name":"","type":"bool","internalType":"bool"}],"stateMutability":"view"},{"type":"function","name":"symbol","inputs":[],"outputs":[{"name":"","type":"string","internalType":"string"}],"stateMutability":"view"},{"type":"function","name":"tokenExpiry","inputs":[{"name":"","type":"uint256","internalType":"uint256"}],"outputs":[{"name":"","type":"uint256","internalType":"uint256"}],"stateMutability":"view"},{"type":"function","name":"tokenURI","inputs":[{"name":"tokenId","type":"uint256","internalType":"uint256"}],"outputs":[{"name":"","type":"string","internalType":"string"}],"stateMutability":"view"},{"type":"function","name":"transferFrom","inputs":[{"name":"from","type":"address","internalType":"address"},{"name":"to","type":"address","internalType":"address"},{"name":"tokenId","type":"uint256","internalType":"uint256"}],"outputs":[],"stateMutability":"nonpayable"},{"type":"event","name":"Approval","inputs":[{"name":"owner","type":"address","indexed":true,"internalType":"address"},{"name":"approved","type":"address","indexed":true,"internalType":"address"},{"name":"tokenId","type":"uint256","indexed":true,"internalType":"uint256"}],"anonymous":false},{"type":"event","name":"ApprovalForAll","inputs":[{"name":"owner","type":"address","indexed":true,"internalType":"address"},{"name":"operator","type":"address","indexed":true,"internalType":"address"},{"name":"approved","type":"bool","indexed":false,"internalType":"bool"}],"anonymous":false},{"type":"event","name":"CCIDMinted","inputs":[{"name":"wallet","type":"address","indexed":true,"internalType":"address"},{"name":"tokenId","type":"uint256","indexed":true,"internalType":"uint256"},{"name":"expiry","type":"uint256","indexed":false,"internalType":"uint256"}],"anonymous":false},{"type":"event","name":"CCIDRenewed","inputs":[{"name":"tokenId","type":"uint256","indexed":true,"internalType":"uint256"},{"name":"newExpiry","type":"uint256","indexed":false,"internalType":"uint256"}],"anonymous":false},{"type":"event","name":"CCIDRevoked","inputs":[{"name":"tokenId","type":"uint256","indexed":true,"internalType":"uint256"},{"name":"wallet","type":"address","indexed":true,"internalType":"address"}],"anonymous":false},{"type":"event","name":"RoleAdminChanged","inputs":[{"name":"role","type":"bytes32","indexed":true,"internalType":"bytes32"},{"name":"previousAdminRole","type":"bytes32","indexed":true,"internalType":"bytes32"},{"name":"newAdminRole","type":"bytes32","indexed":true,"internalType":"bytes32"}],"anonymous":false},{"type":"event","name":"RoleGranted","inputs":[{"name":"role","type":"bytes32","indexed":true,"internalType":"bytes32"},{"name":"account","type":"address","indexed":true,"internalType":"address"},{"name":"sender","type":"address","indexed":true,"internalType":"address"}],"anonymous":false},{"type":"event","name":"RoleRevoked","inputs":[{"name":"role","type":"bytes32","indexed":true,"internalType":"bytes32"},{"name":"account","type":"address","indexed":true,"internalType":"address"},{"name":"sender","type":"address","indexed":true,"internalType":"address"}],"anonymous":false},{"type":"event","name":"Transfer","inputs":[{"name":"from","type":"address","indexed":true,"internalType":"address"},{"name":"to","type":"address","indexed":true,"internalType":"address"},{"name":"tokenId","type":"uint256","indexed":true,"internalType":"uint256"}],"anonymous":false},{"type":"error","name":"AccessControlBadConfirmation","inputs":[]},{"type":"error","name":"AccessControlUnauthorizedAccount","inputs":[{"name":"account","type":"address","internalType":"address"},{"name":"neededRole","type":"bytes32","internalType":"bytes32"}]},{"type":"error","name":"AlreadyHasCCID","inputs":[{"name":"wallet","type":"address","internalType":"address"}]},{"type":"error","name":"ERC721IncorrectOwner","inputs":[{"name":"sender","type":"address","internalType":"address"},{"name":"tokenId","type":"uint256","internalType":"uint256"},{"name":"owner","type":"address","internalType":"address"}]},{"type":"error","name":"ERC721InsufficientApproval","inputs":[{"name":"operator","type":"address","internalType":"address"},{"name":"tokenId","type":"uint256","internalType":"uint256"}]},{"type":"error","name":"ERC721InvalidApprover","inputs":[{"name":"approver","type":"address","internalType":"address"}]},{"type":"error","name":"ERC721InvalidOperator","inputs":[{"name":"operator","type":"address","internalType":"address"}]},{"type":"error","name":"ERC721InvalidOwner","inputs":[{"name":"owner","type":"address","internalType":"address"}]},{"type":"error","name":"ERC721InvalidReceiver","inputs":[{"name":"receiver","type":"address","internalType":"address"}]},{"type":"error","name":"ERC721InvalidSender","inputs":[{"name":"sender","type":"address","internalType":"address"}]},{"type":"error","name":"ERC721NonexistentToken","inputs":[{"name":"tokenId","type":"uint256","internalType":"uint256"}]},{"type":"error","name":"TokenNotFound","inputs":[{"name":"tokenId","type":"uint256","internalType":"uint256"}]},{"type":"error","name":"TransferDisabled","inputs":[]}],"bytecode":{"object":"0x608060405234801562000010575f80fd5b50604051620019f2380380620019f2833981016040819052620000339162000173565b6040518060400160405280601481526020017f43726f73732d436861696e204964656e746974790000000000000000000000008152506040518060400160405280600481526020016310d0d25160e21b815250815f908162000096919062000240565b506001620000a5828262000240565b50620000b691505f905082620000c3565b505060016007556200030c565b5f8281526006602090815260408083206001600160a01b038516845290915281205460ff166200016a575f8381526006602090815260408083206001600160a01b03861684529091529020805460ff19166001179055620001213390565b6001600160a01b0316826001600160a01b0316847f2f8788117e7eff1d82e926ec794901d17c78024a50270940304540a733656f0d60405160405180910390a45060016200016d565b505f5b92915050565b5f6020828403121562000184575f80fd5b81516001600160a01b03811681146200019b575f80fd5b9392505050565b634e487b7160e01b5f52604160045260245ffd5b600181811c90821680620001cb57607f821691505b602082108103620001ea57634e487b7160e01b5f52602260045260245ffd5b50919050565b601f8211156200023b57805f5260205f20601f840160051c81016020851015620002175750805b601f840160051c820191505b8181101562000238575f815560010162000223565b50505b505050565b81516001600160401b038111156200025c576200025c620001a2565b62000274816200026d8454620001b6565b84620001f0565b602080601f831160018114620002aa575f8415620002925750858301515b5f19600386901b1c1916600185901b17855562000304565b5f85815260208120601f198616915b82811015620002da57888601518255948401946001909101908401620002b9565b5085821015620002f857878501515f19600388901b60f8161c191681555b505060018460011b0185555b505050505050565b6116d8806200031a5f395ff3fe608060405234801561000f575f80fd5b50600436106101a1575f3560e01c80636352211e116100f3578063acced42611610093578063c87b56dd1161006e578063c87b56dd146103ad578063d547741f146103c0578063e985e9c5146103d3578063f1537686146103e6575f80fd5b8063acced42614610368578063b88d4fde14610387578063c475abff1461039a575f80fd5b806391d14854116100ce57806391d148541461033357806395d89b4114610346578063a217fddf1461034e578063a22cb46514610355575f80fd5b80636352211e146102fa57806370a082311461030d5780638b1b925f14610320575f80fd5b8063248a9ca31161015e57806336568abe1161013957806336568abe1461029f57806340c10f19146102b257806342842e0e146102c55780635ccc561e146102d8575f80fd5b8063248a9ca3146102485780632f2ff15d146102785780633450a25a1461028b575f80fd5b806301ffc9a7146101a557806306fdde03146101cd578063081812fc146101e2578063095ea7b31461020d57806320c5429b1461022257806323b872dd14610235575b5f80fd5b6101b86101b33660046112e7565b61040e565b60405190151581526020015b60405180910390f35b6101d561041e565b6040516101c4919061134f565b6101f56101f0366004611361565b6104ad565b6040516001600160a01b0390911681526020016101c4565b61022061021b366004611393565b6104d4565b005b610220610230366004611361565b6104e3565b6102206102433660046113bb565b610556565b61026a610256366004611361565b5f9081526006602052604090206001015490565b6040519081526020016101c4565b6102206102863660046113f4565b6105e4565b61026a5f8051602061168383398151915281565b6102206102ad3660046113f4565b610608565b61026a6102c0366004611393565b610640565b6102206102d33660046113bb565b61071d565b6101b86102e6366004611361565b600a6020525f908152604090205460ff1681565b6101f5610308366004611361565b610737565b61026a61031b36600461141e565b610741565b6101b861032e36600461141e565b610786565b6101b86103413660046113f4565b610809565b6101d5610833565b61026a5f81565b610220610363366004611437565b610842565b61026a610376366004611361565b60096020525f908152604090205481565b610220610395366004611484565b61084d565b6102206103a8366004611559565b610865565b6101d56103bb366004611361565b610904565b6102206103ce3660046113f4565b610975565b6101b86103e1366004611579565b610999565b61026a6103f436600461141e565b6001600160a01b03165f9081526008602052604090205490565b5f610418826109c6565b92915050565b60605f805461042c906115a1565b80601f0160208091040260200160405190810160405280929190818152602001828054610458906115a1565b80156104a35780601f1061047a576101008083540402835291602001916104a3565b820191905f5260205f20905b81548152906001019060200180831161048657829003601f168201915b5050505050905090565b5f6104b7826109ea565b505f828152600460205260409020546001600160a01b0316610418565b6104df828233610a22565b5050565b5f805160206116838339815191526104fa81610a2f565b5f61050483610737565b5f848152600a6020526040808220805460ff19166001179055519192506001600160a01b0383169185917fe69a028e51e8cc24c54d3bb9b547fc194f0c5389ed95bad9c2b84454486a173791a3505050565b6001600160a01b03821661058457604051633250574960e11b81525f60048201526024015b60405180910390fd5b5f610590838333610a3c565b9050836001600160a01b0316816001600160a01b0316146105de576040516364283d7b60e01b81526001600160a01b038086166004830152602482018490528216604482015260640161057b565b50505050565b5f828152600660205260409020600101546105fe81610a2f565b6105de8383610ad9565b6001600160a01b03811633146106315760405163334bd91960e11b815260040160405180910390fd5b61063b8282610b6a565b505050565b5f5f8051602061168383398151915261065881610a2f565b6001600160a01b0384165f908152600860205260409020541561069957604051633d80b0cd60e21b81526001600160a01b038516600482015260240161057b565b60078054905f6106a8836115d9565b9190505591506106b88483610bd5565b6001600160a01b0384165f818152600860209081526040808320869055858352600982529182902086905590518581528492917fb51792449ddc985744b81f8e8663be9065bb3effb207b7e4715fc159e124e209910160405180910390a35092915050565b61063b83838360405180602001604052805f81525061084d565b5f610418826109ea565b5f6001600160a01b03821661076b576040516322718ad960e21b81525f600482015260240161057b565b506001600160a01b03165f9081526003602052604090205490565b6001600160a01b0381165f908152600860205260408120548082036107ad57505f92915050565b5f818152600a602052604090205460ff16156107cb57505f92915050565b5f81815260096020526040902054158015906107f357505f8181526009602052604090205442115b1561080057505f92915050565b50600192915050565b5f9182526006602090815260408084206001600160a01b0393909316845291905290205460ff1690565b60606001805461042c906115a1565b6104df338383610c36565b610858848484610556565b6105de3385858585610cfd565b5f8051602061168383398151915261087c81610a2f565b5f838152600260205260409020546001600160a01b03166108b3576040516306caeb1360e41b81526004810184905260240161057b565b5f83815260096020526040908190208390555183907fa352dad1b3b1b5af5b80c6705f7d77c1878742d11b8249ef0fc96dbb881e3f7a906108f79085815260200190565b60405180910390a2505050565b606061090f826109ea565b505f61092560408051602081019091525f815290565b90505f8151116109435760405180602001604052805f81525061096e565b8061094d84610e25565b60405160200161095e9291906115fd565b6040516020818303038152906040525b9392505050565b5f8281526006602052604090206001015461098f81610a2f565b6105de8383610b6a565b6001600160a01b039182165f90815260056020908152604080832093909416825291909152205460ff1690565b5f6001600160e01b03198216637965db0b60e01b1480610418575061041882610eb5565b5f818152600260205260408120546001600160a01b03168061041857604051637e27328960e01b81526004810184905260240161057b565b61063b8383836001610f04565b610a398133611008565b50565b5f828152600260205260408120546001600160a01b03168015801590610a6a57506001600160a01b03851615155b15610a885760405163a24e573d60e01b815260040160405180910390fd5b6001600160a01b038516158015610aa757506001600160a01b03811615155b15610ac5576001600160a01b0381165f908152600860205260408120555b610ad0858585611041565b95945050505050565b5f610ae48383610809565b610b63575f8381526006602090815260408083206001600160a01b03861684529091529020805460ff19166001179055610b1b3390565b6001600160a01b0316826001600160a01b0316847f2f8788117e7eff1d82e926ec794901d17c78024a50270940304540a733656f0d60405160405180910390a4506001610418565b505f610418565b5f610b758383610809565b15610b63575f8381526006602090815260408083206001600160a01b0386168085529252808320805460ff1916905551339286917ff6391f5c32d9c69d2a47ea670b442974b53935d1edc7fd64eb21e047a839171b9190a4506001610418565b6001600160a01b038216610bfe57604051633250574960e11b81525f600482015260240161057b565b5f610c0a83835f610a3c565b90506001600160a01b0381161561063b576040516339e3563760e11b81525f600482015260240161057b565b6001600160a01b038316610c5f5760405163a9fbf51f60e01b81525f600482015260240161057b565b6001600160a01b038216610c9157604051630b61174360e31b81526001600160a01b038316600482015260240161057b565b6001600160a01b038381165f81815260056020908152604080832094871680845294825291829020805460ff191686151590811790915591519182527f17307eab39ab6107e8899845ad3d59bd9653f200f220920489ca2b5937696c31910160405180910390a3505050565b6001600160a01b0383163b15610e1e57604051630a85bd0160e11b81526001600160a01b0384169063150b7a0290610d3f90889088908790879060040161162b565b6020604051808303815f875af1925050508015610d79575060408051601f3d908101601f19168201909252610d7691810190611667565b60015b610de0573d808015610da6576040519150601f19603f3d011682016040523d82523d5f602084013e610dab565b606091505b5080515f03610dd857604051633250574960e11b81526001600160a01b038516600482015260240161057b565b805160208201fd5b6001600160e01b03198116630a85bd0160e11b14610e1c57604051633250574960e11b81526001600160a01b038516600482015260240161057b565b505b5050505050565b60605f610e3183611133565b60010190505f8167ffffffffffffffff811115610e5057610e50611470565b6040519080825280601f01601f191660200182016040528015610e7a576020820181803683370190505b5090508181016020015b5f19016f181899199a1a9b1b9c1cb0b131b232b360811b600a86061a8153600a8504945084610e8457509392505050565b5f6001600160e01b031982166380ac58cd60e01b1480610ee557506001600160e01b03198216635b5e139f60e01b145b8061041857506301ffc9a760e01b6001600160e01b0319831614610418565b8080610f1857506001600160a01b03821615155b15610fd9575f610f27846109ea565b90506001600160a01b03831615801590610f535750826001600160a01b0316816001600160a01b031614155b8015610f665750610f648184610999565b155b15610f8f5760405163a9fbf51f60e01b81526001600160a01b038416600482015260240161057b565b8115610fd75783856001600160a01b0316826001600160a01b03167f8c5be1e5ebec7d5bd14f71427d1e84f3dd0314c0f7b2291e5b200ac8c7c3b92560405160405180910390a45b505b50505f90815260046020526040902080546001600160a01b0319166001600160a01b0392909216919091179055565b6110128282610809565b6104df5760405163e2517d3f60e01b81526001600160a01b03821660048201526024810183905260440161057b565b5f828152600260205260408120546001600160a01b039081169083161561106d5761106d81848661120a565b6001600160a01b038116156110a7576110885f855f80610f04565b6001600160a01b0381165f90815260036020526040902080545f190190555b6001600160a01b038516156110d5576001600160a01b0385165f908152600360205260409020805460010190555b5f8481526002602052604080822080546001600160a01b0319166001600160a01b0389811691821790925591518793918516917fddf252ad1be2c89b69c2b068fc378daa952ba7f163c4a11628f55a4df523b3ef91a4949350505050565b5f8072184f03e93ff9f4daa797ed6e38ed64bf6a1f0160401b83106111715772184f03e93ff9f4daa797ed6e38ed64bf6a1f0160401b830492506040015b6d04ee2d6d415b85acef8100000000831061119d576d04ee2d6d415b85acef8100000000830492506020015b662386f26fc1000083106111bb57662386f26fc10000830492506010015b6305f5e10083106111d3576305f5e100830492506008015b61271083106111e757612710830492506004015b606483106111f9576064830492506002015b600a83106104185760010192915050565b61121583838361126e565b61063b576001600160a01b03831661124357604051637e27328960e01b81526004810182905260240161057b565b60405163177e802f60e01b81526001600160a01b03831660048201526024810182905260440161057b565b5f6001600160a01b038316158015906112ca5750826001600160a01b0316846001600160a01b031614806112a757506112a78484610999565b806112ca57505f828152600460205260409020546001600160a01b038481169116145b949350505050565b6001600160e01b031981168114610a39575f80fd5b5f602082840312156112f7575f80fd5b813561096e816112d2565b5f5b8381101561131c578181015183820152602001611304565b50505f910152565b5f815180845261133b816020860160208601611302565b601f01601f19169290920160200192915050565b602081525f61096e6020830184611324565b5f60208284031215611371575f80fd5b5035919050565b80356001600160a01b038116811461138e575f80fd5b919050565b5f80604083850312156113a4575f80fd5b6113ad83611378565b946020939093013593505050565b5f805f606084860312156113cd575f80fd5b6113d684611378565b92506113e460208501611378565b9150604084013590509250925092565b5f8060408385031215611405575f80fd5b8235915061141560208401611378565b90509250929050565b5f6020828403121561142e575f80fd5b61096e82611378565b5f8060408385031215611448575f80fd5b61145183611378565b915060208301358015158114611465575f80fd5b809150509250929050565b634e487b7160e01b5f52604160045260245ffd5b5f805f8060808587031215611497575f80fd5b6114a085611378565b93506114ae60208601611378565b925060408501359150606085013567ffffffffffffffff808211156114d1575f80fd5b818701915087601f8301126114e4575f80fd5b8135818111156114f6576114f6611470565b604051601f8201601f19908116603f0116810190838211818310171561151e5761151e611470565b816040528281528a6020848701011115611536575f80fd5b826020860160208301375f60208483010152809550505050505092959194509250565b5f806040838503121561156a575f80fd5b50508035926020909101359150565b5f806040838503121561158a575f80fd5b61159383611378565b915061141560208401611378565b600181811c908216806115b557607f821691505b6020821081036115d357634e487b7160e01b5f52602260045260245ffd5b50919050565b5f600182016115f657634e487b7160e01b5f52601160045260245ffd5b5060010190565b5f835161160e818460208801611302565b835190830190611622818360208801611302565b01949350505050565b6001600160a01b03858116825284166020820152604081018390526080606082018190525f9061165d90830184611324565b9695505050505050565b5f60208284031215611677575f80fd5b815161096e816112d256feaef616367f94e08b5db6d06c8e8306cf62f838d101a77927bb7302225e13280ca26469706673582212203c2bd9acad559f14f5e027a81a13076013ed2623a12cc5b1857ef633c3e95f3564736f6c63430008180033","linkReferences":{}},"methodIdentifiers":{"DEFAULT_ADMIN_ROLE()":"a217fddf","IDENTITY_PROVIDER_ROLE()":"3450a25a","approve(address,uint256)":"095ea7b3","balanceOf(address)":"70a08231","getApproved(uint256)":"081812fc","getRoleAdmin(bytes32)":"248a9ca3","getTokenId(address)":"f1537686","grantRole(bytes32,address)":"2f2ff15d","hasRole(bytes32,address)":"91d14854","isApprovedForAll(address,address)":"e985e9c5","isRevoked(uint256)":"5ccc561e","isValid(address)":"8b1b925f","mint(address,uint256)":"40c10f19","name()":"06fdde03","ownerOf(uint256)":"6352211e","renew(uint256,uint256)":"c475abff","renounceRole(bytes32,address)":"36568abe","revoke(uint256)":"20c5429b","revokeRole(bytes32,address)":"d547741f","safeTransferFrom(address,address,uint256)":"42842e0e","safeTransferFrom(address,address,uint256,bytes)":"b88d4fde","setApprovalForAll(address,bool)":"a22cb465","supportsInterface(bytes4)":"01ffc9a7","symbol()":"95d89b41","tokenExpiry(uint256)":"acced426","tokenURI(uint256)":"c87b56dd","transferFrom(address,address,uint256)":"23b872dd"},"id":97}