{"abi":[{"type":"function","name":"DEFAULT_GAS_LIMIT","inputs":[],"outputs":[{"name":"","type":"uint32","internalType":"uint32"}],"stateMutability":"view"},{"type":"function","name":"GAS_FOR_CALL_EXACT_CHECK","inputs":[],"outputs":[{"name":"","type":"uint16","internalType":"uint16"}],"stateMutability":"view"},{"type":"function","name":"ccipSend","inputs":[{"name":"destinationChainSelector","type":"uint64","internalType":"uint64"},{"name":"message","type":"tuple","internalType":"struct Client.EVM2AnyMessage","components":[{"name":"receiver","type":"bytes","internalType":"bytes"},{"name":"data","type":"bytes","internalType":"bytes"},{"name":"tokenAmounts","type":"tuple[]","internalType":"struct Client.EVMTokenAmount[]","components":[{"name":"token","type":"address","internalType":"address"},{"name":"amount","type":"uint256","internalType":"uint256"}]},{"name":"feeToken","type":"address","internalType":"address"},{"name":"extraArgs","type":"bytes","internalType":"bytes"}]}],"outputs":[{"name":"","type":"bytes32","internalType":"bytes32"}],"stateMutability":"payable"},{"type":"function","name":"getFee","inputs":[{"name":"","type":"uint64","internalType":"uint64"},{"name":"","type":"tuple","internalType":"struct Client.EVM2AnyMessage","components":[{"name":"receiver","type":"bytes","internalType":"bytes"},{"name":"data","type":"bytes","internalType":"bytes"},{"name":"tokenAmounts","type":"tuple[]","internalType":"struct Client.EVMTokenAmount[]","components":[{"name":"token","type":"address","internalType":"address"},{"name":"amount","type":"uint256","internalType":"uint256"}]},{"name":"feeToken","type":"address","internalType":"address"},{"name":"extraArgs","type":"bytes","internalType":"bytes"}]}],"outputs":[{"name":"","type":"uint256","internalType":"uint256"}],"stateMutability":"view"},{"type":"function","name":"getOnRamp","inputs":[{"name":"","type":"uint64","internalType":"uint64"}],"outputs":[{"name":"onRampAddress","type":"address","internalType":"address"}],"stateMutability":"pure"},{"type":"function","name":"getSupportedTokens","inputs":[{"name":"","type":"uint64","internalType":"uint64"}],"outputs":[{"name":"tokens","type":"address[]","internalType":"address[]"}],"stateMutability":"pure"},{"type":"function","name":"isChainSupported","inputs":[{"name":"","type":"uint64","internalType":"uint64"}],"outputs":[{"name":"supported","type":"bool","internalType":"bool"}],"stateMutability":"pure"},{"type":"function","name":"isOffRamp","inputs":[{"name":"","type":"uint64","internalType":"uint64"},{"name":"","type":"address","internalType":"address"}],"outputs":[{"name":"","type":"bool","internalType":"bool"}],"stateMutability":"pure"},{"type":"function","name":"routeMessage","inputs":[{"name":"message","type":"tuple","internalType":"struct Client.Any2EVMMessage","components":[{"name":"messageId","type":"bytes32","internalType":"bytes32"},{"name":"sourceChainSelector","type":"uint64","internalType":"uint64"},{"name":"sender","type":"bytes","internalType":"bytes"},{"name":"data","type":"bytes","internalType":"bytes"},{"name":"destTokenAmounts","type":"tuple[]","internalType":"struct Client.EVMTokenAmount[]","components":[{"name":"token","type":"address","internalType":"address"},{"name":"amount","type":"uint256","internalType":"uint256"}]}]},{"name":"gasForCallExactCheck","type":"uint16","internalType":"uint16"},{"name":"gasLimit","type":"uint256","internalType":"uint256"},{"name":"receiver","type":"address","internalType":"address"}],"outputs":[{"name":"success","type":"bool","internalType":"bool"},{"name":"retData","type":"bytes","internalType":"bytes"},{"name":"gasUsed","type":"uint256","internalType":"uint256"}],"stateMutability":"nonpayable"},{"type":"function","name":"setFee","inputs":[{"name":"feeAmount","type":"uint256","internalType":"uint256"}],"outputs":[],"stateMutability":"nonpayable"},{"type":"event","name":"MessageExecuted","inputs":[{"name":"messageId","type":"bytes32","indexed":false,"internalType":"bytes32"},{"name":"sourceChainSelector","type":"uint64","indexed":false,"internalType":"uint64"},{"name":"offRamp","type":"address","indexed":false,"internalType":"address"},{"name":"calldataHash","type":"bytes32","indexed":false,"internalType":"bytes32"}],"anonymous":false},{"type":"event","name":"MsgExecuted","inputs":[{"name":"success","type":"bool","indexed":false,"internalType":"bool"},{"name":"retData","type":"bytes","indexed":false,"internalType":"bytes"},{"name":"gasUsed","type":"uint256","indexed":false,"internalType":"uint256"}],"anonymous":false},{"type":"error","name":"InsufficientFeeTokenAmount","inputs":[]},{"type":"error","name":"InvalidAddress","inputs":[{"name":"encodedAddress","type":"bytes","internalType":"bytes"}]},{"type":"error","name":"InvalidExtraArgsTag","inputs":[]},{"type":"error","name":"InvalidMsgValue","inputs":[]},{"type":"error","name":"OnlyOffRamp","inputs":[]},{"type":"error","name":"ReceiverError","inputs":[{"name":"err","type":"bytes","internalType":"bytes"}]},{"type":"error","name":"UnsupportedDestinationChain","inputs":[{"name":"destChainSelector","type":"uint64","internalType":"uint64"}]}],"bytecode":{"object":"0x608060405234801561000f575f80fd5b506115b48061001d5f395ff3fe60806040526004361061008f575f3560e01c8063a48a905811610057578063a48a905814610158578063a8d87a3b14610178578063d6be695a146101b3578063ee18e0d3146101de578063fbca3b7414610206575f80fd5b806320487ded146100935780633cf97983146100c557806369fe0e2d146100f357806383826b2b1461011357806396f4e9f914610145575b5f80fd5b34801561009e575f80fd5b506100b26100ad366004610e73565b61023f565b6040519081526020015b60405180910390f35b3480156100d0575f80fd5b506100e46100df366004610ed3565b610248565b6040516100bc93929190610f8b565b3480156100fe575f80fd5b5061011161010d366004610fb5565b5f55565b005b34801561011e575f80fd5b5061013561012d366004610fcc565b600192915050565b60405190151581526020016100bc565b6100b2610153366004610ffd565b610271565b348015610163575f80fd5b5061013561017236600461103d565b50600190565b348015610183575f80fd5b5061019b61019236600461103d565b5063499602d290565b6040516001600160a01b0390911681526020016100bc565b3480156101be575f80fd5b506101c962030d4081565b60405163ffffffff90911681526020016100bc565b3480156101e9575f80fd5b506101f361138881565b60405161ffff90911681526020016100bc565b348015610211575f80fd5b5061023261022036600461103d565b50604080515f81526020810190915290565b6040516100bc9190611056565b5f545b92915050565b5f606081610260610258886110a2565b87878761057d565b9250925092505b9450945094915050565b5f61027c828061113d565b90506020146102b35761028f828061113d565b60405163370d875f60e01b81526004016102aa9291906111ae565b60405180910390fd5b5f6102be838061113d565b8101906102cb9190610fb5565b90506001600160a01b038111806102e25750600a81105b156102f15761028f838061113d565b5f6102ff856100ad866111c1565b90505f61031260808601606087016111cc565b6001600160a01b0316036103465780341015610341576040516303ed377360e11b815260040160405180910390fd5b61038c565b341561036557604051631841b4e160e01b815260040160405180910390fd5b61038c33308361037b6080890160608a016111cc565b6001600160a01b03169291906106f0565b815f6103a361039e608088018861113d565b610750565b5f015190505f866040516020016103ba9190611275565b60408051808303601f19018152828252805160209182012060a08401835280845267de41ba4fc9d91ad982850152825133818401528351808203840181529084018452928401929092529092505f9190606082019061041b908b018b61113d565b8080601f0160208091040260200160405190810160405280939291908181526020018383808284375f9201919091525050509082525060200161046160408b018b611370565b808060200260200160405190810160405280939291908181526020015f905b828210156104ac5761049d604083028601368190038101906113b5565b81526020019060010190610480565b505050505081525090505f5b6104c560408a018a611370565b90508110156105385761053033866104e060408d018d611370565b858181106104f0576104f06113cf565b905060400201602001358c806040019061050a9190611370565b8681811061051a5761051a6113cf565b61037b92602060409092020190810191506111cc565b6001016104b8565b505f8061054983611388878961057d565b50915091508161056e57806040516302a35ba360e21b81526004016102aa91906113e3565b50919998505050505050505050565b5f60605f8660600151515f148015610593575084155b806105a657506001600160a01b0384163b155b806105c857506105c66001600160a01b0385166385572ffb60e01b6107d8565b155b156105e757505060408051602081019091525f80825260019250610267565b5f6385572ffb60e01b8860405160240161060191906113f5565b60408051601f198184030181529190526020810180516001600160e01b03166001600160e01b03199093169290921790915290506106438186888a60846107f3565b60405192965090945092507fa8b0355886b5b7a28bb97e4f0a24feb172618407402721c4012d8b7c6433102f9061067f90869086908690610f8b565b60405180910390a187516020808a0151835184830120604080519485526001600160401b0390921692840192909252339083015260608201527f9b877de93ea9895756e337442c657f95a34fc68e7eb988bdfa693d5be83016b69060800160405180910390a1509450945094915050565b604080516001600160a01b0385811660248301528416604482015260648082018490528251808303909101815260849091019091526020810180516001600160e01b03166323b872dd60e01b17905261074a9085906108c2565b50505050565b60408051602081019091525f81525f82900361077d5750604080516020810190915262030d408152610242565b6397a657c960e01b61078f83856114ae565b6001600160e01b031916146107b757604051632923fee760e11b815260040160405180910390fd5b6107c482600481866114de565b8101906107d19190611505565b9392505050565b5f6107e283610998565b80156107d157506107d183836109ca565b5f60605f8361ffff166001600160401b0381111561081357610813610be5565b6040519080825280601f01601f19166020018201604052801561083d576020820181803683370190505b509150863b6108555763030ed58f60e21b5f5260045ffd5b5a8581101561086d57632be8ca8b60e21b5f5260045ffd5b859003604081048103871061088b576337c3be2960e01b5f5260045ffd5b505a5f808a5160208c015f8c8cf193505a900390503d848111156108ac5750835b808352805f602085013e50955095509592505050565b5f610916826040518060400160405280602081526020017f5361666545524332303a206c6f772d6c6576656c2063616c6c206661696c6564815250856001600160a01b0316610a509092919063ffffffff16565b80519091501561099357808060200190518101906109349190611544565b6109935760405162461bcd60e51b815260206004820152602a60248201527f5361666545524332303a204552433230206f7065726174696f6e20646964206e6044820152691bdd081cdd58d8d9595960b21b60648201526084016102aa565b505050565b5f6109aa826301ffc9a760e01b6109ca565b801561024257506109c3826001600160e01b03196109ca565b1592915050565b6040516001600160e01b0319821660248201525f90819060440160408051601f19818403018152919052602080820180516001600160e01b03166301ffc9a760e01b17815282519293505f9283928392909183918a617530fa92503d91505f519050828015610a3a575060208210155b8015610a4557505f81115b979650505050505050565b6060610a5e84845f85610a66565b949350505050565b606082471015610ac75760405162461bcd60e51b815260206004820152602660248201527f416464726573733a20696e73756666696369656e742062616c616e636520666f6044820152651c8818d85b1b60d21b60648201526084016102aa565b5f80866001600160a01b03168587604051610ae29190611563565b5f6040518083038185875af1925050503d805f8114610b1c576040519150601f19603f3d011682016040523d82523d5f602084013e610b21565b606091505b5091509150610a458783838760608315610b9b5782515f03610b94576001600160a01b0385163b610b945760405162461bcd60e51b815260206004820152601d60248201527f416464726573733a2063616c6c20746f206e6f6e2d636f6e747261637400000060448201526064016102aa565b5081610a5e565b610a5e8383815115610bb05781518083602001fd5b8060405162461bcd60e51b81526004016102aa91906113e3565b80356001600160401b0381168114610be0575f80fd5b919050565b634e487b7160e01b5f52604160045260245ffd5b60405160a081016001600160401b0381118282101715610c1b57610c1b610be5565b60405290565b604051601f8201601f191681016001600160401b0381118282101715610c4957610c49610be5565b604052919050565b5f82601f830112610c60575f80fd5b81356001600160401b03811115610c7957610c79610be5565b610c8c601f8201601f1916602001610c21565b818152846020838601011115610ca0575f80fd5b816020850160208301375f918101602001919091529392505050565b80356001600160a01b0381168114610be0575f80fd5b5f60408284031215610ce2575f80fd5b604051604081018181106001600160401b0382111715610d0457610d04610be5565b604052905080610d1383610cbc565b8152602083013560208201525092915050565b5f82601f830112610d35575f80fd5b813560206001600160401b03821115610d5057610d50610be5565b610d5f60208360051b01610c21565b8083825260208201915060208460061b870101935086841115610d80575f80fd5b602086015b84811015610da557610d978882610cd2565b835291830191604001610d85565b509695505050505050565b5f60a08284031215610dc0575f80fd5b610dc8610bf9565b905081356001600160401b0380821115610de0575f80fd5b610dec85838601610c51565b83526020840135915080821115610e01575f80fd5b610e0d85838601610c51565b60208401526040840135915080821115610e25575f80fd5b610e3185838601610d26565b6040840152610e4260608501610cbc565b60608401526080840135915080821115610e5a575f80fd5b50610e6784828501610c51565b60808301525092915050565b5f8060408385031215610e84575f80fd5b610e8d83610bca565b915060208301356001600160401b03811115610ea7575f80fd5b610eb385828601610db0565b9150509250929050565b5f60a08284031215610ecd575f80fd5b50919050565b5f805f8060808587031215610ee6575f80fd5b84356001600160401b03811115610efb575f80fd5b610f0787828801610ebd565b945050602085013561ffff81168114610f1e575f80fd5b925060408501359150610f3360608601610cbc565b905092959194509250565b5f5b83811015610f58578181015183820152602001610f40565b50505f910152565b5f8151808452610f77816020860160208601610f3e565b601f01601f19169290920160200192915050565b8315158152606060208201525f610fa56060830185610f60565b9050826040830152949350505050565b5f60208284031215610fc5575f80fd5b5035919050565b5f8060408385031215610fdd575f80fd5b610fe683610bca565b9150610ff460208401610cbc565b90509250929050565b5f806040838503121561100e575f80fd5b61101783610bca565b915060208301356001600160401b03811115611031575f80fd5b610eb385828601610ebd565b5f6020828403121561104d575f80fd5b6107d182610bca565b602080825282518282018190525f9190848201906040850190845b818110156110965783516001600160a01b031683529284019291840191600101611071565b50909695505050505050565b5f60a082360312156110b2575f80fd5b6110ba610bf9565b823581526110ca60208401610bca565b602082015260408301356001600160401b03808211156110e8575f80fd5b6110f436838701610c51565b6040840152606085013591508082111561110c575f80fd5b61111836838701610c51565b60608401526080850135915080821115611130575f80fd5b50610e6736828601610d26565b5f808335601e19843603018112611152575f80fd5b8301803591506001600160401b0382111561116b575f80fd5b60200191503681900382131561117f575f80fd5b9250929050565b81835281816020850137505f828201602090810191909152601f909101601f19169091010190565b602081525f610a5e602083018486611186565b5f6102423683610db0565b5f602082840312156111dc575f80fd5b6107d182610cbc565b5f808335601e198436030181126111fa575f80fd5b83016020810192503590506001600160401b03811115611218575f80fd5b80360382131561117f575f80fd5b8183525f60208085019450825f5b8581101561126a576001600160a01b0361124d83610cbc565b168752818301358388015260409687019690910190600101611234565b509495945050505050565b602081525f61128483846111e5565b60a0602085015261129960c085018284611186565b9150506112a960208501856111e5565b601f19808685030160408701526112c1848385611186565b935060408701359250601e198736030183126112db575f80fd5b6020928701928301923591506001600160401b038211156112fa575f80fd5b8160061b360383131561130b575f80fd5b80868503016060870152611320848385611226565b935061132e60608801610cbc565b6001600160a01b0381166080880152925061134c60808801886111e5565b93509150808685030160a087015250611366838383611186565b9695505050505050565b5f808335601e19843603018112611385575f80fd5b8301803591506001600160401b0382111561139e575f80fd5b6020019150600681901b360382131561117f575f80fd5b5f604082840312156113c5575f80fd5b6107d18383610cd2565b634e487b7160e01b5f52603260045260245ffd5b602081525f6107d16020830184610f60565b5f60208083528351818401528084015160406001600160401b03821660408601526040860151915060a0606086015261143160c0860183610f60565b91506060860151601f198087850301608088015261144f8483610f60565b608089015188820390920160a0890152815180825291860194505f92508501905b808310156114a257845180516001600160a01b0316835286015186830152938501936001929092019190830190611470565b50979650505050505050565b6001600160e01b031981358181169160048510156114d65780818660040360031b1b83161692505b505092915050565b5f80858511156114ec575f80fd5b838611156114f8575f80fd5b5050820193919092039150565b5f60208284031215611515575f80fd5b604051602081018181106001600160401b038211171561153757611537610be5565b6040529135825250919050565b5f60208284031215611554575f80fd5b815180151581146107d1575f80fd5b5f8251611574818460208701610f3e565b919091019291505056fea264697066735822122048c0cccc72d0551de9151623d397dbce8c3aaa61addd79a4e69e244ca2f49ff464736f6c63430008180033","linkReferences":{}},"methodIdentifiers":{"DEFAULT_GAS_LIMIT()":"d6be695a","GAS_FOR_CALL_EXACT_CHECK()":"ee18e0d3","ccipSend(uint64,(bytes,bytes,(address,uint256)[],address,bytes))":"96f4e9f9","getFee(uint64,(bytes,bytes,(address,uint256)[],address,bytes))":"20487ded","getOnRamp(uint64)":"a8d87a3b","getSupportedTokens(uint64)":"fbca3b74","isChainSupported(uint64)":"a48a9058","isOffRamp(uint64,address)":"83826b2b","routeMessage((bytes32,uint64,bytes,bytes,(address,uint256)[]),uint16,uint256,address)":"3cf97983","setFee(uint256)":"69fe0e2d"},"id":97}