{"abi":[{"type":"constructor","inputs":[],"stateMutability":"nonpayable"},{"type":"function","name":"getNetworkDetails","inputs":[{"name":"chainId","type":"uint256","internalType":"uint256"}],"outputs":[{"name":"networkDetails","type":"tuple","internalType":"struct Register.NetworkDetails","components":[{"name":"chainSelector","type":"uint64","internalType":"uint64"},{"name":"routerAddress","type":"address","internalType":"address"},{"name":"linkAddress","type":"address","internalType":"address"},{"name":"wrappedNativeAddress","type":"address","internalType":"address"},{"name":"ccipBnMAddress","type":"address","internalType":"address"},{"name":"ccipLnMAddress","type":"address","internalType":"address"},{"name":"rmnProxyAddress","type":"address","internalType":"address"},{"name":"registryModuleOwnerCustomAddress","type":"address","internalType":"address"},{"name":"tokenAdminRegistryAddress","type":"address","internalType":"address"}]}],"stateMutability":"view"},{"type":"function","name":"setNetworkDetails","inputs":[{"name":"chainId","type":"uint256","internalType":"uint256"},{"name":"networkDetails","type":"tuple","internalType":"struct Register.NetworkDetails","components":[{"name":"chainSelector","type":"uint64","internalType":"uint64"},{"name":"routerAddress","type":"address","internalType":"address"},{"name":"linkAddress","type":"address","internalType":"address"},{"name":"wrappedNativeAddress","type":"address","internalType":"address"},{"name":"ccipBnMAddress","type":"address","internalType":"address"},{"name":"ccipLnMAddress","type":"address","internalType":"address"},{"name":"rmnProxyAddress","type":"address","internalType":"address"},{"name":"registryModuleOwnerCustomAddress","type":"address","internalType":"address"},{"name":"tokenAdminRegistryAddress","type":"address","internalType":"address"}]}],"outputs":[],"stateMutability":"nonpayable"}],"bytecode":{"object":"0x608060405234801561000f575f80fd5b5060405180610120016040528067e1f4423f1bf587cd6001600160401b03168152602001739c32fcb86bf0f4a1a8921a9fe46de3198bb884b26001600160a01b03168152602001730fd9e8d3af1aaee056eb9e802c3a762a667b19046001600160a01b0316815260200173360ad4f9a9a8efe9a8dcb5f461c4cc1047e1dcf96001600160a01b0316815260200173cab0ef91bee323d1a617c0a027ee753afd6997e46001600160a01b03168152602001733d357fb52253e86c8ee0f80f5ffe438fd9503ff26001600160a01b03168152602001737c1e545a40750ee8761282382d51e017bac68cbb6001600160a01b031681526020017384ad5890a63957c960e0f19b0448a038a574936b6001600160a01b03168152602001731e73f6842d7afdd78957ac143d1f315404dd9e5b6001600160a01b03168152505f806201388281526020019081526020015f205f820151815f015f6101000a8154816001600160401b0302191690836001600160401b031602179055506020820151815f0160086101000a8154816001600160a01b0302191690836001600160a01b031602179055506040820151816001015f6101000a8154816001600160a01b0302191690836001600160a01b031602179055506060820151816002015f6101000a8154816001600160a01b0302191690836001600160a01b031602179055506080820151816003015f6101000a8154816001600160a01b0302191690836001600160a01b0316021790555060a0820151816004015f6101000a8154816001600160a01b0302191690836001600160a01b0316021790555060c0820151816005015f6101000a8154816001600160a01b0302191690836001600160a01b0316021790555060e0820151816006015f6101000a8154816001600160a01b0302191690836001600160a01b03160217905550610100820151816007015f6101000a8154816001600160a01b0302191690836001600160a01b0316021790555090505060405180610120016040528067304611b6affba76a6001600160401b03168152602001732a9c5afb0d0e4bab2bcdae109ec4b0c4be15a1656001600160a01b0316815260200173b1d4538b4571d411f07960ef2838ce337fe1e80e6001600160a01b0316815260200173e591bf0a0cf924a0674d7792db046b23cebf5f346001600160a01b0316815260200173a8c0c11bf64af62cdca6f93d3769b88bdd7cb93d6001600160a01b0316815260200173139e99f0ab4084e14e6bb7daca289a91a2d929276001600160a01b03168152602001739527e2d01a3064ef6b50c1da1c0cc523803bcff26001600160a01b0316815260200173e625f0b8b0ac86946035a7729aba124c8a64cf696001600160a01b03168152602001738126be56454b628a88c17849b9ed99dd5a11bd2f6001600160a01b03168152505f8062066eee81526020019081526020015f205f820151815f015f6101000a8154816001600160401b0302191690836001600160401b031602179055506020820151815f0160086101000a8154816001600160a01b0302191690836001600160a01b031602179055506040820151816001015f6101000a8154816001600160a01b0302191690836001600160a01b031602179055506060820151816002015f6101000a8154816001600160a01b0302191690836001600160a01b031602179055506080820151816003015f6101000a8154816001600160a01b0302191690836001600160a01b0316021790555060a0820151816004015f6101000a8154816001600160a01b0302191690836001600160a01b0316021790555060c0820151816005015f6101000a8154816001600160a01b0302191690836001600160a01b0316021790555060e0820151816006015f6101000a8154816001600160a01b0302191690836001600160a01b03160217905550610100820151816007015f6101000a8154816001600160a01b0302191690836001600160a01b03160217905550905050604051806101200160405280678f90b8876dee65386001600160401b0316815260200173d3b06cebf099ce7da4accf578aaebfdbd6e88a936001600160a01b0316815260200173e4ab69c077896252fafbd49efd26b5d171a324106001600160a01b031681526020017342000000000000000000000000000000000000066001600160a01b031681526020017388a2d74f47a237a62e7a51cdda67270ce381555e6001600160a01b0316815260200173a98fa8a008371b9408195e52734b1768c0d1cb5c6001600160a01b031681526020017399360767a4705f68cccb9533195b761648d6d8076001600160a01b03168152602001738a55c61227f26a3e2f217842ecf20b52007baabe6001600160a01b0316815260200173736d0bbb318c1b27ff686cd19804094e66250e176001600160a01b03168152505f8062014a3481526020019081526020015f205f820151815f015f6101000a8154816001600160401b0302191690836001600160401b031602179055506020820151815f0160086101000a8154816001600160a01b0302191690836001600160a01b031602179055506040820151816001015f6101000a8154816001600160a01b0302191690836001600160a01b031602179055506060820151816002015f6101000a8154816001600160a01b0302191690836001600160a01b031602179055506080820151816003015f6101000a8154816001600160a01b0302191690836001600160a01b0316021790555060a0820151816004015f6101000a8154816001600160a01b0302191690836001600160a01b0316021790555060c0820151816005015f6101000a8154816001600160a01b0302191690836001600160a01b0316021790555060e0820151816006015f6101000a8154816001600160a01b0302191690836001600160a01b03160217905550610100820151816007015f6101000a8154816001600160a01b0302191690836001600160a01b03160217905550905050604051806101200160405280671c22a382aebbc8796001600160401b0316815260200173fb2f2a207dc428da81fbaffdde121761f8be11946001600160a01b031681526020017302c359ebf98fc8bf793f970f9b8302bb373bdf326001600160a01b031681526020017342000000000000000000000000000000000000236001600160a01b03168152602001738d122c3e8ce9c8b62b87d3551bdfd8c259bb07716001600160a01b031681526020017335347a2fc1f2a4c5eae03339040d0b83b09e6fda6001600160a01b03168152602001731cb6afb6f411f0469c3c0d5d46f6e8f7fd3eade06001600160a01b0316815260200173912f59e92467c54bbab49ed3a5d431504afba30c6001600160a01b031681526020017398f1703b9c02f9ab8ba4cc209ee8d7b188bb43a86001600160a01b03168152505f80630a0c71fd81526020019081526020015f205f820151815f015f6101000a8154816001600160401b0302191690836001600160401b031602179055506020820151815f0160086101000a8154816001600160a01b0302191690836001600160a01b031602179055506040820151816001015f6101000a8154816001600160a01b0302191690836001600160a01b031602179055506060820151816002015f6101000a8154816001600160a01b0302191690836001600160a01b031602179055506080820151816003015f6101000a8154816001600160a01b0302191690836001600160a01b0316021790555060a0820151816004015f6101000a8154816001600160a01b0302191690836001600160a01b0316021790555060c0820151816005015f6101000a8154816001600160a01b0302191690836001600160a01b0316021790555060e0820151816006015f6101000a8154816001600160a01b0302191690836001600160a01b03160217905550610100820151816007015f6101000a8154816001600160a01b0302191690836001600160a01b0316021790555090505060405180610120016040528067b8159170038f96fb6001600160401b0316815260200173e1053ae1857476f36a3c62580ff9b016e8ee8f6f6001600160a01b031681526020017384b9b910527ad5c03a9ca831909e21e236ea7b066001600160a01b0316815260200173ae13d989dac2f0debff460ac112a837c89baa7cd6001600160a01b0316815260200173bfa2acd33ed6eec0ed3cc06bf1ac38d22b36b9e96001600160a01b031681526020017379a4fc27f69323660f5bfc12dee21c3cc14f59016001600160a01b0316815260200173a8c0c11bf64af62cdca6f93d3769b88bdd7cb93d6001600160a01b0316815260200173763685240370758c5ac6c5f7c22ab36684c0570e6001600160a01b0316815260200173f8f2a4466039ac8adf9944fd67dbb3bb13888f2b6001600160a01b03168152505f80606181526020019081526020015f205f820151815f015f6101000a8154816001600160401b0302191690836001600160401b031602179055506020820151815f0160086101000a8154816001600160a01b0302191690836001600160a01b031602179055506040820151816001015f6101000a8154816001600160a01b0302191690836001600160a01b031602179055506060820151816002015f6101000a8154816001600160a01b0302191690836001600160a01b031602179055506080820151816003015f6101000a8154816001600160a01b0302191690836001600160a01b0316021790555060a0820151816004015f6101000a8154816001600160a01b0302191690836001600160a01b0316021790555060c0820151816005015f6101000a8154816001600160a01b0302191690836001600160a01b0316021790555060e0820151816006015f6101000a8154816001600160a01b0302191690836001600160a01b03160217905550610100820151816007015f6101000a8154816001600160a01b0302191690836001600160a01b0316021790555090505060405180610120016040528067314b66b9a0a5001a6001600160401b0316815260200173b00e95b773528e2ea724db06b75113f239d15dca6001600160a01b031681526020017332e08557b14fad8908025619797221281d4390716001600160a01b031681526020017399604d0e2efe7abfb58bde565b5330bb46ab3dca6001600160a01b03168152602001737e503dd1daf90117a1b79953321043d9e6815c726001600160a01b03168152602001737f4e739d40e58bbd59dad388171d18e37b26326f6001600160a01b03168152602001737a394c616a7347dc91c40159929e1c9a435cb83a6001600160a01b0316815260200173a8c380ecd336401ee896df33b93f1c76b749c9026001600160a01b03168152602001735585040bed214fdc60c9ce8c3e8a9c52ce19f4ea6001600160a01b03168152505f8061aef381526020019081526020015f205f820151815f015f6101000a8154816001600160401b0302191690836001600160401b031602179055506020820151815f0160086101000a8154816001600160a01b0302191690836001600160a01b031602179055506040820151816001015f6101000a8154816001600160a01b0302191690836001600160a01b031602179055506060820151816002015f6101000a8154816001600160a01b0302191690836001600160a01b031602179055506080820151816003015f6101000a8154816001600160a01b0302191690836001600160a01b0316021790555060a0820151816004015f6101000a8154816001600160a01b0302191690836001600160a01b0316021790555060c0820151816005015f6101000a8154816001600160a01b0302191690836001600160a01b0316021790555060e0820151816006015f6101000a8154816001600160a01b0302191690836001600160a01b03160217905550610100820151816007015f6101000a8154816001600160a01b0302191690836001600160a01b0316021790555090505060405180610120016040528067ccf0a31a221f3c9b6001600160401b0316815260200173f694e193200268f9a4868e4aa017a0118c9a81776001600160a01b03168152602001730b9d5d9136855f6fec3c0993fee6e9ce8a2978466001600160a01b0316815260200173d00ae08403b9bbb9124bb305c09058e32c39a48c6001600160a01b0316815260200173d21341536c5cf5eb1bcb58f6723ce26e8d8e90e46001600160a01b031681526020017370f5c5c40b873ea597776da2c21929a8282a3b356001600160a01b0316815260200173ac8cfc3762a979628334a0e4c1026244498e821b6001600160a01b031681526020017397300785af1ede1343db6d90706a35cf14aa3d816001600160a01b0316815260200173a92053a4a3922084d992fd2835bdba4cac6877e66001600160a01b03168152505f8061a86981526020019081526020015f205f820151815f015f6101000a8154816001600160401b0302191690836001600160401b031602179055506020820151815f0160086101000a8154816001600160a01b0302191690836001600160a01b031602179055506040820151816001015f6101000a8154816001600160a01b0302191690836001600160a01b031602179055506060820151816002015f6101000a8154816001600160a01b0302191690836001600160a01b031602179055506080820151816003015f6101000a8154816001600160a01b0302191690836001600160a01b0316021790555060a0820151816004015f6101000a8154816001600160a01b0302191690836001600160a01b0316021790555060c0820151816005015f6101000a8154816001600160a01b0302191690836001600160a01b0316021790555060e0820151816006015f6101000a8154816001600160a01b0302191690836001600160a01b03160217905550610100820151816007015f6101000a8154816001600160a01b0302191690836001600160a01b03160217905550905050604051806101200160405280677b1e3d29ba0098b36001600160401b031681526020017319b1bac554111517831acadc0fd119d23bb143916001600160a01b0316815260200173dca67fd8324990792c0bfae95903b8a64097754f6001600160a01b031681526020017318c8a7ec7897177e4529065a7e7b0878358b3bff6001600160a01b0316815260200173a189971a2c5aca0dfc5ee7a2c44a2ae27b3cf3896001600160a01b031681526020017330decd269277b8094c00b0bacc3acaf3ff4da7fb6001600160a01b03168152602001731be106fd3b104275b1e56bcaca554b8cbc5a25776001600160a01b031681526020017302a254c97ca097fb09792bfe331e3fbe61f6af6a6001600160a01b031681526020017375ada0256bea7956824b190419b52ba6660f9cf96001600160a01b03168152505f806127d881526020019081526020015f205f820151815f015f6101000a8154816001600160401b0302191690836001600160401b031602179055506020820151815f0160086101000a8154816001600160a01b0302191690836001600160a01b031602179055506040820151816001015f6101000a8154816001600160a01b0302191690836001600160a01b031602179055506060820151816002015f6101000a8154816001600160a01b0302191690836001600160a01b031602179055506080820151816003015f6101000a8154816001600160a01b0302191690836001600160a01b0316021790555060a0820151816004015f6101000a8154816001600160a01b0302191690836001600160a01b0316021790555060c0820151816005015f6101000a8154816001600160a01b0302191690836001600160a01b0316021790555060e0820151816006015f6101000a8154816001600160a01b0302191690836001600160a01b03160217905550610100820151816007015f6101000a8154816001600160a01b0302191690836001600160a01b031602179055509050506040518061012001604052806753227352338ed8a66001600160401b0316815260200173a8c0c11bf64af62cdca6f93d3769b88bdd7cb93d6001600160a01b0316815260200173a75cca5b404ec6f4bb6ec4853d177fe7057085c86001600160a01b031681526020017342000000000000000000000000000000000000016001600160a01b03168152602001736ac3e353d1ddda24d5a5416024d6e436b8817a4e6001600160a01b0316815260200173835fcbb6770e1246cfcf52f83cdcec3177d0bb6b6001600160a01b0316815260200173a930c1e0ff1e1005e8ef569aa81e6eebf466b1c36001600160a01b0316815260200173683995a22b3654556e9eea29c0b9df973be6d5496001600160a01b0316815260200173ae669d8217c00b02fb7a7d9902c897745f4f4c836001600160a01b03168152505f8061093681526020019081526020015f205f820151815f015f6101000a8154816001600160401b0302191690836001600160401b031602179055506020820151815f0160086101000a8154816001600160a01b0302191690836001600160a01b031602179055506040820151816001015f6101000a8154816001600160a01b0302191690836001600160a01b031602179055506060820151816002015f6101000a8154816001600160a01b0302191690836001600160a01b031602179055506080820151816003015f6101000a8154816001600160a01b0302191690836001600160a01b0316021790555060a0820151816004015f6101000a8154816001600160a01b0302191690836001600160a01b0316021790555060c0820151816005015f6101000a8154816001600160a01b0302191690836001600160a01b0316021790555060e0820151816006015f6101000a8154816001600160a01b0302191690836001600160a01b03160217905550610100820151816007015f6101000a8154816001600160a01b0302191690836001600160a01b0316021790555090505060405180610120016040528067346d85e6634cf8216001600160401b0316815260200173acdaba07ecad81dc634458b98673931dd9d3bc146001600160a01b03168152602001739870d6a0e05f867eaae696e106741843f7fd116d6001600160a01b03168152602001735c48e07062ac4e2cf4b9a768a711aef18e8fbda06001600160a01b031681526020017320aa09aab761e2e600d65c6929a9fd1e59821d3f6001600160a01b0316815260200173705b364cade0e515577f2646529e3a417473a1556001600160a01b0316815260200173fd66ebe7335e91ae6f4cccccdddf262ab5e35c716001600160a01b0316815260200173a8942ff01de753bda1d39aca8774f0872eee50806001600160a01b031681526020017331668c3e8f96415286e9e03592ad97e50e565f526001600160a01b03168152505f8061e9fe81526020019081526020015f205f820151815f015f6101000a8154816001600160401b0302191690836001600160401b031602179055506020820151815f0160086101000a8154816001600160a01b0302191690836001600160a01b031602179055506040820151816001015f6101000a8154816001600160a01b0302191690836001600160a01b031602179055506060820151816002015f6101000a8154816001600160a01b0302191690836001600160a01b031602179055506080820151816003015f6101000a8154816001600160a01b0302191690836001600160a01b0316021790555060a0820151816004015f6101000a8154816001600160a01b0302191690836001600160a01b0316021790555060c0820151816005015f6101000a8154816001600160a01b0302191690836001600160a01b0316021790555060e0820151816006015f6101000a8154816001600160a01b0302191690836001600160a01b03160217905550610100820151816007015f6101000a8154816001600160a01b0302191690836001600160a01b03160217905550905050604051806101200160405280670b83117d05df77ed6001600160401b0316815260200173c49ec0eb4beb48b8da4ccec51aa9a5bd0d0a4c436001600160a01b0316815260200173925a4bfe64ae2bfac8a02b35f78e60c29743755d6001600160a01b031681526020017342000000000000000000000000000000000000066001600160a01b0316815260200173b9d4e1141e67ecfedc8a8139b5229b7ff2bf16f56001600160a01b031681526020017386f9eed8ead1534d87d23fbab247d764fc725d496001600160a01b0316815260200173cbfd5e55619b4ee3e6e7fe3ceb0e78fdf7d82dfc6001600160a01b03168152602001734f4fe77a9dbede8c4ebfe51932c2e08a37c890ed6001600160a01b0316815260200173c89d4ff0cb206677a7555e52500879bfab73cc686001600160a01b03168152505f8061039781526020019081526020015f205f820151815f015f6101000a8154816001600160401b0302191690836001600160401b031602179055506020820151815f0160086101000a8154816001600160a01b0302191690836001600160a01b031602179055506040820151816001015f6101000a8154816001600160a01b0302191690836001600160a01b031602179055506060820151816002015f6101000a8154816001600160a01b0302191690836001600160a01b031602179055506080820151816003015f6101000a8154816001600160a01b0302191690836001600160a01b0316021790555060a0820151816004015f6101000a8154816001600160a01b0302191690836001600160a01b0316021790555060c0820151816005015f6101000a8154816001600160a01b0302191690836001600160a01b0316021790555060e0820151816006015f6101000a8154816001600160a01b0302191690836001600160a01b03160217905550610100820151816007015f6101000a8154816001600160a01b0302191690836001600160a01b031602179055509050506040518061012001604052806748810ec3e431431f6001600160401b0316815260200173114a20a10b43d4115e5aeef7345a1a71d2a60c576001600160a01b0316815260200173e4ab69c077896252fafbd49efd26b5d171a324106001600160a01b031681526020017342000000000000000000000000000000000000066001600160a01b03168152602001738af4204e30565df93352fe8e1de78925f6664da76001600160a01b0316815260200173044a6b4b561af69d2319a2f4be5ec327a6975d0a6001600160a01b0316815260200173b40a3109075965cc09e93719e33e748abf680dae6001600160a01b031681526020017349c4ba01dc6f5090f9df43ab8f79449db91a0cbb6001600160a01b03168152602001731d702b1fa12f347f0921c722f9d9166f00deb67a6001600160a01b03168152505f8062aa37dc81526020019081526020015f205f820151815f015f6101000a8154816001600160401b0302191690836001600160401b031602179055506020820151815f0160086101000a8154816001600160a01b0302191690836001600160a01b031602179055506040820151816001015f6101000a8154816001600160a01b0302191690836001600160a01b031602179055506060820151816002015f6101000a8154816001600160a01b0302191690836001600160a01b031602179055506080820151816003015f6101000a8154816001600160a01b0302191690836001600160a01b0316021790555060a0820151816004015f6101000a8154816001600160a01b0302191690836001600160a01b0316021790555060c0820151816005015f6101000a8154816001600160a01b0302191690836001600160a01b0316021790555060e0820151816006015f6101000a8154816001600160a01b0302191690836001600160a01b03160217905550610100820151816007015f6101000a8154816001600160a01b0302191690836001600160a01b0316021790555090505060405180610120016040528067de41ba4fc9d91ad96001600160401b03168152602001730bf3de8c5d3e8a2b34d2beeb17abfcebaf363a596001600160a01b0316815260200173779877a7b0d9e8603169ddbd7836e478b46247896001600160a01b0316815260200173097d90c9d3e0b50ca60e1ae45f6a81010f9fb5346001600160a01b0316815260200173fd57b4ddbf88a4e07ff4e34c487b99af2fe82a056001600160a01b0316815260200173466d489b6d36e7e3b824ef491c225f5830e81cc16001600160a01b0316815260200173ba3f6251de62ded61ff98590cb2fdf6871fbb9916001600160a01b031681526020017362e731218d0d47305aba2be3751e7ee9e55207906001600160a01b031681526020017395f29fee11c5c55d26cccf1db6772de953b37b826001600160a01b03168152505f8062aa36a781526020019081526020015f205f820151815f015f6101000a8154816001600160401b0302191690836001600160401b031602179055506020820151815f0160086101000a8154816001600160a01b0302191690836001600160a01b031602179055506040820151816001015f6101000a8154816001600160a01b0302191690836001600160a01b031602179055506060820151816002015f6101000a8154816001600160a01b0302191690836001600160a01b031602179055506080820151816003015f6101000a8154816001600160a01b0302191690836001600160a01b0316021790555060a0820151816004015f6101000a8154816001600160a01b0302191690836001600160a01b0316021790555060c0820151816005015f6101000a8154816001600160a01b0302191690836001600160a01b0316021790555060e0820151816006015f6101000a8154816001600160a01b0302191690836001600160a01b03160217905550610100820151816007015f6101000a8154816001600160a01b0302191690836001600160a01b031602179055509050506040518061012001604052806780d9a45f8eaddf5b6001600160401b0316815260200173a8c0c11bf64af62cdca6f93d3769b88bdd7cb93d6001600160a01b03168152602001733580c7a817ccd41f7e02143bfa411d4eeae780936001600160a01b0316815260200173be3686643c05f00ec46e73da594c78098f7a9ae76001600160a01b0316815260200173f4e4057fbbc86915f4b2d63eeffe641c03294ffc6001600160a01b0316815260200173cb342ae3d65e3fedf8f912b0432e2b8f88514d5d6001600160a01b0316815260200173a930c1e0ff1e1005e8ef569aa81e6eebf466b1c36001600160a01b03168152602001737050bd352a5aacf774cf883f9345a0c10bdf3cd26001600160a01b0316815260200173ecf484bfcc51f24fcb31056c262a021baf688d9b6001600160a01b03168152505f8061045881526020019081526020015f205f820151815f015f6101000a8154816001600160401b0302191690836001600160401b031602179055506020820151815f0160086101000a8154816001600160a01b0302191690836001600160a01b031602179055506040820151816001015f6101000a8154816001600160a01b0302191690836001600160a01b031602179055506060820151816002015f6101000a8154816001600160a01b0302191690836001600160a01b031602179055506080820151816003015f6101000a8154816001600160a01b0302191690836001600160a01b0316021790555060a0820151816004015f6101000a8154816001600160a01b0302191690836001600160a01b0316021790555060c0820151816005015f6101000a8154816001600160a01b0302191690836001600160a01b0316021790555060e0820151816006015f6101000a8154816001600160a01b0302191690836001600160a01b03160217905550610100820151816007015f6101000a8154816001600160a01b0302191690836001600160a01b03160217905550905050604051806101200160405280675fbc02272fbf20b76001600160401b0316815260200173a1fda8aa9a8c4b945c45ad30647b01f07d7a0b166001600160a01b031681526020017323a1afd896c8c8876af46adc38521f4432658d1e6001600160a01b03168152602001734317b2ecd41851173175005783322d29e9baee9e6001600160a01b0316815260200173ff6d0c1518a8104611f482eb2801caf4f13c9deb6001600160a01b0316815260200173bf8ea19505ab7eb266aed435b11bd56321bfb5c56001600160a01b03168152602001733da20fd3d8a8f8c1f1a5fd03648147143608c4676001600160a01b03168152602001733139687ee9938422f57933c3cdb3e21ee43c4d0f6001600160a01b0316815260200173c7777f12258014866c677bdb679d0b007405b7df6001600160a01b03168152505f8061012c81526020019081526020015f205f820151815f015f6101000a8154816001600160401b0302191690836001600160401b031602179055506020820151815f0160086101000a8154816001600160a01b0302191690836001600160a01b031602179055506040820151816001015f6101000a8154816001600160a01b0302191690836001600160a01b031602179055506060820151816002015f6101000a8154816001600160a01b0302191690836001600160a01b031602179055506080820151816003015f6101000a8154816001600160a01b0302191690836001600160a01b0316021790555060a0820151816004015f6101000a8154816001600160a01b0302191690836001600160a01b0316021790555060c0820151816005015f6101000a8154816001600160a01b0302191690836001600160a01b0316021790555060e0820151816006015f6101000a8154816001600160a01b0302191690836001600160a01b03160217905550610100820151816007015f6101000a8154816001600160a01b0302191690836001600160a01b031602179055509050506104a880612ada5f395ff3fe608060405234801561000f575f80fd5b5060043610610034575f3560e01c80630120615c14610038578063bb610e011461013d575b5f80fd5b61012761004636600461023c565b60408051610120810182525f80825260208201819052918101829052606081018290526080810182905260a0810182905260c0810182905260e08101829052610100810191909152505f9081526020818152604091829020825161012081018452815467ffffffffffffffff811682526001600160a01b03600160401b90910481169382019390935260018201548316938101939093526002810154821660608401526003810154821660808401526004810154821660a08401526005810154821660c08401526006810154821660e0840152600701541661010082015290565b6040516101349190610253565b60405180910390f35b61023a61014b36600461039c565b5f9182526020828152604092839020825181549284015167ffffffffffffffff9091166001600160e01b031990931692909217600160401b6001600160a01b0393841602178155928201516001840180546001600160a01b0319908116928416929092179055606083015160028501805483169184169190911790556080830151600385018054831691841691909117905560a0830151600485018054831691841691909117905560c0830151600585018054831691841691909117905560e0830151600685018054831691841691909117905561010090920151600790930180549092169216919091179055565b005b5f6020828403121561024c575f80fd5b5035919050565b815167ffffffffffffffff1681526020808301516001600160a01b031690820152604080830151610120830191610294908401826001600160a01b03169052565b5060608301516102af60608401826001600160a01b03169052565b5060808301516102ca60808401826001600160a01b03169052565b5060a08301516102e560a08401826001600160a01b03169052565b5060c083015161030060c08401826001600160a01b03169052565b5060e083015161031b60e08401826001600160a01b03169052565b50610100928301516001600160a01b0316919092015290565b604051610120810167ffffffffffffffff8111828210171561036457634e487b7160e01b5f52604160045260245ffd5b60405290565b803567ffffffffffffffff81168114610381575f80fd5b919050565b80356001600160a01b0381168114610381575f80fd5b5f808284036101408112156103af575f80fd5b8335925061012080601f19830112156103c6575f80fd5b6103ce610334565b91506103dc6020860161036a565b82526103ea60408601610386565b60208301526103fb60608601610386565b604083015261040c60808601610386565b606083015261041d60a08601610386565b608083015261042e60c08601610386565b60a083015261043f60e08601610386565b60c0830152610100610452818701610386565b60e0840152610462828701610386565b908301525091949193509091505056fea2646970667358221220df391c07eb7a997911ddf8496983a6f65079da2ee90deed09b597dc4449651f764736f6c63430008180033","linkReferences":{}},"methodIdentifiers":{"getNetworkDetails(uint256)":"0120615c","setNetworkDetails(uint256,(uint64,address,address,address,address,address,address,address,address))":"bb610e01"},"id":101}