{"abi":[{"type":"constructor","inputs":[{"name":"_admin","type":"address","internalType":"address"},{"name":"_borrowerSpoke","type":"address","internalType":"address"},{"name":"_ctfExchange","type":"address","internalType":"address"},{"name":"_usdc","type":"address","internalType":"address"}],"stateMutability":"nonpayable"},{"type":"function","name":"DEFAULT_ADMIN_ROLE","inputs":[],"outputs":[{"name":"","type":"bytes32","internalType":"bytes32"}],"stateMutability":"view"},{"type":"function","name":"ORACLE_ROLE","inputs":[],"outputs":[{"name":"","type":"bytes32","internalType":"bytes32"}],"stateMutability":"view"},{"type":"function","name":"borrowerSpoke","inputs":[],"outputs":[{"name":"","type":"address","internalType":"address"}],"stateMutability":"view"},{"type":"function","name":"ctfExchange","inputs":[],"outputs":[{"name":"","type":"address","internalType":"address"}],"stateMutability":"view"},{"type":"function","name":"executeLiquidateSwap","inputs":[{"name":"vaultId","type":"uint256","internalType":"uint256"},{"name":"tokenContract","type":"address","internalType":"address"},{"name":"tokenId","type":"uint256","internalType":"uint256"},{"name":"amount","type":"uint256","internalType":"uint256"},{"name":"orderPayload","type":"bytes","internalType":"bytes"},{"name":"signature","type":"bytes","internalType":"bytes"}],"outputs":[],"stateMutability":"nonpayable"},{"type":"function","name":"getRoleAdmin","inputs":[{"name":"role","type":"bytes32","internalType":"bytes32"}],"outputs":[{"name":"","type":"bytes32","internalType":"bytes32"}],"stateMutability":"view"},{"type":"function","name":"grantRole","inputs":[{"name":"role","type":"bytes32","internalType":"bytes32"},{"name":"account","type":"address","internalType":"address"}],"outputs":[],"stateMutability":"nonpayable"},{"type":"function","name":"hasRole","inputs":[{"name":"role","type":"bytes32","internalType":"bytes32"},{"name":"account","type":"address","internalType":"address"}],"outputs":[{"name":"","type":"bool","internalType":"bool"}],"stateMutability":"view"},{"type":"function","name":"onERC1155BatchReceived","inputs":[{"name":"","type":"address","internalType":"address"},{"name":"","type":"address","internalType":"address"},{"name":"","type":"uint256[]","internalType":"uint256[]"},{"name":"","type":"uint256[]","internalType":"uint256[]"},{"name":"","type":"bytes","internalType":"bytes"}],"outputs":[{"name":"","type":"bytes4","internalType":"bytes4"}],"stateMutability":"pure"},{"type":"function","name":"onERC1155Received","inputs":[{"name":"","type":"address","internalType":"address"},{"name":"","type":"address","internalType":"address"},{"name":"","type":"uint256","internalType":"uint256"},{"name":"","type":"uint256","internalType":"uint256"},{"name":"","type":"bytes","internalType":"bytes"}],"outputs":[{"name":"","type":"bytes4","internalType":"bytes4"}],"stateMutability":"pure"},{"type":"function","name":"renounceRole","inputs":[{"name":"role","type":"bytes32","internalType":"bytes32"},{"name":"callerConfirmation","type":"address","internalType":"address"}],"outputs":[],"stateMutability":"nonpayable"},{"type":"function","name":"revokeRole","inputs":[{"name":"role","type":"bytes32","internalType":"bytes32"},{"name":"account","type":"address","internalType":"address"}],"outputs":[],"stateMutability":"nonpayable"},{"type":"function","name":"setCtfExchange","inputs":[{"name":"_ctfExchange","type":"address","internalType":"address"}],"outputs":[],"stateMutability":"nonpayable"},{"type":"function","name":"supportsInterface","inputs":[{"name":"interfaceId","type":"bytes4","internalType":"bytes4"}],"outputs":[{"name":"","type":"bool","internalType":"bool"}],"stateMutability":"view"},{"type":"function","name":"usdc","inputs":[],"outputs":[{"name":"","type":"address","internalType":"contract IERC20"}],"stateMutability":"view"},{"type":"event","name":"CollateralDumped","inputs":[{"name":"vaultId","type":"uint256","indexed":true,"internalType":"uint256"},{"name":"collateralSold","type":"uint256","indexed":false,"internalType":"uint256"},{"name":"usdcReceived","type":"uint256","indexed":false,"internalType":"uint256"}],"anonymous":false},{"type":"event","name":"RoleAdminChanged","inputs":[{"name":"role","type":"bytes32","indexed":true,"internalType":"bytes32"},{"name":"previousAdminRole","type":"bytes32","indexed":true,"internalType":"bytes32"},{"name":"newAdminRole","type":"bytes32","indexed":true,"internalType":"bytes32"}],"anonymous":false},{"type":"event","name":"RoleGranted","inputs":[{"name":"role","type":"bytes32","indexed":true,"internalType":"bytes32"},{"name":"account","type":"address","indexed":true,"internalType":"address"},{"name":"sender","type":"address","indexed":true,"internalType":"address"}],"anonymous":false},{"type":"event","name":"RoleRevoked","inputs":[{"name":"role","type":"bytes32","indexed":true,"internalType":"bytes32"},{"name":"account","type":"address","indexed":true,"internalType":"address"},{"name":"sender","type":"address","indexed":true,"internalType":"address"}],"anonymous":false},{"type":"error","name":"AccessControlBadConfirmation","inputs":[]},{"type":"error","name":"AccessControlUnauthorizedAccount","inputs":[{"name":"account","type":"address","internalType":"address"},{"name":"neededRole","type":"bytes32","internalType":"bytes32"}]},{"type":"error","name":"ReentrancyGuardReentrantCall","inputs":[]},{"type":"error","name":"SafeERC20FailedOperation","inputs":[{"name":"token","type":"address","internalType":"address"}]}],"bytecode":{"object":"0x608060405234801562000010575f80fd5b5060405162000f5138038062000f51833981016040819052620000339162000170565b60017f9b779b17422d0df92223018b32b4d1fa46e071723d6817e2486d003becc55f0055620000635f85620000a8565b50600180546001600160a01b039485166001600160a01b03199182161790915560028054938516938216939093179092556003805491909316911617905550620001ca565b5f828152602081815260408083206001600160a01b038516845290915281205460ff166200014b575f838152602081815260408083206001600160a01b03861684529091529020805460ff19166001179055620001023390565b6001600160a01b0316826001600160a01b0316847f2f8788117e7eff1d82e926ec794901d17c78024a50270940304540a733656f0d60405160405180910390a45060016200014e565b505f5b92915050565b80516001600160a01b03811681146200016b575f80fd5b919050565b5f805f806080858703121562000184575f80fd5b6200018f8562000154565b93506200019f6020860162000154565b9250620001af6040860162000154565b9150620001bf6060860162000154565b905092959194509250565b610d7980620001d85f395ff3fe608060405234801561000f575f80fd5b50600436106100f0575f3560e01c80638aac465f11610093578063d2afa78711610063578063d2afa78714610241578063d3f9615a14610254578063d547741f14610267578063f23a6e611461027a575f80fd5b80638aac465f146101d957806391d14854146101ec578063a217fddf146101ff578063bc197c8114610206575f80fd5b80632f2ff15d116100ce5780632f2ff15d1461017357806336568abe146101885780633e413bee1461019b5780634b8295e7146101c6575f80fd5b806301ffc9a7146100f457806307e2cea51461011c578063248a9ca314610151575b5f80fd5b6101076101023660046109e9565b61029a565b60405190151581526020015b60405180910390f35b6101437f68e79a7bf1e0bc45d0a330c573bc367f9cf464fd326078812f301165fbda4ef181565b604051908152602001610113565b61014361015f366004610a17565b5f9081526020819052604090206001015490565b610186610181366004610a49565b6102d0565b005b610186610196366004610a49565b6102fa565b6003546101ae906001600160a01b031681565b6040516001600160a01b039091168152602001610113565b6002546101ae906001600160a01b031681565b6101866101e7366004610ab8565b610332565b6101076101fa366004610a49565b6106e0565b6101435f81565b610228610214366004610b8f565b63bc197c8160e01b98975050505050505050565b6040516001600160e01b03199091168152602001610113565b61018661024f366004610c21565b610708565b6001546101ae906001600160a01b031681565b610186610275366004610a49565b610735565b610228610288366004610c3a565b63f23a6e6160e01b9695505050505050565b5f6001600160e01b03198216637965db0b60e01b14806102ca57506301ffc9a760e01b6001600160e01b03198316145b92915050565b5f828152602081905260409020600101546102ea81610759565b6102f48383610766565b50505050565b6001600160a01b03811633146103235760405163334bd91960e11b815260040160405180910390fd5b61032d82826107f5565b505050565b7f68e79a7bf1e0bc45d0a330c573bc367f9cf464fd326078812f301165fbda4ef161035c81610759565b61036461085e565b600154604051637921219560e11b81526001600160a01b039182166004820152306024820152604481018990526064810188905260a060848201525f60a4820152899182169063f242432a9060c4015f604051808303815f87803b1580156103ca575f80fd5b505af11580156103dc573d5f803e3d5ffd5b505060025460405163a22cb46560e01b81526001600160a01b03918216600482015260016024820152908416925063a22cb46591506044015f604051808303815f87803b15801561042b575f80fd5b505af115801561043d573d5f803e3d5ffd5b50506003546040516370a0823160e01b81523060048201525f93506001600160a01b0390911691506370a0823190602401602060405180830381865afa158015610489573d5f803e3d5ffd5b505050506040513d601f19601f820116820180604052508101906104ad9190610cad565b600254604051630ac9ac1f60e01b81529192506001600160a01b031690630ac9ac1f906104e6908a908a908d908b908b90600401610cec565b5f604051808303815f87803b1580156104fd575f80fd5b505af115801561050f573d5f803e3d5ffd5b50506003546040516370a0823160e01b81523060048201525f93508492506001600160a01b03909116906370a0823190602401602060405180830381865afa15801561055d573d5f803e3d5ffd5b505050506040513d601f19601f820116820180604052508101906105819190610cad565b61058b9190610d24565b90505f81116105f15760405162461bcd60e51b815260206004820152602760248201527f4e6f2055534443207265636f76657265642066726f6d204354462045786368616044820152660676520737761760cc1b60648201526084015b60405180910390fd5b60015460035461060e916001600160a01b0391821691168361088c565b600154604051630f8adc6560e21b8152600481018e9052602481018390526001600160a01b0390911690633e2b7194906044015f604051808303815f87803b158015610658575f80fd5b505af115801561066a573d5f803e3d5ffd5b5050604080518c8152602081018590528f93507f1afc1fa6b961f1205a82108cfb534e88ebea4a0334d433200969750c6d7d5a7592500160405180910390a25050506106d560017f9b779b17422d0df92223018b32b4d1fa46e071723d6817e2486d003becc55f0055565b505050505050505050565b5f918252602082815260408084206001600160a01b0393909316845291905290205460ff1690565b5f61071281610759565b50600280546001600160a01b0319166001600160a01b0392909216919091179055565b5f8281526020819052604090206001015461074f81610759565b6102f483836107f5565b6107638133610906565b50565b5f61077183836106e0565b6107ee575f838152602081815260408083206001600160a01b03861684529091529020805460ff191660011790556107a63390565b6001600160a01b0316826001600160a01b0316847f2f8788117e7eff1d82e926ec794901d17c78024a50270940304540a733656f0d60405160405180910390a45060016102ca565b505f6102ca565b5f61080083836106e0565b156107ee575f838152602081815260408083206001600160a01b0386168085529252808320805460ff1916905551339286917ff6391f5c32d9c69d2a47ea670b442974b53935d1edc7fd64eb21e047a839171b9190a45060016102ca565b610866610943565b60027f9b779b17422d0df92223018b32b4d1fa46e071723d6817e2486d003becc55f0055565b6108988383835f610987565b61032d576108a983835f6001610987565b6108d157604051635274afe760e01b81526001600160a01b03841660048201526024016105e8565b6108de8383836001610987565b61032d57604051635274afe760e01b81526001600160a01b03841660048201526024016105e8565b61091082826106e0565b61093f5760405163e2517d3f60e01b81526001600160a01b0382166004820152602481018390526044016105e8565b5050565b7f9b779b17422d0df92223018b32b4d1fa46e071723d6817e2486d003becc55f005460020361098557604051633ee5aeb560e01b815260040160405180910390fd5b565b60405163095ea7b360e01b5f8181526001600160a01b038616600452602485905291602083604481808b5af1925060015f511483166109dd5783831516156109d1573d5f823e3d81fd5b5f873b113d1516831692505b60405250949350505050565b5f602082840312156109f9575f80fd5b81356001600160e01b031981168114610a10575f80fd5b9392505050565b5f60208284031215610a27575f80fd5b5035919050565b80356001600160a01b0381168114610a44575f80fd5b919050565b5f8060408385031215610a5a575f80fd5b82359150610a6a60208401610a2e565b90509250929050565b5f8083601f840112610a83575f80fd5b50813567ffffffffffffffff811115610a9a575f80fd5b602083019150836020828501011115610ab1575f80fd5b9250929050565b5f805f805f805f8060c0898b031215610acf575f80fd5b88359750610adf60208a01610a2e565b96506040890135955060608901359450608089013567ffffffffffffffff80821115610b09575f80fd5b610b158c838d01610a73565b909650945060a08b0135915080821115610b2d575f80fd5b50610b3a8b828c01610a73565b999c989b5096995094979396929594505050565b5f8083601f840112610b5e575f80fd5b50813567ffffffffffffffff811115610b75575f80fd5b6020830191508360208260051b8501011115610ab1575f80fd5b5f805f805f805f8060a0898b031215610ba6575f80fd5b610baf89610a2e565b9750610bbd60208a01610a2e565b9650604089013567ffffffffffffffff80821115610bd9575f80fd5b610be58c838d01610b4e565b909850965060608b0135915080821115610bfd575f80fd5b610c098c838d01610b4e565b909650945060808b0135915080821115610b2d575f80fd5b5f60208284031215610c31575f80fd5b610a1082610a2e565b5f805f805f8060a08789031215610c4f575f80fd5b610c5887610a2e565b9550610c6660208801610a2e565b94506040870135935060608701359250608087013567ffffffffffffffff811115610c8f575f80fd5b610c9b89828a01610a73565b979a9699509497509295939492505050565b5f60208284031215610cbd575f80fd5b5051919050565b81835281816020850137505f828201602090810191909152601f909101601f19169091010190565b606081525f610cff606083018789610cc4565b8560208401528281036040840152610d18818587610cc4565b98975050505050505050565b818103818111156102ca57634e487b7160e01b5f52601160045260245ffdfea2646970667358221220813d6d0602f51db7da0755851506ed2ff5c52bae98b8dd2e2e8566d6c1f50a4d64736f6c63430008180033","linkReferences":{}},"methodIdentifiers":{"DEFAULT_ADMIN_ROLE()":"a217fddf","ORACLE_ROLE()":"07e2cea5","borrowerSpoke()":"d3f9615a","ctfExchange()":"4b8295e7","executeLiquidateSwap(uint256,address,uint256,uint256,bytes,bytes)":"8aac465f","getRoleAdmin(bytes32)":"248a9ca3","grantRole(bytes32,address)":"2f2ff15d","hasRole(bytes32,address)":"91d14854","onERC1155BatchReceived(address,address,uint256[],uint256[],bytes)":"bc197c81","onERC1155Received(address,address,uint256,uint256,bytes)":"f23a6e61","renounceRole(bytes32,address)":"36568abe","revokeRole(bytes32,address)":"d547741f","setCtfExchange(address)":"d2afa787","supportsInterface(bytes4)":"01ffc9a7","usdc()":"3e413bee"},"id":105}