{"abi":[{"type":"function","name":"APTOS_PRECOMPILE_SPACE","inputs":[],"outputs":[{"name":"","type":"uint256","internalType":"uint256"}],"stateMutability":"view"},{"type":"function","name":"CHAIN_FAMILY_SELECTOR_APTOS","inputs":[],"outputs":[{"name":"","type":"bytes4","internalType":"bytes4"}],"stateMutability":"view"},{"type":"function","name":"CHAIN_FAMILY_SELECTOR_EVM","inputs":[],"outputs":[{"name":"","type":"bytes4","internalType":"bytes4"}],"stateMutability":"view"},{"type":"function","name":"CHAIN_FAMILY_SELECTOR_SUI","inputs":[],"outputs":[{"name":"","type":"bytes4","internalType":"bytes4"}],"stateMutability":"view"},{"type":"function","name":"CHAIN_FAMILY_SELECTOR_SVM","inputs":[],"outputs":[{"name":"","type":"bytes4","internalType":"bytes4"}],"stateMutability":"view"},{"type":"function","name":"CHAIN_FAMILY_SELECTOR_TVM","inputs":[],"outputs":[{"name":"","type":"bytes4","internalType":"bytes4"}],"stateMutability":"view"},{"type":"function","name":"EVM_PRECOMPILE_SPACE","inputs":[],"outputs":[{"name":"","type":"uint256","internalType":"uint256"}],"stateMutability":"view"},{"type":"function","name":"GAS_ESTIMATION_SENDER","inputs":[],"outputs":[{"name":"","type":"address","internalType":"address"}],"stateMutability":"view"},{"type":"function","name":"GAS_PRICE_BITS","inputs":[],"outputs":[{"name":"","type":"uint8","internalType":"uint8"}],"stateMutability":"view"},{"type":"function","name":"MESSAGE_FIXED_BYTES","inputs":[],"outputs":[{"name":"","type":"uint256","internalType":"uint256"}],"stateMutability":"view"},{"type":"function","name":"MESSAGE_FIXED_BYTES_PER_TOKEN","inputs":[],"outputs":[{"name":"","type":"uint256","internalType":"uint256"}],"stateMutability":"view"},{"type":"error","name":"Invalid32ByteAddress","inputs":[{"name":"encodedAddress","type":"bytes","internalType":"bytes"}]},{"type":"error","name":"InvalidEVMAddress","inputs":[{"name":"encodedAddress","type":"bytes","internalType":"bytes"}]},{"type":"error","name":"InvalidTVMAddress","inputs":[{"name":"encodedAddress","type":"bytes","internalType":"bytes"}]}],"bytecode":{"object":"0x6101cc610035600b8282823980515f1a60731461002957634e487b7160e01b5f525f60045260245ffd5b305f52607381538281f3fe73000000000000000000000000000000000000000030146080604052600436106100b1575f3560e01c80637a4bb232116100795780637a4bb2321461013b578063958d0099146101555780639a3a11ae14610163578063a60821ca14610171578063dc47c58b1461017f578063fb633e9c14610188575f80fd5b806313dd3f64146100b557806318994e7a146100d0578063192c8288146100d95780632a91a92b146100e2578063608c703914610109575b5f80fd5b6100bd600b81565b6040519081526020015b60405180910390f35b6100bd6101e081565b6100bd61040081565b6100f0632b1dfffb60e21b81565b6040516001600160e01b031990911681526020016100c7565b61012372c11c11c11c11c11c11c11c11c11c11c11c11c181565b6040516001600160a01b0390911681526020016100c7565b610143607081565b60405160ff90911681526020016100c7565b6100f06307842f7160e21b81565b6100f063647e2ba960e01b81565b6100f063c4e0595360e01b81565b6100bd61012081565b6100f0630a04b54b60e21b8156fea2646970667358221220f6dae56c7dc57adb6a9a1f792b864f185267030424d234e871185cf6188cf1b164736f6c63430008180033","linkReferences":{}},"methodIdentifiers":{"APTOS_PRECOMPILE_SPACE()":"13dd3f64","CHAIN_FAMILY_SELECTOR_APTOS()":"2a91a92b","CHAIN_FAMILY_SELECTOR_EVM()":"fb633e9c","CHAIN_FAMILY_SELECTOR_SUI()":"a60821ca","CHAIN_FAMILY_SELECTOR_SVM()":"958d0099","CHAIN_FAMILY_SELECTOR_TVM()":"9a3a11ae","EVM_PRECOMPILE_SPACE()":"192c8288","GAS_ESTIMATION_SENDER()":"608c7039","GAS_PRICE_BITS()":"7a4bb232","MESSAGE_FIXED_BYTES()":"18994e7a","MESSAGE_FIXED_BYTES_PER_TOKEN()":"dc47c58b"},"id":98}