{"abi":[{"type":"constructor","inputs":[{"name":"admin","type":"address","internalType":"address"},{"name":"_paymentToken","type":"address","internalType":"address"},{"name":"_liquidityPool","type":"address","internalType":"address"},{"name":"_borrowerSpoke","type":"address","internalType":"address"},{"name":"_startPricePremium","type":"uint256","internalType":"uint256"},{"name":"_floorPriceFraction","type":"uint256","internalType":"uint256"},{"name":"_defaultAuctionDuration","type":"uint256","internalType":"uint256"},{"name":"_keeperIncentive","type":"uint256","internalType":"uint256"},{"name":"_ccipRouter","type":"address","internalType":"address"},{"name":"_borrowerSpokeChainSelector","type":"uint64","internalType":"uint64"}],"stateMutability":"nonpayable"},{"type":"receive","stateMutability":"payable"},{"type":"function","name":"DEFAULT_ADMIN_ROLE","inputs":[],"outputs":[{"name":"","type":"bytes32","internalType":"bytes32"}],"stateMutability":"view"},{"type":"function","name":"ORACLE_ROLE","inputs":[],"outputs":[{"name":"","type":"bytes32","internalType":"bytes32"}],"stateMutability":"view"},{"type":"function","name":"activeAuctionForVault","inputs":[{"name":"","type":"uint256","internalType":"uint256"}],"outputs":[{"name":"","type":"uint256","internalType":"uint256"}],"stateMutability":"view"},{"type":"function","name":"bid","inputs":[{"name":"auctionId","type":"uint256","internalType":"uint256"}],"outputs":[],"stateMutability":"nonpayable"},{"type":"function","name":"borrowerSpoke","inputs":[],"outputs":[{"name":"","type":"address","internalType":"address"}],"stateMutability":"view"},{"type":"function","name":"borrowerSpokeChainSelector","inputs":[],"outputs":[{"name":"","type":"uint64","internalType":"uint64"}],"stateMutability":"view"},{"type":"function","name":"ccipRouter","inputs":[],"outputs":[{"name":"","type":"address","internalType":"contract IRouterClient"}],"stateMutability":"view"},{"type":"function","name":"defaultAuctionDuration","inputs":[],"outputs":[{"name":"","type":"uint256","internalType":"uint256"}],"stateMutability":"view"},{"type":"function","name":"floorPriceFraction","inputs":[],"outputs":[{"name":"","type":"uint256","internalType":"uint256"}],"stateMutability":"view"},{"type":"function","name":"getAuction","inputs":[{"name":"auctionId","type":"uint256","internalType":"uint256"}],"outputs":[{"name":"","type":"tuple","internalType":"struct IDutchAuction.Auction","components":[{"name":"vaultId","type":"uint256","internalType":"uint256"},{"name":"debtAmount","type":"uint256","internalType":"uint256"},{"name":"startPrice","type":"uint256","internalType":"uint256"},{"name":"floorPrice","type":"uint256","internalType":"uint256"},{"name":"startTime","type":"uint256","internalType":"uint256"},{"name":"duration","type":"uint256","internalType":"uint256"},{"name":"settler","type":"address","internalType":"address"},{"name":"settledPrice","type":"uint256","internalType":"uint256"},{"name":"status","type":"uint8","internalType":"enum IDutchAuction.AuctionStatus"}]}],"stateMutability":"view"},{"type":"function","name":"getCurrentPrice","inputs":[{"name":"auctionId","type":"uint256","internalType":"uint256"}],"outputs":[{"name":"price","type":"uint256","internalType":"uint256"}],"stateMutability":"view"},{"type":"function","name":"getRoleAdmin","inputs":[{"name":"role","type":"bytes32","internalType":"bytes32"}],"outputs":[{"name":"","type":"bytes32","internalType":"bytes32"}],"stateMutability":"view"},{"type":"function","name":"grantRole","inputs":[{"name":"role","type":"bytes32","internalType":"bytes32"},{"name":"account","type":"address","internalType":"address"}],"outputs":[],"stateMutability":"nonpayable"},{"type":"function","name":"hasRole","inputs":[{"name":"role","type":"bytes32","internalType":"bytes32"},{"name":"account","type":"address","internalType":"address"}],"outputs":[{"name":"","type":"bool","internalType":"bool"}],"stateMutability":"view"},{"type":"function","name":"keeperIncentive","inputs":[],"outputs":[{"name":"","type":"uint256","internalType":"uint256"}],"stateMutability":"view"},{"type":"function","name":"liquidityPool","inputs":[],"outputs":[{"name":"","type":"address","internalType":"address"}],"stateMutability":"view"},{"type":"function","name":"paymentToken","inputs":[],"outputs":[{"name":"","type":"address","internalType":"contract IERC20"}],"stateMutability":"view"},{"type":"function","name":"renounceRole","inputs":[{"name":"role","type":"bytes32","internalType":"bytes32"},{"name":"callerConfirmation","type":"address","internalType":"address"}],"outputs":[],"stateMutability":"nonpayable"},{"type":"function","name":"revokeRole","inputs":[{"name":"role","type":"bytes32","internalType":"bytes32"},{"name":"account","type":"address","internalType":"address"}],"outputs":[],"stateMutability":"nonpayable"},{"type":"function","name":"setAuctionParams","inputs":[{"name":"_startPricePremium","type":"uint256","internalType":"uint256"},{"name":"_floorPriceFraction","type":"uint256","internalType":"uint256"},{"name":"_defaultAuctionDuration","type":"uint256","internalType":"uint256"},{"name":"_keeperIncentive","type":"uint256","internalType":"uint256"}],"outputs":[],"stateMutability":"nonpayable"},{"type":"function","name":"setBorrowerSpoke","inputs":[{"name":"_borrowerSpoke","type":"address","internalType":"address"},{"name":"_selector","type":"uint64","internalType":"uint64"}],"outputs":[],"stateMutability":"nonpayable"},{"type":"function","name":"settleAuction","inputs":[{"name":"auctionId","type":"uint256","internalType":"uint256"}],"outputs":[],"stateMutability":"nonpayable"},{"type":"function","name":"startAuction","inputs":[{"name":"vaultId","type":"uint256","internalType":"uint256"}],"outputs":[{"name":"auctionId","type":"uint256","internalType":"uint256"}],"stateMutability":"nonpayable"},{"type":"function","name":"startBatchAuctions","inputs":[{"name":"vaultIds","type":"uint256[]","internalType":"uint256[]"}],"outputs":[{"name":"auctionIds","type":"uint256[]","internalType":"uint256[]"}],"stateMutability":"nonpayable"},{"type":"function","name":"startPricePremium","inputs":[],"outputs":[{"name":"","type":"uint256","internalType":"uint256"}],"stateMutability":"view"},{"type":"function","name":"supportsInterface","inputs":[{"name":"interfaceId","type":"bytes4","internalType":"bytes4"}],"outputs":[{"name":"","type":"bool","internalType":"bool"}],"stateMutability":"view"},{"type":"function","name":"totalBadDebt","inputs":[],"outputs":[{"name":"","type":"uint256","internalType":"uint256"}],"stateMutability":"view"},{"type":"event","name":"AuctionBid","inputs":[{"name":"auctionId","type":"uint256","indexed":true,"internalType":"uint256"},{"name":"bidder","type":"address","indexed":true,"internalType":"address"},{"name":"price","type":"uint256","indexed":false,"internalType":"uint256"}],"anonymous":false},{"type":"event","name":"AuctionSettled","inputs":[{"name":"auctionId","type":"uint256","indexed":true,"internalType":"uint256"},{"name":"settler","type":"address","indexed":true,"internalType":"address"},{"name":"settledPrice","type":"uint256","indexed":false,"internalType":"uint256"},{"name":"debtRepaid","type":"uint256","indexed":false,"internalType":"uint256"},{"name":"surplus","type":"uint256","indexed":false,"internalType":"uint256"}],"anonymous":false},{"type":"event","name":"AuctionStarted","inputs":[{"name":"auctionId","type":"uint256","indexed":true,"internalType":"uint256"},{"name":"vaultId","type":"uint256","indexed":true,"internalType":"uint256"},{"name":"startPrice","type":"uint256","indexed":false,"internalType":"uint256"},{"name":"floorPrice","type":"uint256","indexed":false,"internalType":"uint256"},{"name":"duration","type":"uint256","indexed":false,"internalType":"uint256"}],"anonymous":false},{"type":"event","name":"BadDebtSocialized","inputs":[{"name":"auctionId","type":"uint256","indexed":true,"internalType":"uint256"},{"name":"shortfall","type":"uint256","indexed":false,"internalType":"uint256"}],"anonymous":false},{"type":"event","name":"BatchAuctionsStarted","inputs":[{"name":"auctionIds","type":"uint256[]","indexed":false,"internalType":"uint256[]"},{"name":"vaultIds","type":"uint256[]","indexed":false,"internalType":"uint256[]"}],"anonymous":false},{"type":"event","name":"KeeperIncentivePaid","inputs":[{"name":"auctionId","type":"uint256","indexed":true,"internalType":"uint256"},{"name":"keeper","type":"address","indexed":true,"internalType":"address"},{"name":"amount","type":"uint256","indexed":false,"internalType":"uint256"}],"anonymous":false},{"type":"event","name":"RoleAdminChanged","inputs":[{"name":"role","type":"bytes32","indexed":true,"internalType":"bytes32"},{"name":"previousAdminRole","type":"bytes32","indexed":true,"internalType":"bytes32"},{"name":"newAdminRole","type":"bytes32","indexed":true,"internalType":"bytes32"}],"anonymous":false},{"type":"event","name":"RoleGranted","inputs":[{"name":"role","type":"bytes32","indexed":true,"internalType":"bytes32"},{"name":"account","type":"address","indexed":true,"internalType":"address"},{"name":"sender","type":"address","indexed":true,"internalType":"address"}],"anonymous":false},{"type":"event","name":"RoleRevoked","inputs":[{"name":"role","type":"bytes32","indexed":true,"internalType":"bytes32"},{"name":"account","type":"address","indexed":true,"internalType":"address"},{"name":"sender","type":"address","indexed":true,"internalType":"address"}],"anonymous":false},{"type":"error","name":"AccessControlBadConfirmation","inputs":[]},{"type":"error","name":"AccessControlUnauthorizedAccount","inputs":[{"name":"account","type":"address","internalType":"address"},{"name":"neededRole","type":"bytes32","internalType":"bytes32"}]},{"type":"error","name":"AuctionAlreadySettled","inputs":[{"name":"auctionId","type":"uint256","internalType":"uint256"}]},{"type":"error","name":"AuctionExpired","inputs":[{"name":"auctionId","type":"uint256","internalType":"uint256"}]},{"type":"error","name":"AuctionNotActive","inputs":[{"name":"auctionId","type":"uint256","internalType":"uint256"}]},{"type":"error","name":"BidTooLow","inputs":[{"name":"bid","type":"uint256","internalType":"uint256"},{"name":"currentPrice","type":"uint256","internalType":"uint256"}]},{"type":"error","name":"ReentrancyGuardReentrantCall","inputs":[]},{"type":"error","name":"SafeERC20FailedOperation","inputs":[{"name":"token","type":"address","internalType":"address"}]},{"type":"error","name":"VaultAlreadyInAuction","inputs":[{"name":"vaultId","type":"uint256","internalType":"uint256"}]},{"type":"error","name":"ZeroDebt","inputs":[{"name":"vaultId","type":"uint256","internalType":"uint256"}]}],"bytecode":{"object":"0x60a060405234801562000010575f80fd5b50604051620020e6380380620020e68339810160408190526200003391620001ac565b60017f9b779b17422d0df92223018b32b4d1fa46e071723d6817e2486d003becc55f0055620000635f8b620000e4565b506001600160a01b0398891660805260038054988a166001600160a01b0319998a1617905560048054978a169790981696909617909655600593909355600691909155600755600855600a80546001600160401b03909216600160a01b026001600160e01b0319909216929093169190911717905550600160025562000260565b5f828152602081815260408083206001600160a01b038516845290915281205460ff1662000187575f838152602081815260408083206001600160a01b03861684529091529020805460ff191660011790556200013e3390565b6001600160a01b0316826001600160a01b0316847f2f8788117e7eff1d82e926ec794901d17c78024a50270940304540a733656f0d60405160405180910390a45060016200018a565b505f5b92915050565b80516001600160a01b0381168114620001a7575f80fd5b919050565b5f805f805f805f805f806101408b8d031215620001c7575f80fd5b620001d28b62000190565b9950620001e260208c0162000190565b9850620001f260408c0162000190565b97506200020260608c0162000190565b965060808b0151955060a08b0151945060c08b0151935060e08b015192506200022f6101008c0162000190565b6101208c01519092506001600160401b03811681146200024d575f80fd5b809150509295989b9194979a5092959850565b608051611e43620002a35f395f818161039001528181610ba6015281816111c001528181611281015281816113d70152818161145001526116010152611e435ff3fe608060405260043610610197575f3560e01c8063454a2ab3116100e757806378bd793511610087578063a217fddf11610062578063a217fddf146104f8578063c55d0f561461050b578063d3f9615a1461052a578063d547741f14610549575f80fd5b806378bd79351461048257806391acb7d7146104ae57806391d14854146104d9575f80fd5b806351066fae116100c257806351066fae1461041a5780635f6126221461042f5780635ffd7cdb1461044e578063665a11ca14610463575f80fd5b8063454a2ab3146103d15780634986bd50146103f0578063510219cd14610405575f80fd5b806319a5a847116101525780632e9936111161012d5780632e993611146103415780632f2ff15d146103605780633013ce291461037f57806336568abe146103b2575f80fd5b806319a5a847146102dd578063248a9ca3146102fe5780632cc139b11461032c575f80fd5b8062d77188146101a257806301ffc9a7146101d7578063065de74c1461020657806307e2cea51461023357806309e61661146102665780630de22984146102a6575f80fd5b3661019e57005b5f80fd5b3480156101ad575f80fd5b506101c16101bc36600461198f565b610568565b6040516101ce9190611a38565b60405180910390f35b3480156101e2575f80fd5b506101f66101f1366004611a51565b61066c565b60405190151581526020016101ce565b348015610211575f80fd5b50610225610220366004611a78565b6106a2565b6040519081526020016101ce565b34801561023e575f80fd5b506102257f68e79a7bf1e0bc45d0a330c573bc367f9cf464fd326078812f301165fbda4ef181565b348015610271575f80fd5b50600a5461028d90600160a01b900467ffffffffffffffff1681565b60405167ffffffffffffffff90911681526020016101ce565b3480156102b1575f80fd5b50600a546102c5906001600160a01b031681565b6040516001600160a01b0390911681526020016101ce565b3480156102e8575f80fd5b506102fc6102f7366004611aaa565b6108ee565b005b348015610309575f80fd5b50610225610318366004611a78565b5f9081526020819052604090206001015490565b348015610337575f80fd5b5061022560085481565b34801561034c575f80fd5b506102fc61035b366004611a78565b610949565b34801561036b575f80fd5b506102fc61037a366004611aeb565b610a97565b34801561038a575f80fd5b506102c57f000000000000000000000000000000000000000000000000000000000000000081565b3480156103bd575f80fd5b506102fc6103cc366004611aeb565b610ac1565b3480156103dc575f80fd5b506102fc6103eb366004611a78565b610af9565b3480156103fb575f80fd5b5061022560095481565b348015610410575f80fd5b5061022560075481565b348015610425575f80fd5b5061022560065481565b34801561043a575f80fd5b506102fc610449366004611b15565b610c77565b348015610459575f80fd5b5061022560055481565b34801561046e575f80fd5b506003546102c5906001600160a01b031681565b34801561048d575f80fd5b506104a161049c366004611a78565b610c96565b6040516101ce9190611b58565b3480156104b9575f80fd5b506102256104c8366004611a78565b600b6020525f908152604090205481565b3480156104e4575f80fd5b506101f66104f3366004611aeb565b610d4d565b348015610503575f80fd5b506102255f81565b348015610516575f80fd5b50610225610525366004611a78565b610d75565b348015610535575f80fd5b506004546102c5906001600160a01b031681565b348015610554575f80fd5b506102fc610563366004611aeb565b610ecd565b60607f68e79a7bf1e0bc45d0a330c573bc367f9cf464fd326078812f301165fbda4ef161059481610ef1565b8267ffffffffffffffff8111156105ad576105ad611be0565b6040519080825280602002602001820160405280156105d6578160200160208202803683370190505b5091505f5b83811015610629576106048585838181106105f8576105f8611bf4565b905060200201356106a2565b83828151811061061657610616611bf4565b60209081029190910101526001016105db565b507f6258a6cf0d81fe05598d259cca51c918fdb4e6d96a20fcbc41d3400d364cd37082858560405161065d93929190611c08565b60405180910390a15092915050565b5f6001600160e01b03198216637965db0b60e01b148061069c57506301ffc9a760e01b6001600160e01b03198316145b92915050565b5f7f68e79a7bf1e0bc45d0a330c573bc367f9cf464fd326078812f301165fbda4ef16106cd81610ef1565b5f838152600b6020526040902054156107015760405163376ca9e760e01b8152600481018490526024015b60405180910390fd5b5f61070b84610efb565b9050805f03610730576040516308f2617760e11b8152600481018590526024016106f8565b60028054905f61073f83611c64565b9190505592505f670de0b6b3a76400006005548361075d9190611c7c565b6107679190611c93565b90505f670de0b6b3a7640000600654836107819190611c7c565b61078b9190611c93565b905060405180610120016040528087815260200184815260200183815260200182815260200142815260200160075481526020015f6001600160a01b031681526020015f81526020015f60028111156107e6576107e6611b44565b90525f8681526001602081815260409283902084518155908401518183015591830151600280840191909155606084015160038401556080840151600484015560a0840151600584015560c08401516006840180546001600160a01b0319166001600160a01b0390921691909117905560e084015160078401556101008401516008840180549193909260ff1990921691849081111561088857610888611b44565b021790555050505f868152600b60209081526040918290208790556007548251858152918201849052818301529051879187917f96dc03847ae934117a0c1b4ead42f9ae23548b3b72d07cc48668ee28d05797499181900360600190a350505050919050565b5f6108f881610ef1565b50600480546001600160a01b039093166001600160a01b031990931692909217909155600a805467ffffffffffffffff909216600160a01b0267ffffffffffffffff60a01b19909216919091179055565b5f81815260016020819052604090912090600882015460ff16600281111561097357610973611b44565b03610994576040516338602da160e21b8152600481018390526024016106f8565b806005015481600401546109a89190611cb2565b4210610a935760088101805460ff1916600217905580545f908152600b6020526040812055600181015415610a9357806001015460095f8282546109ec9190611cb2565b90915550506003546001820154604051621ecbdb60e71b81526001600160a01b0390921691630f65ed8091610a279160040190815260200190565b5f604051808303815f87803b158015610a3e575f80fd5b505af1158015610a50573d5f803e3d5ffd5b50505050817ffa504e549c4f32604941de70e27e73843fc6b96a2523161bada3ed45c3db37c88260010154604051610a8a91815260200190565b60405180910390a25b5050565b5f82815260208190526040902060010154610ab181610ef1565b610abb8383610f66565b50505050565b6001600160a01b0381163314610aea5760405163334bd91960e11b815260040160405180910390fd5b610af48282610ff5565b505050565b610b0161105e565b5f81815260016020526040812090600882015460ff166002811115610b2857610b28611b44565b14610b495760405163aff5aad960e01b8152600481018390526024016106f8565b5f610b5383610d75565b9050805f03610b875760088201805460ff191660021790556040516316bcd97960e31b8152600481018490526024016106f8565b5f610b9764e8d4a5100083611c93565b9050610bce6001600160a01b037f00000000000000000000000000000000000000000000000000000000000000001633308461108c565b6006830180546001600160a01b031916331790556007830182905560088301805460ff1916600117905582545f908152600b6020526040812055610c11846110c2565b604051828152339085907fb8d756f2d1da4663767eb4d559780ace84f2f65a421a60ddcb47e8b2e5d2fd269060200160405180910390a3505050610c7460017f9b779b17422d0df92223018b32b4d1fa46e071723d6817e2486d003becc55f0055565b50565b5f610c8181610ef1565b50600593909355600691909155600755600855565b610c9e611933565b5f82815260016020818152604092839020835161012081018552815481529281015491830191909152600280820154938301939093526003810154606083015260048101546080830152600581015460a083015260068101546001600160a01b031660c0830152600781015460e083015260088101549192909161010084019160ff90911690811115610d3357610d33611b44565b6002811115610d4457610d44611b44565b90525092915050565b5f918252602082815260408084206001600160a01b0393909316845291905290205460ff1690565b5f818152600160208181526040808420815161012081018352815481529381015492840192909252600280830154918401919091526003820154606084015260048201546080840152600582015460a084015260068201546001600160a01b031660c0840152600782015460e084015260088201548493929161010084019160ff1690811115610e0757610e07611b44565b6002811115610e1857610e18611b44565b90525090505f8161010001516002811115610e3557610e35611b44565b14610e4257505f92915050565b5f816080015142610e539190611cc5565b90508160a001518110610e6957505f9392505050565b5f82606001518360400151610e7e9190611cc5565b90505f8360a001518383610e929190611c7c565b610e9c9190611c93565b9050808460400151610eae9190611cc5565b94508360600151851015610ec457836060015194505b50505050919050565b5f82815260208190526040902060010154610ee781610ef1565b610abb8383610ff5565b610c748133611716565b60035460405163d310f49b60e01b8152600481018390525f916001600160a01b03169063d310f49b90602401602060405180830381865afa158015610f42573d5f803e3d5ffd5b505050506040513d601f19601f8201168201806040525081019061069c9190611cd8565b5f610f718383610d4d565b610fee575f838152602081815260408083206001600160a01b03861684529091529020805460ff19166001179055610fa63390565b6001600160a01b0316826001600160a01b0316847f2f8788117e7eff1d82e926ec794901d17c78024a50270940304540a733656f0d60405160405180910390a450600161069c565b505f61069c565b5f6110008383610d4d565b15610fee575f838152602081815260408083206001600160a01b0386168085529252808320805460ff1916905551339286917ff6391f5c32d9c69d2a47ea670b442974b53935d1edc7fd64eb21e047a839171b9190a450600161069c565b61106661174f565b60027f9b779b17422d0df92223018b32b4d1fa46e071723d6817e2486d003becc55f0055565b61109a848484846001611793565b610abb57604051635274afe760e01b81526001600160a01b03851660048201526024016106f8565b5f818152600160208181526040808420815161012081018352815481529381015492840192909252600280830154918401919091526003820154606084015260048201546080840152600582015460a084015260068201546001600160a01b031660c0840152600782015460e0840152600882015461010084019160ff9091169081111561115257611152611b44565b600281111561116357611163611b44565b90525060e0810151600854919250905f90670de0b6b3a7640000906111889084611c7c565b6111929190611c93565b9050801561123d575f6111aa64e8d4a5100083611c93565b60c08501519091506111e7906001600160a01b037f0000000000000000000000000000000000000000000000000000000000000000169083611800565b6111f18284611cc5565b92508360c001516001600160a01b0316857fc9737fb6214a6db321736a5783fe3cc20f4156110017ecc7179ddd8c8e26ef698460405161123391815260200190565b60405180910390a3505b5f8360200151831061125457506020830151611257565b50815b80156112ac575f61126d64e8d4a5100083611c93565b6003549091506112aa906001600160a01b037f00000000000000000000000000000000000000000000000000000000000000008116911683611800565b505b8360200151831015611375575f8385602001516112c99190611cc5565b90508060095f8282546112dc9190611cb2565b9091555050600354604051621ecbdb60e71b8152600481018390526001600160a01b0390911690630f65ed80906024015f604051808303815f87803b158015611323575f80fd5b505af1158015611335573d5f803e3d5ffd5b50505050857ffa504e549c4f32604941de70e27e73843fc6b96a2523161bada3ed45c3db37c88260405161136b91815260200190565b60405180910390a2505b5f84602001518411156116b65760208501516113919085611cc5565b905080156116b6575f6113a964e8d4a5100083611c93565b600a54909150600160a01b900467ffffffffffffffff165f0361140557600454611400906001600160a01b037f00000000000000000000000000000000000000000000000000000000000000008116911683611800565b6116b4565b6040805160018082528183019092525f91816020015b604080518082019091525f808252602082015281526020019060019003908161141b57905050905060405180604001604052807f00000000000000000000000000000000000000000000000000000000000000006001600160a01b0316815260200183815250815f8151811061149357611493611bf4565b60209081029190910101526040805160a081019091526004546001600160a01b031660c08201525f908060e081016040516020818303038152906040528152602001895f01516040516020016114eb91815260200190565b60405160208183030381529060405281526020018381526020015f6001600160a01b03168152602001611566604051806020016040528062030d4081525060408051915160248084019190915281518084039091018152604490920190526020810180516001600160e01b03166397a657c960e01b17905290565b9052600a546040516320487ded60e01b81529192505f916001600160a01b038216916320487ded916115ae91600160a01b900467ffffffffffffffff16908690600401611d32565b602060405180830381865afa1580156115c9573d5f803e3d5ffd5b505050506040513d601f19601f820116820180604052508101906115ed9190611cd8565b600a5490915061162a906001600160a01b037f00000000000000000000000000000000000000000000000000000000000000008116911686611835565b600a546040516396f4e9f960e01b81526001600160a01b038216916396f4e9f991849161166e91600160a01b90910467ffffffffffffffff16908790600401611d32565b60206040518083038185885af115801561168a573d5f803e3d5ffd5b50505050506040513d601f19601f820116820180604052508101906116af9190611cd8565b505050505b505b60c085015160e0860151604080519182526020820185905281018390526001600160a01b039091169087907f505c7c7cd3a58c7bd261c378954ce91c744bdde91a6e1a6f5cb8799f2e9a1d689060600160405180910390a3505050505050565b6117208282610d4d565b610a935760405163e2517d3f60e01b81526001600160a01b0382166004820152602481018390526044016106f8565b7f9b779b17422d0df92223018b32b4d1fa46e071723d6817e2486d003becc55f005460020361179157604051633ee5aeb560e01b815260040160405180910390fd5b565b6040516323b872dd60e01b5f8181526001600160a01b038781166004528616602452604485905291602083606481808c5af1925060015f511483166117ef5783831516156117e3573d5f823e3d81fd5b5f883b113d1516831692505b604052505f60605295945050505050565b61180d8383836001611887565b610af457604051635274afe760e01b81526001600160a01b03841660048201526024016106f8565b6118418383835f6118e9565b610af45761185283835f60016118e9565b61187a57604051635274afe760e01b81526001600160a01b03841660048201526024016106f8565b61180d83838360016118e9565b60405163a9059cbb60e01b5f8181526001600160a01b038616600452602485905291602083604481808b5af1925060015f511483166118dd5783831516156118d1573d5f823e3d81fd5b5f873b113d1516831692505b60405250949350505050565b60405163095ea7b360e01b5f8181526001600160a01b038616600452602485905291602083604481808b5af1925060015f511483166118dd5783831516156118d1573d5f823e3d81fd5b6040518061012001604052805f81526020015f81526020015f81526020015f81526020015f81526020015f81526020015f6001600160a01b031681526020015f81526020015f600281111561198a5761198a611b44565b905290565b5f80602083850312156119a0575f80fd5b823567ffffffffffffffff808211156119b7575f80fd5b818501915085601f8301126119ca575f80fd5b8135818111156119d8575f80fd5b8660208260051b85010111156119ec575f80fd5b60209290920196919550909350505050565b5f815180845260208085019450602084015f5b83811015611a2d57815187529582019590820190600101611a11565b509495945050505050565b602081525f611a4a60208301846119fe565b9392505050565b5f60208284031215611a61575f80fd5b81356001600160e01b031981168114611a4a575f80fd5b5f60208284031215611a88575f80fd5b5035919050565b80356001600160a01b0381168114611aa5575f80fd5b919050565b5f8060408385031215611abb575f80fd5b611ac483611a8f565b9150602083013567ffffffffffffffff81168114611ae0575f80fd5b809150509250929050565b5f8060408385031215611afc575f80fd5b82359150611b0c60208401611a8f565b90509250929050565b5f805f8060808587031215611b28575f80fd5b5050823594602084013594506040840135936060013592509050565b634e487b7160e01b5f52602160045260245ffd5b5f61012082019050825182526020830151602083015260408301516040830152606083015160608301526080830151608083015260a083015160a083015260018060a01b0360c08401511660c083015260e083015160e08301526101008084015160038110611bd557634e487b7160e01b5f52602160045260245ffd5b920191909152919050565b634e487b7160e01b5f52604160045260245ffd5b634e487b7160e01b5f52603260045260245ffd5b604081525f611c1a60408301866119fe565b82810360208401528381526001600160fb1b03841115611c38575f80fd5b8360051b808660208401370160200195945050505050565b634e487b7160e01b5f52601160045260245ffd5b5f60018201611c7557611c75611c50565b5060010190565b808202811582820484141761069c5761069c611c50565b5f82611cad57634e487b7160e01b5f52601260045260245ffd5b500490565b8082018082111561069c5761069c611c50565b8181038181111561069c5761069c611c50565b5f60208284031215611ce8575f80fd5b5051919050565b5f81518084525f5b81811015611d1357602081850181015186830182015201611cf7565b505f602082860101526020601f19601f83011685010191505092915050565b5f604067ffffffffffffffff851683526020604081850152845160a06040860152611d6060e0860182611cef565b905081860151603f1980878403016060880152611d7d8383611cef565b6040890151888203830160808a0152805180835290860194505f9350908501905b80841015611dd057845180516001600160a01b0316835286015186830152938501936001939093019290860190611d9e565b5060608901516001600160a01b031660a08901526080890151888203830160c08a01529550611dff8187611cef565b9a995050505050505050505056fea26469706673582212203d5fa9bf7747491f37cff67a7f62a9f17ccd08f9ad101b92513e19742a579eda64736f6c63430008180033","linkReferences":{}},"methodIdentifiers":{"DEFAULT_ADMIN_ROLE()":"a217fddf","ORACLE_ROLE()":"07e2cea5","activeAuctionForVault(uint256)":"91acb7d7","bid(uint256)":"454a2ab3","borrowerSpoke()":"d3f9615a","borrowerSpokeChainSelector()":"09e61661","ccipRouter()":"0de22984","defaultAuctionDuration()":"510219cd","floorPriceFraction()":"51066fae","getAuction(uint256)":"78bd7935","getCurrentPrice(uint256)":"c55d0f56","getRoleAdmin(bytes32)":"248a9ca3","grantRole(bytes32,address)":"2f2ff15d","hasRole(bytes32,address)":"91d14854","keeperIncentive()":"2cc139b1","liquidityPool()":"665a11ca","paymentToken()":"3013ce29","renounceRole(bytes32,address)":"36568abe","revokeRole(bytes32,address)":"d547741f","setAuctionParams(uint256,uint256,uint256,uint256)":"5f612622","setBorrowerSpoke(address,uint64)":"19a5a847","settleAuction(uint256)":"2e993611","startAuction(uint256)":"065de74c","startBatchAuctions(uint256[])":"00d77188","startPricePremium()":"5ffd7cdb","supportsInterface(bytes4)":"01ffc9a7","totalBadDebt()":"4986bd50"},"id":98}