{"abi":[{"type":"constructor","inputs":[{"name":"ccipRouter","type":"address","internalType":"address"},{"name":"_liquidityPool","type":"address","internalType":"address"},{"name":"_admin","type":"address","internalType":"address"}],"stateMutability":"nonpayable"},{"type":"function","name":"DEFAULT_ADMIN_ROLE","inputs":[],"outputs":[{"name":"","type":"bytes32","internalType":"bytes32"}],"stateMutability":"view"},{"type":"function","name":"LOCAL_SPOKE_ROLE","inputs":[],"outputs":[{"name":"","type":"bytes32","internalType":"bytes32"}],"stateMutability":"view"},{"type":"function","name":"ORACLE_ROLE","inputs":[],"outputs":[{"name":"","type":"bytes32","internalType":"bytes32"}],"stateMutability":"view"},{"type":"function","name":"authorizedSpokes","inputs":[{"name":"","type":"uint64","internalType":"uint64"}],"outputs":[{"name":"","type":"address","internalType":"address"}],"stateMutability":"view"},{"type":"function","name":"ccipReceive","inputs":[{"name":"message","type":"tuple","internalType":"struct Client.Any2EVMMessage","components":[{"name":"messageId","type":"bytes32","internalType":"bytes32"},{"name":"sourceChainSelector","type":"uint64","internalType":"uint64"},{"name":"sender","type":"bytes","internalType":"bytes"},{"name":"data","type":"bytes","internalType":"bytes"},{"name":"destTokenAmounts","type":"tuple[]","internalType":"struct Client.EVMTokenAmount[]","components":[{"name":"token","type":"address","internalType":"address"},{"name":"amount","type":"uint256","internalType":"uint256"}]}]}],"outputs":[],"stateMutability":"nonpayable"},{"type":"function","name":"getRoleAdmin","inputs":[{"name":"role","type":"bytes32","internalType":"bytes32"}],"outputs":[{"name":"","type":"bytes32","internalType":"bytes32"}],"stateMutability":"view"},{"type":"function","name":"getRouter","inputs":[],"outputs":[{"name":"","type":"address","internalType":"address"}],"stateMutability":"view"},{"type":"function","name":"grantRole","inputs":[{"name":"role","type":"bytes32","internalType":"bytes32"},{"name":"account","type":"address","internalType":"address"}],"outputs":[],"stateMutability":"nonpayable"},{"type":"function","name":"hasRole","inputs":[{"name":"role","type":"bytes32","internalType":"bytes32"},{"name":"account","type":"address","internalType":"address"}],"outputs":[{"name":"","type":"bool","internalType":"bool"}],"stateMutability":"view"},{"type":"function","name":"liquidityPool","inputs":[],"outputs":[{"name":"","type":"address","internalType":"contract ILiquidityPool"}],"stateMutability":"view"},{"type":"function","name":"loanDisbursed","inputs":[{"name":"","type":"uint256","internalType":"uint256"}],"outputs":[{"name":"","type":"bool","internalType":"bool"}],"stateMutability":"view"},{"type":"function","name":"oracleValuations","inputs":[{"name":"","type":"uint256","internalType":"uint256"}],"outputs":[{"name":"vaultId","type":"uint256","internalType":"uint256"},{"name":"alpha","type":"uint256","internalType":"uint256"},{"name":"collateralValue","type":"uint256","internalType":"uint256"},{"name":"healthFactor","type":"uint256","internalType":"uint256"},{"name":"loanAmount","type":"uint256","internalType":"uint256"},{"name":"timestamp","type":"uint256","internalType":"uint256"}],"stateMutability":"view"},{"type":"function","name":"pendingRequests","inputs":[{"name":"","type":"uint256","internalType":"uint256"}],"outputs":[{"name":"vaultId","type":"uint256","internalType":"uint256"},{"name":"borrower","type":"address","internalType":"address"},{"name":"requestedLTV","type":"uint256","internalType":"uint256"},{"name":"conditionId","type":"uint256","internalType":"uint256"},{"name":"outcomeIndex","type":"uint256","internalType":"uint256"},{"name":"amount","type":"uint256","internalType":"uint256"}],"stateMutability":"view"},{"type":"function","name":"receiveLocalLoanRequest","inputs":[{"name":"request","type":"tuple","internalType":"struct CCIPMessageCodec.LoanRequest","components":[{"name":"vaultId","type":"uint256","internalType":"uint256"},{"name":"borrower","type":"address","internalType":"address"},{"name":"requestedLTV","type":"uint256","internalType":"uint256"},{"name":"conditionId","type":"uint256","internalType":"uint256"},{"name":"outcomeIndex","type":"uint256","internalType":"uint256"},{"name":"amount","type":"uint256","internalType":"uint256"}]}],"outputs":[],"stateMutability":"nonpayable"},{"type":"function","name":"receiveLocalLoanRequestWithAIValue","inputs":[{"name":"request","type":"tuple","internalType":"struct CCIPMessageCodec.LoanRequest","components":[{"name":"vaultId","type":"uint256","internalType":"uint256"},{"name":"borrower","type":"address","internalType":"address"},{"name":"requestedLTV","type":"uint256","internalType":"uint256"},{"name":"conditionId","type":"uint256","internalType":"uint256"},{"name":"outcomeIndex","type":"uint256","internalType":"uint256"},{"name":"amount","type":"uint256","internalType":"uint256"}]},{"name":"aiValuation","type":"uint256","internalType":"uint256"}],"outputs":[],"stateMutability":"nonpayable"},{"type":"function","name":"receiveValuation","inputs":[{"name":"payload","type":"tuple","internalType":"struct CCIPMessageCodec.ValuationPayload","components":[{"name":"vaultId","type":"uint256","internalType":"uint256"},{"name":"alpha","type":"uint256","internalType":"uint256"},{"name":"collateralValue","type":"uint256","internalType":"uint256"},{"name":"healthFactor","type":"uint256","internalType":"uint256"},{"name":"loanAmount","type":"uint256","internalType":"uint256"},{"name":"timestamp","type":"uint256","internalType":"uint256"}]}],"outputs":[],"stateMutability":"nonpayable"},{"type":"function","name":"renounceRole","inputs":[{"name":"role","type":"bytes32","internalType":"bytes32"},{"name":"callerConfirmation","type":"address","internalType":"address"}],"outputs":[],"stateMutability":"nonpayable"},{"type":"function","name":"revokeRole","inputs":[{"name":"role","type":"bytes32","internalType":"bytes32"},{"name":"account","type":"address","internalType":"address"}],"outputs":[],"stateMutability":"nonpayable"},{"type":"function","name":"setAuthorizedSpoke","inputs":[{"name":"chainSelector","type":"uint64","internalType":"uint64"},{"name":"spokeAddress","type":"address","internalType":"address"}],"outputs":[],"stateMutability":"nonpayable"},{"type":"function","name":"supportsInterface","inputs":[{"name":"interfaceId","type":"bytes4","internalType":"bytes4"}],"outputs":[{"name":"","type":"bool","internalType":"bool"}],"stateMutability":"pure"},{"type":"event","name":"LoanDisbursedFromReceiver","inputs":[{"name":"vaultId","type":"uint256","indexed":true,"internalType":"uint256"},{"name":"borrower","type":"address","indexed":false,"internalType":"address"},{"name":"loanAmount","type":"uint256","indexed":false,"internalType":"uint256"}],"anonymous":false},{"type":"event","name":"LoanRequestQueued","inputs":[{"name":"vaultId","type":"uint256","indexed":true,"internalType":"uint256"},{"name":"borrower","type":"address","indexed":false,"internalType":"address"},{"name":"amount","type":"uint256","indexed":false,"internalType":"uint256"}],"anonymous":false},{"type":"event","name":"RoleAdminChanged","inputs":[{"name":"role","type":"bytes32","indexed":true,"internalType":"bytes32"},{"name":"previousAdminRole","type":"bytes32","indexed":true,"internalType":"bytes32"},{"name":"newAdminRole","type":"bytes32","indexed":true,"internalType":"bytes32"}],"anonymous":false},{"type":"event","name":"RoleGranted","inputs":[{"name":"role","type":"bytes32","indexed":true,"internalType":"bytes32"},{"name":"account","type":"address","indexed":true,"internalType":"address"},{"name":"sender","type":"address","indexed":true,"internalType":"address"}],"anonymous":false},{"type":"event","name":"RoleRevoked","inputs":[{"name":"role","type":"bytes32","indexed":true,"internalType":"bytes32"},{"name":"account","type":"address","indexed":true,"internalType":"address"},{"name":"sender","type":"address","indexed":true,"internalType":"address"}],"anonymous":false},{"type":"event","name":"SpokeAuthorized","inputs":[{"name":"chainSelector","type":"uint64","indexed":false,"internalType":"uint64"},{"name":"spokeAddress","type":"address","indexed":false,"internalType":"address"}],"anonymous":false},{"type":"event","name":"ValuationQueued","inputs":[{"name":"vaultId","type":"uint256","indexed":true,"internalType":"uint256"},{"name":"collateralValue","type":"uint256","indexed":false,"internalType":"uint256"},{"name":"healthFactor","type":"uint256","indexed":false,"internalType":"uint256"}],"anonymous":false},{"type":"error","name":"AccessControlBadConfirmation","inputs":[]},{"type":"error","name":"AccessControlUnauthorizedAccount","inputs":[{"name":"account","type":"address","internalType":"address"},{"name":"neededRole","type":"bytes32","internalType":"bytes32"}]},{"type":"error","name":"InvalidRouter","inputs":[{"name":"router","type":"address","internalType":"address"}]},{"type":"error","name":"InvalidSenderAddress","inputs":[{"name":"sender","type":"address","internalType":"address"}]},{"type":"error","name":"LoanAlreadyDisbursed","inputs":[{"name":"vaultId","type":"uint256","internalType":"uint256"}]},{"type":"error","name":"PRBMath_MulDiv18_Overflow","inputs":[{"name":"x","type":"uint256","internalType":"uint256"},{"name":"y","type":"uint256","internalType":"uint256"}]},{"type":"error","name":"SafeERC20FailedOperation","inputs":[{"name":"token","type":"address","internalType":"address"}]},{"type":"error","name":"UnauthorizedSpokeChain","inputs":[{"name":"sourceChainSelector","type":"uint64","internalType":"uint64"}]}],"bytecode":{"object":"0x60c060405234801562000010575f80fd5b506040516200181938038062001819833981016040819052620000339162000153565b826001600160a01b03811662000062576040516335fdcccd60e21b81525f600482015260240160405180910390fd5b6001600160a01b03908116608052821660a052620000815f826200008b565b505050506200019a565b5f828152602081815260408083206001600160a01b038516845290915281205460ff166200012e575f838152602081815260408083206001600160a01b03861684529091529020805460ff19166001179055620000e53390565b6001600160a01b0316826001600160a01b0316847f2f8788117e7eff1d82e926ec794901d17c78024a50270940304540a733656f0d60405160405180910390a450600162000131565b505f5b92915050565b80516001600160a01b03811681146200014e575f80fd5b919050565b5f805f6060848603121562000166575f80fd5b620001718462000137565b9250620001816020850162000137565b9150620001916040850162000137565b90509250925092565b60805160a051611641620001d85f395f818161025901528181610b0601528181610b480152610e1a01525f81816103cc01526105a301526116415ff3fe608060405234801561000f575f80fd5b5060043610610127575f3560e01c80637cc722d9116100a9578063a217fddf1161006e578063a217fddf146103c3578063b0f479a1146103ca578063d547741f146103f0578063dc2b699c14610403578063dfed0e5314610416575f80fd5b80637cc722d9146102e15780637d28a6631461035457806385572ffb1461037657806391d14854146103895780639d0e0c771461039c575f80fd5b80633c652a9a116100ef5780633c652a9a146101d2578063665a11ca1461025457806366a489bc146102935780636c1c0a7f146102a65780637736ad37146102ce575f80fd5b806301ffc9a71461012b57806307e2cea514610153578063248a9ca3146101885780632f2ff15d146101aa57806336568abe146101bf575b5f80fd5b61013e6101393660046110c8565b610429565b60405190151581526020015b60405180910390f35b61017a7f68e79a7bf1e0bc45d0a330c573bc367f9cf464fd326078812f301165fbda4ef181565b60405190815260200161014a565b61017a6101963660046110ef565b5f9081526020819052604090206001015490565b6101bd6101b836600461111a565b61047a565b005b6101bd6101cd36600461111a565b6104a4565b61021f6101e03660046110ef565b600260208190525f918252604090912080546001820154928201546003830154600484015460059094015492946001600160a01b031693919290919086565b604080519687526001600160a01b039095166020870152938501929092526060840152608083015260a082015260c00161014a565b61027b7f000000000000000000000000000000000000000000000000000000000000000081565b6040516001600160a01b03909116815260200161014a565b6101bd6102a136600461115e565b6104dc565b61027b6102b43660046111a3565b60016020525f90815260409020546001600160a01b031681565b6101bd6102dc3660046111bc565b610553565b6103276102ef3660046110ef565b6003602052805f5260405f205f91509050805f0154908060010154908060020154908060030154908060040154908060050154905086565b604080519687526020870195909552938501929092526060840152608083015260a082015260c00161014a565b61013e6103623660046110ef565b60046020525f908152604090205460ff1681565b6101bd6103843660046111d6565b610598565b61013e61039736600461111a565b6105fc565b61017a7fe5dc15842997382f9911398120f58f8f315d99136edb19709641e83f1847582e81565b61017a5f81565b7f000000000000000000000000000000000000000000000000000000000000000061027b565b6101bd6103fe36600461111a565b610624565b6101bd61041136600461120d565b610648565b6101bd6104243660046111bc565b6106c3565b5f6001600160e01b031982166385572ffb60e01b148061045957506001600160e01b03198216637965db0b60e01b145b8061047457506001600160e01b031982166301ffc9a760e01b145b92915050565b5f82815260208190526040902060010154610494816107f3565b61049e83836107fd565b50505050565b6001600160a01b03811633146104cd5760405163334bd91960e11b815260040160405180910390fd5b6104d7828261088c565b505050565b81355f90815260026020526040902082906104f78282611237565b9050505f6105098284604001356108f5565b90506104d76040518060c00160405280855f01358152602001670de0b6b3a76400008152602001848152602001671bc16d674ec8000081526020018381526020014281525061090d565b7f68e79a7bf1e0bc45d0a330c573bc367f9cf464fd326078812f301165fbda4ef161057d816107f3565b61059461058f36849003840184611326565b61090d565b5050565b336001600160a01b037f000000000000000000000000000000000000000000000000000000000000000016146105e8576040516335fdcccd60e21b81523360048201526024015b60405180910390fd5b6105f96105f4826114b2565b6109d6565b50565b5f918252602082815260408084206001600160a01b0393909316845291905290205460ff1690565b5f8281526020819052604090206001015461063e816107f3565b61049e838361088c565b5f610652816107f3565b67ffffffffffffffff83165f8181526001602090815260409182902080546001600160a01b0319166001600160a01b0387169081179091558251938452908301527f43d4cac0d0efd1e788b7f333cd69733385d437001f7b40ff84fe72dcce4a076b910160405180910390a1505050565b7fe5dc15842997382f9911398120f58f8f315d99136edb19709641e83f1847582e6106ed816107f3565b81355f9081526004602052604090205460ff1615610721576040516398e35d9160e01b8152823560048201526024016105df565b81355f908152600260205260409020829061073c8282611237565b505081357f233db760130539e07c808edc7226cefc933733ec5955cdfca22faaa3160d9321610771604085016020860161155a565b604080516001600160a01b03909216825260a086013560208301520160405180910390a260a08201355f6107a98260408601356108f5565b905061049e6040518060c00160405280865f01358152602001670de0b6b3a76400008152602001848152602001671bc16d674ec8000081526020018381526020014281525061090d565b6105f98133610c9f565b5f61080883836105fc565b610885575f838152602081815260408083206001600160a01b03861684529091529020805460ff1916600117905561083d3390565b6001600160a01b0316826001600160a01b0316847f2f8788117e7eff1d82e926ec794901d17c78024a50270940304540a733656f0d60405160405180910390a4506001610474565b505f610474565b5f61089783836105fc565b15610885575f838152602081815260408083206001600160a01b0386168085529252808320805460ff1916905551339286917ff6391f5c32d9c69d2a47ea670b442974b53935d1edc7fd64eb21e047a839171b9190a4506001610474565b5f6109066109038484610cd8565b90565b9392505050565b80515f9081526004602052604090205460ff16156109445780516040516398e35d9160e01b815260048101919091526024016105df565b80515f908152600360208181526040928390208451808255828601516001830155848601516002830181905560608701519483018590556080870151600484015560a0870151600590930192909255845191825291810192909252917f68cb57a83c25d6d3e293d930fe02f94bb77cb0bdb735dc0819c34ad0824cdddc910160405180910390a280516105f990610ce6565b60208082015167ffffffffffffffff165f908152600190915260409020546001600160a01b031680610a2d5760208201516040516319dd1f4560e11b815267ffffffffffffffff90911660048201526024016105df565b5f8260400151806020019051810190610a469190611575565b9050816001600160a01b0316816001600160a01b031614610a85576040516334f6384160e11b81526001600160a01b03821660048201526024016105df565b826080015151600103610baf575f8360600151806020019051810190610aab9190611590565b90505f84608001515f81518110610ac457610ac46115a7565b60200260200101516020015190505f85608001515f81518110610ae957610ae96115a7565b6020908102919091010151519050610b2b6001600160a01b0382167f000000000000000000000000000000000000000000000000000000000000000084610ec1565b604051638a700b5360e01b815260048101849052602481018390527f00000000000000000000000000000000000000000000000000000000000000006001600160a01b031690638a700b53906044015f604051808303815f87803b158015610b91575f80fd5b505af1158015610ba3573d5f803e3d5ffd5b50505050505050505050565b5f610bbd8460600151610f3b565b80515f9081526004602052604090205490915060ff1615610bf75780516040516398e35d9160e01b815260048101919091526024016105df565b80515f908152600260208181526040928390208451808255828601516001830180546001600160a01b0319166001600160a01b0390921691821790558587015194830194909455606086015160038301556080860151600483015560a08601516005909201829055845193845291830152917f233db760130539e07c808edc7226cefc933733ec5955cdfca22faaa3160d9321910160405180910390a2805161049e90610ce6565b610ca982826105fc565b6105945760405163e2517d3f60e01b81526001600160a01b0382166004820152602481018390526044016105df565b5f6109066109038484610fb4565b5f818152600260208181526040808420815160c08082018452825482526001808401546001600160a01b0390811684880190815285890154858801526003808701546060808801919091526004808901546080808a01919091526005998a015460a0808b01919091528f8f52848d529d8b90208b519889018c5280548952968701549b88019b909b529a85015498860198909852830154968401969096529681015495820195909552939091015494830194909452519091161580610dad575060a0810151155b15610db757505050565b5f610dca826040015184604001516108f5565b5f85815260046020818152604092839020805460ff191660011790558601519151600162bf752d60e01b031981529081018790526001600160a01b039182166024820152604481018390529192507f0000000000000000000000000000000000000000000000000000000000000000169063ff408ad3906064015f604051808303815f87803b158015610e5b575f80fd5b505af1158015610e6d573d5f803e3d5ffd5b505050602080850151604080516001600160a01b0390921682529181018490528692507fc1bda25aeab7df257e19600fff8401591df7f59ca6ad74c397ffe6d12fc477e8910160405180910390a250505050565b610ecd8383835f611066565b6104d757610ede83835f6001611066565b610f0657604051635274afe760e01b81526001600160a01b03841660048201526024016105df565b610f138383836001611066565b6104d757604051635274afe760e01b81526001600160a01b03841660048201526024016105df565b610f776040518060c001604052805f81526020015f6001600160a01b031681526020015f81526020015f81526020015f81526020015f81525090565b81806020019051810190610f8b91906115bb565b60a08701526080860152606085015260408401526001600160a01b031660208301528152919050565b5f80805f19848609848602925082811083820303915050805f03610fe55750670de0b6b3a764000090049050610474565b670de0b6b3a7640000811061101757604051635173648d60e01b815260048101869052602481018590526044016105df565b5f670de0b6b3a764000085870962040000818503049310909103600160ee1b02919091177faccb18165bd6fe31ae1cf318dc5b51eee0e1ba569b88cd74c1773b91fac106690291505092915050565b60405163095ea7b360e01b5f8181526001600160a01b038616600452602485905291602083604481808b5af1925060015f511483166110bc5783831516156110b0573d5f823e3d81fd5b5f873b113d1516831692505b60405250949350505050565b5f602082840312156110d8575f80fd5b81356001600160e01b031981168114610906575f80fd5b5f602082840312156110ff575f80fd5b5035919050565b6001600160a01b03811681146105f9575f80fd5b5f806040838503121561112b575f80fd5b82359150602083013561113d81611106565b809150509250929050565b5f60c08284031215611158575f80fd5b50919050565b5f8060e0838503121561116f575f80fd5b6111798484611148565b9460c0939093013593505050565b803567ffffffffffffffff8116811461119e575f80fd5b919050565b5f602082840312156111b3575f80fd5b61090682611187565b5f60c082840312156111cc575f80fd5b6109068383611148565b5f602082840312156111e6575f80fd5b813567ffffffffffffffff8111156111fc575f80fd5b820160a08185031215610906575f80fd5b5f806040838503121561121e575f80fd5b61122783611187565b9150602083013561113d81611106565b8135815560018101602083013561124d81611106565b81546001600160a01b0319166001600160a01b039190911617905560408201356002820155606082013560038201556080820135600482015560a09190910135600590910155565b634e487b7160e01b5f52604160045260245ffd5b6040805190810167ffffffffffffffff811182821017156112cc576112cc611295565b60405290565b60405160a0810167ffffffffffffffff811182821017156112cc576112cc611295565b604051601f8201601f1916810167ffffffffffffffff8111828210171561131e5761131e611295565b604052919050565b5f60c08284031215611336575f80fd5b60405160c0810181811067ffffffffffffffff8211171561135957611359611295565b8060405250823581526020830135602082015260408301356040820152606083013560608201526080830135608082015260a083013560a08201528091505092915050565b5f82601f8301126113ad575f80fd5b813567ffffffffffffffff8111156113c7576113c7611295565b6113da601f8201601f19166020016112f5565b8181528460208386010111156113ee575f80fd5b816020850160208301375f918101602001919091529392505050565b5f82601f830112611419575f80fd5b8135602067ffffffffffffffff82111561143557611435611295565b611443818360051b016112f5565b82815260069290921b84018101918181019086841115611461575f80fd5b8286015b848110156114a7576040818903121561147c575f80fd5b6114846112a9565b813561148f81611106565b81528185013585820152835291830191604001611465565b509695505050505050565b5f60a082360312156114c2575f80fd5b6114ca6112d2565b823581526114da60208401611187565b6020820152604083013567ffffffffffffffff808211156114f9575f80fd5b6115053683870161139e565b6040840152606085013591508082111561151d575f80fd5b6115293683870161139e565b60608401526080850135915080821115611541575f80fd5b5061154e3682860161140a565b60808301525092915050565b5f6020828403121561156a575f80fd5b813561090681611106565b5f60208284031215611585575f80fd5b815161090681611106565b5f602082840312156115a0575f80fd5b5051919050565b634e487b7160e01b5f52603260045260245ffd5b5f805f805f8060c087890312156115d0575f80fd5b8651955060208701516115e281611106565b6040880151606089015160808a015160a0909a0151989b929a509098909790965094509250505056fea264697066735822122010a029e01a6506ee523aea1933e190b48b1d918e002783a30fe1275d5b4158f264736f6c63430008180033","linkReferences":{}},"methodIdentifiers":{"DEFAULT_ADMIN_ROLE()":"a217fddf","LOCAL_SPOKE_ROLE()":"9d0e0c77","ORACLE_ROLE()":"07e2cea5","authorizedSpokes(uint64)":"6c1c0a7f","ccipReceive((bytes32,uint64,bytes,bytes,(address,uint256)[]))":"85572ffb","getRoleAdmin(bytes32)":"248a9ca3","getRouter()":"b0f479a1","grantRole(bytes32,address)":"2f2ff15d","hasRole(bytes32,address)":"91d14854","liquidityPool()":"665a11ca","loanDisbursed(uint256)":"7d28a663","oracleValuations(uint256)":"7cc722d9","pendingRequests(uint256)":"3c652a9a","receiveLocalLoanRequest((uint256,address,uint256,uint256,uint256,uint256))":"dfed0e53","receiveLocalLoanRequestWithAIValue((uint256,address,uint256,uint256,uint256,uint256),uint256)":"66a489bc","receiveValuation((uint256,uint256,uint256,uint256,uint256,uint256))":"7736ad37","renounceRole(bytes32,address)":"36568abe","revokeRole(bytes32,address)":"d547741f","setAuthorizedSpoke(uint64,address)":"dc2b699c","supportsInterface(bytes4)":"01ffc9a7"},"id":100}