{"abi":[{"type":"constructor","inputs":[{"name":"_ccipRouter","type":"address","internalType":"address"},{"name":"_underlyingAsset","type":"address","internalType":"address"},{"name":"admin","type":"address","internalType":"address"},{"name":"_baseRate","type":"uint256","internalType":"uint256"},{"name":"_kink","type":"uint256","internalType":"uint256"},{"name":"_slope1","type":"uint256","internalType":"uint256"},{"name":"_slope2","type":"uint256","internalType":"uint256"},{"name":"_reserveFactor","type":"uint256","internalType":"uint256"}],"stateMutability":"nonpayable"},{"type":"function","name":"AUCTION_ROLE","inputs":[],"outputs":[{"name":"","type":"bytes32","internalType":"bytes32"}],"stateMutability":"view"},{"type":"function","name":"CCIP_RECEIVER_ROLE","inputs":[],"outputs":[{"name":"","type":"bytes32","internalType":"bytes32"}],"stateMutability":"view"},{"type":"function","name":"DEFAULT_ADMIN_ROLE","inputs":[],"outputs":[{"name":"","type":"bytes32","internalType":"bytes32"}],"stateMutability":"view"},{"type":"function","name":"GUARDIAN_ROLE","inputs":[],"outputs":[{"name":"","type":"bytes32","internalType":"bytes32"}],"stateMutability":"view"},{"type":"function","name":"acePolicyManager","inputs":[],"outputs":[{"name":"","type":"address","internalType":"contract ACEPolicyManager"}],"stateMutability":"view"},{"type":"function","name":"allowance","inputs":[{"name":"owner","type":"address","internalType":"address"},{"name":"spender","type":"address","internalType":"address"}],"outputs":[{"name":"","type":"uint256","internalType":"uint256"}],"stateMutability":"view"},{"type":"function","name":"approve","inputs":[{"name":"spender","type":"address","internalType":"address"},{"name":"value","type":"uint256","internalType":"uint256"}],"outputs":[{"name":"","type":"bool","internalType":"bool"}],"stateMutability":"nonpayable"},{"type":"function","name":"balanceOf","inputs":[{"name":"account","type":"address","internalType":"address"}],"outputs":[{"name":"","type":"uint256","internalType":"uint256"}],"stateMutability":"view"},{"type":"function","name":"baseRate","inputs":[],"outputs":[{"name":"","type":"uint256","internalType":"uint256"}],"stateMutability":"view"},{"type":"function","name":"borrowerSpoke","inputs":[],"outputs":[{"name":"","type":"address","internalType":"address"}],"stateMutability":"view"},{"type":"function","name":"categoryRateMultiplier","inputs":[{"name":"","type":"bytes32","internalType":"bytes32"}],"outputs":[{"name":"","type":"uint256","internalType":"uint256"}],"stateMutability":"view"},{"type":"function","name":"ccipReceive","inputs":[{"name":"message","type":"tuple","internalType":"struct Client.Any2EVMMessage","components":[{"name":"messageId","type":"bytes32","internalType":"bytes32"},{"name":"sourceChainSelector","type":"uint64","internalType":"uint64"},{"name":"sender","type":"bytes","internalType":"bytes"},{"name":"data","type":"bytes","internalType":"bytes"},{"name":"destTokenAmounts","type":"tuple[]","internalType":"struct Client.EVMTokenAmount[]","components":[{"name":"token","type":"address","internalType":"address"},{"name":"amount","type":"uint256","internalType":"uint256"}]}]}],"outputs":[],"stateMutability":"nonpayable"},{"type":"function","name":"complianceEnabled","inputs":[],"outputs":[{"name":"","type":"bool","internalType":"bool"}],"stateMutability":"view"},{"type":"function","name":"decimals","inputs":[],"outputs":[{"name":"","type":"uint8","internalType":"uint8"}],"stateMutability":"view"},{"type":"function","name":"deposit","inputs":[{"name":"amount","type":"uint256","internalType":"uint256"}],"outputs":[],"stateMutability":"nonpayable"},{"type":"function","name":"disburseLoan","inputs":[{"name":"vaultId","type":"uint256","internalType":"uint256"},{"name":"borrower","type":"address","internalType":"address"},{"name":"amount","type":"uint256","internalType":"uint256"}],"outputs":[],"stateMutability":"nonpayable"},{"type":"function","name":"getAvailableLiquidity","inputs":[],"outputs":[{"name":"","type":"uint256","internalType":"uint256"}],"stateMutability":"view"},{"type":"function","name":"getCategoryInterestRate","inputs":[{"name":"category","type":"bytes32","internalType":"bytes32"}],"outputs":[{"name":"rate","type":"uint256","internalType":"uint256"}],"stateMutability":"view"},{"type":"function","name":"getInterestRate","inputs":[],"outputs":[{"name":"","type":"uint256","internalType":"uint256"}],"stateMutability":"view"},{"type":"function","name":"getRoleAdmin","inputs":[{"name":"role","type":"bytes32","internalType":"bytes32"}],"outputs":[{"name":"","type":"bytes32","internalType":"bytes32"}],"stateMutability":"view"},{"type":"function","name":"getRouter","inputs":[],"outputs":[{"name":"","type":"address","internalType":"address"}],"stateMutability":"view"},{"type":"function","name":"getTotalBorrowed","inputs":[],"outputs":[{"name":"","type":"uint256","internalType":"uint256"}],"stateMutability":"view"},{"type":"function","name":"getTotalDeposits","inputs":[],"outputs":[{"name":"","type":"uint256","internalType":"uint256"}],"stateMutability":"view"},{"type":"function","name":"getUtilizationRate","inputs":[],"outputs":[{"name":"","type":"uint256","internalType":"uint256"}],"stateMutability":"view"},{"type":"function","name":"grantRole","inputs":[{"name":"role","type":"bytes32","internalType":"bytes32"},{"name":"account","type":"address","internalType":"address"}],"outputs":[],"stateMutability":"nonpayable"},{"type":"function","name":"hasRole","inputs":[{"name":"role","type":"bytes32","internalType":"bytes32"},{"name":"account","type":"address","internalType":"address"}],"outputs":[{"name":"","type":"bool","internalType":"bool"}],"stateMutability":"view"},{"type":"function","name":"kink","inputs":[],"outputs":[{"name":"","type":"uint256","internalType":"uint256"}],"stateMutability":"view"},{"type":"function","name":"lastAccrualTimestamp","inputs":[],"outputs":[{"name":"","type":"uint256","internalType":"uint256"}],"stateMutability":"view"},{"type":"function","name":"localBypass","inputs":[],"outputs":[{"name":"","type":"bool","internalType":"bool"}],"stateMutability":"view"},{"type":"function","name":"name","inputs":[],"outputs":[{"name":"","type":"string","internalType":"string"}],"stateMutability":"view"},{"type":"function","name":"pause","inputs":[],"outputs":[],"stateMutability":"nonpayable"},{"type":"function","name":"paused","inputs":[],"outputs":[{"name":"","type":"bool","internalType":"bool"}],"stateMutability":"view"},{"type":"function","name":"renounceRole","inputs":[{"name":"role","type":"bytes32","internalType":"bytes32"},{"name":"callerConfirmation","type":"address","internalType":"address"}],"outputs":[],"stateMutability":"nonpayable"},{"type":"function","name":"repayLoan","inputs":[{"name":"vaultId","type":"uint256","internalType":"uint256"},{"name":"amount","type":"uint256","internalType":"uint256"}],"outputs":[],"stateMutability":"nonpayable"},{"type":"function","name":"reserveFactor","inputs":[],"outputs":[{"name":"","type":"uint256","internalType":"uint256"}],"stateMutability":"view"},{"type":"function","name":"revokeRole","inputs":[{"name":"role","type":"bytes32","internalType":"bytes32"},{"name":"account","type":"address","internalType":"address"}],"outputs":[],"stateMutability":"nonpayable"},{"type":"function","name":"setACEPolicyManager","inputs":[{"name":"_acePolicyManager","type":"address","internalType":"address"}],"outputs":[],"stateMutability":"nonpayable"},{"type":"function","name":"setCategoryRateMultiplier","inputs":[{"name":"category","type":"bytes32","internalType":"bytes32"},{"name":"multiplier","type":"uint256","internalType":"uint256"}],"outputs":[],"stateMutability":"nonpayable"},{"type":"function","name":"setInterestRateParams","inputs":[{"name":"_baseRate","type":"uint256","internalType":"uint256"},{"name":"_kink","type":"uint256","internalType":"uint256"},{"name":"_slope1","type":"uint256","internalType":"uint256"},{"name":"_slope2","type":"uint256","internalType":"uint256"}],"outputs":[],"stateMutability":"nonpayable"},{"type":"function","name":"setLocalBypass","inputs":[{"name":"_spoke","type":"address","internalType":"address"},{"name":"_enabled","type":"bool","internalType":"bool"}],"outputs":[],"stateMutability":"nonpayable"},{"type":"function","name":"setReserveFactor","inputs":[{"name":"_reserveFactor","type":"uint256","internalType":"uint256"}],"outputs":[],"stateMutability":"nonpayable"},{"type":"function","name":"slope1","inputs":[],"outputs":[{"name":"","type":"uint256","internalType":"uint256"}],"stateMutability":"view"},{"type":"function","name":"slope2","inputs":[],"outputs":[{"name":"","type":"uint256","internalType":"uint256"}],"stateMutability":"view"},{"type":"function","name":"socializeBadDebt","inputs":[{"name":"amount","type":"uint256","internalType":"uint256"}],"outputs":[],"stateMutability":"nonpayable"},{"type":"function","name":"supportsInterface","inputs":[{"name":"interfaceId","type":"bytes4","internalType":"bytes4"}],"outputs":[{"name":"","type":"bool","internalType":"bool"}],"stateMutability":"pure"},{"type":"function","name":"symbol","inputs":[],"outputs":[{"name":"","type":"string","internalType":"string"}],"stateMutability":"view"},{"type":"function","name":"totalBadDebt","inputs":[],"outputs":[{"name":"","type":"uint256","internalType":"uint256"}],"stateMutability":"view"},{"type":"function","name":"totalBorrowed","inputs":[],"outputs":[{"name":"","type":"uint256","internalType":"uint256"}],"stateMutability":"view"},{"type":"function","name":"totalDeposited","inputs":[],"outputs":[{"name":"","type":"uint256","internalType":"uint256"}],"stateMutability":"view"},{"type":"function","name":"totalReserves","inputs":[],"outputs":[{"name":"","type":"uint256","internalType":"uint256"}],"stateMutability":"view"},{"type":"function","name":"totalSupply","inputs":[],"outputs":[{"name":"","type":"uint256","internalType":"uint256"}],"stateMutability":"view"},{"type":"function","name":"transfer","inputs":[{"name":"to","type":"address","internalType":"address"},{"name":"value","type":"uint256","internalType":"uint256"}],"outputs":[{"name":"","type":"bool","internalType":"bool"}],"stateMutability":"nonpayable"},{"type":"function","name":"transferFrom","inputs":[{"name":"from","type":"address","internalType":"address"},{"name":"to","type":"address","internalType":"address"},{"name":"value","type":"uint256","internalType":"uint256"}],"outputs":[{"name":"","type":"bool","internalType":"bool"}],"stateMutability":"nonpayable"},{"type":"function","name":"underlyingAsset","inputs":[],"outputs":[{"name":"","type":"address","internalType":"contract IERC20"}],"stateMutability":"view"},{"type":"function","name":"unpause","inputs":[],"outputs":[],"stateMutability":"nonpayable"},{"type":"function","name":"vaultDebt","inputs":[{"name":"","type":"uint256","internalType":"uint256"}],"outputs":[{"name":"","type":"uint256","internalType":"uint256"}],"stateMutability":"view"},{"type":"function","name":"withdraw","inputs":[{"name":"shares","type":"uint256","internalType":"uint256"}],"outputs":[],"stateMutability":"nonpayable"},{"type":"function","name":"withdrawReserves","inputs":[{"name":"amount18","type":"uint256","internalType":"uint256"},{"name":"to","type":"address","internalType":"address"}],"outputs":[],"stateMutability":"nonpayable"},{"type":"event","name":"Approval","inputs":[{"name":"owner","type":"address","indexed":true,"internalType":"address"},{"name":"spender","type":"address","indexed":true,"internalType":"address"},{"name":"value","type":"uint256","indexed":false,"internalType":"uint256"}],"anonymous":false},{"type":"event","name":"Deposited","inputs":[{"name":"lender","type":"address","indexed":true,"internalType":"address"},{"name":"amount","type":"uint256","indexed":false,"internalType":"uint256"},{"name":"shares","type":"uint256","indexed":false,"internalType":"uint256"}],"anonymous":false},{"type":"event","name":"InterestAccrued","inputs":[{"name":"totalInterest","type":"uint256","indexed":false,"internalType":"uint256"},{"name":"reserveAmount","type":"uint256","indexed":false,"internalType":"uint256"}],"anonymous":false},{"type":"event","name":"LoanDisbursed","inputs":[{"name":"vaultId","type":"uint256","indexed":true,"internalType":"uint256"},{"name":"borrower","type":"address","indexed":true,"internalType":"address"},{"name":"amount","type":"uint256","indexed":false,"internalType":"uint256"}],"anonymous":false},{"type":"event","name":"LoanRepaid","inputs":[{"name":"vaultId","type":"uint256","indexed":true,"internalType":"uint256"},{"name":"amount","type":"uint256","indexed":false,"internalType":"uint256"},{"name":"interest","type":"uint256","indexed":false,"internalType":"uint256"}],"anonymous":false},{"type":"event","name":"Paused","inputs":[{"name":"account","type":"address","indexed":false,"internalType":"address"}],"anonymous":false},{"type":"event","name":"RoleAdminChanged","inputs":[{"name":"role","type":"bytes32","indexed":true,"internalType":"bytes32"},{"name":"previousAdminRole","type":"bytes32","indexed":true,"internalType":"bytes32"},{"name":"newAdminRole","type":"bytes32","indexed":true,"internalType":"bytes32"}],"anonymous":false},{"type":"event","name":"RoleGranted","inputs":[{"name":"role","type":"bytes32","indexed":true,"internalType":"bytes32"},{"name":"account","type":"address","indexed":true,"internalType":"address"},{"name":"sender","type":"address","indexed":true,"internalType":"address"}],"anonymous":false},{"type":"event","name":"RoleRevoked","inputs":[{"name":"role","type":"bytes32","indexed":true,"internalType":"bytes32"},{"name":"account","type":"address","indexed":true,"internalType":"address"},{"name":"sender","type":"address","indexed":true,"internalType":"address"}],"anonymous":false},{"type":"event","name":"Transfer","inputs":[{"name":"from","type":"address","indexed":true,"internalType":"address"},{"name":"to","type":"address","indexed":true,"internalType":"address"},{"name":"value","type":"uint256","indexed":false,"internalType":"uint256"}],"anonymous":false},{"type":"event","name":"Unpaused","inputs":[{"name":"account","type":"address","indexed":false,"internalType":"address"}],"anonymous":false},{"type":"event","name":"Withdrawn","inputs":[{"name":"lender","type":"address","indexed":true,"internalType":"address"},{"name":"amount","type":"uint256","indexed":false,"internalType":"uint256"},{"name":"shares","type":"uint256","indexed":false,"internalType":"uint256"}],"anonymous":false},{"type":"error","name":"AccessControlBadConfirmation","inputs":[]},{"type":"error","name":"AccessControlUnauthorizedAccount","inputs":[{"name":"account","type":"address","internalType":"address"},{"name":"neededRole","type":"bytes32","internalType":"bytes32"}]},{"type":"error","name":"ERC20InsufficientAllowance","inputs":[{"name":"spender","type":"address","internalType":"address"},{"name":"allowance","type":"uint256","internalType":"uint256"},{"name":"needed","type":"uint256","internalType":"uint256"}]},{"type":"error","name":"ERC20InsufficientBalance","inputs":[{"name":"sender","type":"address","internalType":"address"},{"name":"balance","type":"uint256","internalType":"uint256"},{"name":"needed","type":"uint256","internalType":"uint256"}]},{"type":"error","name":"ERC20InvalidApprover","inputs":[{"name":"approver","type":"address","internalType":"address"}]},{"type":"error","name":"ERC20InvalidReceiver","inputs":[{"name":"receiver","type":"address","internalType":"address"}]},{"type":"error","name":"ERC20InvalidSender","inputs":[{"name":"sender","type":"address","internalType":"address"}]},{"type":"error","name":"ERC20InvalidSpender","inputs":[{"name":"spender","type":"address","internalType":"address"}]},{"type":"error","name":"EnforcedPause","inputs":[]},{"type":"error","name":"ExpectedPause","inputs":[]},{"type":"error","name":"InsufficientLiquidity","inputs":[{"name":"requested","type":"uint256","internalType":"uint256"},{"name":"available","type":"uint256","internalType":"uint256"}]},{"type":"error","name":"InsufficientShares","inputs":[{"name":"requested","type":"uint256","internalType":"uint256"},{"name":"available","type":"uint256","internalType":"uint256"}]},{"type":"error","name":"InvalidCCIPMessage","inputs":[]},{"type":"error","name":"InvalidRouter","inputs":[{"name":"router","type":"address","internalType":"address"}]},{"type":"error","name":"NotCompliant","inputs":[{"name":"wallet","type":"address","internalType":"address"}]},{"type":"error","name":"PRBMath_MulDiv18_Overflow","inputs":[{"name":"x","type":"uint256","internalType":"uint256"},{"name":"y","type":"uint256","internalType":"uint256"}]},{"type":"error","name":"ReentrancyGuardReentrantCall","inputs":[]},{"type":"error","name":"SafeERC20FailedOperation","inputs":[{"name":"token","type":"address","internalType":"address"}]},{"type":"error","name":"VaultDebtNotFound","inputs":[{"name":"vaultId","type":"uint256","internalType":"uint256"}]},{"type":"error","name":"ZeroAmount","inputs":[]}],"bytecode":{"object":"0x60c060405234801562000010575f80fd5b5060405162002b3b38038062002b3b833981016040819052620000339162000253565b876040518060400160405280601381526020017f50726564696374696f6e20426f782055534443000000000000000000000000008152506040518060400160405280600681526020016570625553444360d01b81525081600390816200009a919062000367565b506004620000a9828262000367565b5050506001620000c5620000c26200016360201b60201c565b90565b556001600160a01b038116620000f4576040516335fdcccd60e21b81525f600482015260240160405180910390fd5b6001600160a01b03908116608052871660a052620001135f8762000187565b50620001407f55435dd261a4b9b3364963f7738a7a662ad9c84396d64be3365284bb7f0a50418762000187565b50600b94909455600c92909255600d55600e55600f55505042600a555062000433565b7f9b779b17422d0df92223018b32b4d1fa46e071723d6817e2486d003becc55f0090565b5f8281526005602090815260408083206001600160a01b038516845290915281205460ff166200022e575f8381526005602090815260408083206001600160a01b03861684529091529020805460ff19166001179055620001e53390565b6001600160a01b0316826001600160a01b0316847f2f8788117e7eff1d82e926ec794901d17c78024a50270940304540a733656f0d60405160405180910390a450600162000231565b505f5b92915050565b80516001600160a01b03811681146200024e575f80fd5b919050565b5f805f805f805f80610100898b0312156200026c575f80fd5b620002778962000237565b97506200028760208a0162000237565b96506200029760408a0162000237565b9550606089015194506080890151935060a0890151925060c0890151915060e089015190509295985092959890939650565b634e487b7160e01b5f52604160045260245ffd5b600181811c90821680620002f257607f821691505b6020821081036200031157634e487b7160e01b5f52602260045260245ffd5b50919050565b601f8211156200036257805f5260205f20601f840160051c810160208510156200033e5750805b601f840160051c820191505b818110156200035f575f81556001016200034a565b50505b505050565b81516001600160401b03811115620003835762000383620002c9565b6200039b81620003948454620002dd565b8462000317565b602080601f831160018114620003d1575f8415620003b95750858301515b5f19600386901b1c1916600185901b1785556200042b565b5f85815260208120601f198616915b828110156200040157888601518255948401946001909101908401620003e0565b50858210156200041f57878501515f19600388901b60f8161c191681555b505060018460011b0185555b505050505050565b60805160a0516126ae6200048d5f395f81816105ea01528181610b1b01528181610e14015281816110550152818161116f0152818161129c0152818161146001526119b701525f818161069e0152610d0501526126ae5ff3fe608060405234801561000f575f80fd5b506004361061037d575f3560e01c80636857ce28116101d4578063b0f479a111610109578063d3f9615a116100a9578063f908cdad11610079578063f908cdad146107b7578063fd2da339146107ca578063ff408ad3146107d3578063ff50abdc146107e6575f80fd5b8063d3f9615a1461074c578063d547741f1461075f578063d83c827014610772578063dd62ed3e1461077f575f80fd5b8063c0789dcb116100e4578063c0789dcb146106fc578063c90f70d114610705578063d0134cb714610724578063d310f49b1461072d575f80fd5b8063b0f479a11461069c578063b6b55f25146106c2578063b7b6b86a146106d5575f80fd5b806391d1485411610174578063a217fddf1161014f578063a217fddf14610666578063a62b75a81461066d578063a9059cbb14610676578063ab37994914610689575f80fd5b806391d148541461064357806395d89b41146106565780639b745aec1461065e575f80fd5b80638456cb59116101af5780638456cb591461060c57806385572ffb146106145780638a700b53146106275780638f840ddd1461063a575f80fd5b80636857ce28146105aa57806370a08231146105bd5780637158da7c146105e5575f80fd5b80632e1a7d4d116102b55780634322b714116102555780634c19386c116102255780634c19386c1461057a5780634c6c3a5f146105835780635257b566146105975780635c975abb1461059f575f80fd5b80634322b7141461053057806347278d67146105395780634986bd50146105695780634a417a5314610572575f80fd5b806336568abe1161029057806336568abe146104db5780633b458c01146104ee5780633f4ba83a14610501578063430730a314610509575f80fd5b80632e1a7d4d146104a65780632f2ff15d146104b9578063313ce567146104cc575f80fd5b8063168a4822116103205780631f68f20a116102fb5780631f68f20a1461044157806323b872dd1461044a578063248a9ca31461045d57806324ea54f41461047f575f80fd5b8063168a48221461041e57806318160ddd146104265780631c4469831461042e575f80fd5b8063095ea7b31161035b578063095ea7b3146103d05780630f65ed80146103e357806310308cea146103f8578063140a54d71461040b575f80fd5b806301ffc9a7146103815780630307c4a1146103a957806306fdde03146103bb575b5f80fd5b61039461038f36600461206b565b6107ef565b60405190151581526020015b60405180910390f35b6008545b6040519081526020016103a0565b6103c3610840565b6040516103a091906120b4565b6103946103de3660046120fa565b6108d0565b6103f66103f1366004612124565b6108e7565b005b6103f6610406366004612148565b61097d565b6103f661041936600461217f565b6109b5565b6007546103ad565b6002546103ad565b6103f661043c366004612124565b6109e8565b6103ad600b5481565b61039461045836600461219a565b6109f8565b6103ad61046b366004612124565b5f9081526005602052604090206001015490565b6103ad7f55435dd261a4b9b3364963f7738a7a662ad9c84396d64be3365284bb7f0a504181565b6103f66104b4366004612124565b610a1b565b6103f66104c73660046121d8565b610b99565b604051601281526020016103a0565b6103f66104e93660046121d8565b610bc3565b6103f66104fc3660046121fb565b610bfb565b6103f6610c1a565b6103ad7fc5e2d1653feba496cf5ce3a744b90ea18acf0df3d036aba9b2f85992a146790681565b6103ad600f5481565b6011546105519061010090046001600160a01b031681565b6040516001600160a01b0390911681526020016103a0565b6103ad60135481565b6103ad610c2c565b6103ad60085481565b60145461039490600160a01b900460ff1681565b6103ad610c62565b60065460ff16610394565b6103ad6105b8366004612124565b610c7f565b6103ad6105cb36600461217f565b6001600160a01b03165f9081526020819052604090205490565b6105517f000000000000000000000000000000000000000000000000000000000000000081565b6103f6610cc8565b6103f661062236600461222a565b610cfa565b6103f6610635366004612261565b610d56565b6103ad60095481565b6103946106513660046121d8565b610ffb565b6103c3611025565b6103ad611034565b6103ad5f81565b6103ad600d5481565b6103946106843660046120fa565b6110f1565b6103f66106973660046121d8565b6110fe565b7f0000000000000000000000000000000000000000000000000000000000000000610551565b6103f66106d0366004612124565b611196565b6103ad7f40c9f3039121156094d205fc9e8752882a377a6f1b16a7d618e028e52897bc3881565b6103ad600a5481565b6103ad610713366004612124565b60126020525f908152604090205481565b6103ad600e5481565b6103ad61073b366004612124565b60106020525f908152604090205481565b601454610551906001600160a01b031681565b6103f661076d3660046121d8565b611338565b6011546103949060ff1681565b6103ad61078d366004612281565b6001600160a01b039182165f90815260016020908152604080832093909416825291909152205490565b6103f66107c5366004612261565b61135c565b6103ad600c5481565b6103f66107e13660046122ad565b611378565b6103ad60075481565b5f6001600160e01b031982166385572ffb60e01b148061081f57506001600160e01b03198216637965db0b60e01b145b8061083a57506001600160e01b031982166301ffc9a760e01b145b92915050565b60606003805461084f906122d1565b80601f016020809104026020016040519081016040528092919081815260200182805461087b906122d1565b80156108c65780601f1061089d576101008083540402835291602001916108c6565b820191905f5260205f20905b8154815290600101906020018083116108a957829003601f168201915b5050505050905090565b5f336108dd8185856114e3565b5060019392505050565b7fc5e2d1653feba496cf5ce3a744b90ea18acf0df3d036aba9b2f85992a1467906610911816114f0565b6007548210610923575f60075561093a565b8160075f8282546109349190612317565b90915550505b600854821061094c575f600855610963565b8160085f82825461095d9190612317565b90915550505b8160135f828254610974919061232a565b90915550505050565b5f610987816114f0565b5060148054911515600160a01b026001600160a81b03199092166001600160a01b0390931692909217179055565b5f6109bf816114f0565b50601180546001600160a01b0390921661010002610100600160a81b0319909216919091179055565b5f6109f2816114f0565b50600f55565b5f33610a058582856114fa565b610a10858585611570565b506001949350505050565b610a236115cd565b805f03610a4357604051631f2a200560e01b815260040160405180910390fd5b335f90815260208190526040902054811115610a9157335f90815260208190526040902054819060405163658ec5dd60e11b8152600481019290925260248201526044015b60405180910390fd5b610a996115eb565b5f610aa3826116e1565b90505f610aae611034565b905080821115610adb5760405163a17e11d560e01b81526004810183905260248101829052604401610a88565b8160075f828254610aec9190612317565b90915550610afc9050338461170c565b5f610b0c64e8d4a510008461233d565b9050610b426001600160a01b037f0000000000000000000000000000000000000000000000000000000000000000163383611740565b604080518481526020810186905233917f92ccf450a286a957af52509bc1c9939d1a6a481783e142e41e2499f0bb66ebc6910160405180910390a2505050610b9660015f8051602061265983398151915255565b50565b5f82815260056020526040902060010154610bb3816114f0565b610bbd8383611775565b50505050565b6001600160a01b0381163314610bec5760405163334bd91960e11b815260040160405180910390fd5b610bf68282611806565b505050565b5f610c05816114f0565b50600b93909355600c91909155600d55600e55565b5f610c24816114f0565b610b96611871565b5f6007545f03610c3b57505f90565b600754600854610c5390670de0b6b3a764000061235c565b610c5d919061233d565b905090565b5f610c5d610c6e610c2c565b600b54600c54600d54600e546118c3565b5f610c8b610c6e610c2c565b5f838152601260205260409020549091508015610cc257670de0b6b3a7640000610cb5828461235c565b610cbf919061233d565b91505b50919050565b7f55435dd261a4b9b3364963f7738a7a662ad9c84396d64be3365284bb7f0a5041610cf2816114f0565b610b96611931565b336001600160a01b037f00000000000000000000000000000000000000000000000000000000000000001614610d45576040516335fdcccd60e21b8152336004820152602401610a88565b610b96610d5182612534565b61196e565b610d5e6115cd565b805f03610d7e57604051631f2a200560e01b815260040160405180910390fd5b5f828152601060205260408120549003610dae5760405163e9cedf9760e01b815260048101839052602401610a88565b610db66115eb565b5f610dc68264e8d4a5100061235c565b5f84815260106020526040812054919250908211610de45781610df3565b5f848152601060205260409020545b90505f610e0564e8d4a510008361233d565b9050610e3c6001600160a01b037f000000000000000000000000000000000000000000000000000000000000000016333084611b8f565b5f85815260106020526040812054841115610e6c575f86815260106020526040902054610e699085612317565b90505b8260085f828254610e7d9190612317565b90915550505f8681526010602052604081208054859290610e9f908490612317565b9091555050601454600160a01b900460ff168015610ec757506014546001600160a01b031615155b15610f675760145460405160248101889052604481018590525f916001600160a01b03169060640160408051601f198184030181529181526020820180516001600160e01b03166305a8b53360e11b17905251610f2491906125dc565b5f604051808303815f865af19150503d805f8114610f5d576040519150601f19603f3d011682016040523d82523d5f602084013e610f62565b606091505b505050505b5f670de0b6b3a7640000600f5483610f7f919061235c565b610f89919061233d565b90508060095f828254610f9c919061232a565b9091555050604080518581526020810184905288917fd9cfbcfb9ae5d65b8d34072de4575f602ee25cf3715bc05c291701fe9e258f9a910160405180910390a25050505050610ff760015f8051602061265983398151915255565b5050565b5f9182526005602090815260408084206001600160a01b0393909316845291905290205460ff1690565b60606004805461084f906122d1565b6040516370a0823160e01b81523060048201525f9081906001600160a01b037f000000000000000000000000000000000000000000000000000000000000000016906370a0823190602401602060405180830381865afa15801561109a573d5f803e3d5ffd5b505050506040513d601f19601f820116820180604052508101906110be91906125f7565b6110cd9064e8d4a5100061235c565b905060095481116110de575f6110eb565b6009546110eb9082612317565b91505090565b5f336108dd818585611570565b5f611108816114f0565b6009548311156111395760095460405163a17e11d560e01b8152610a88918591600401918252602082015260400190565b8260095f82825461114a9190612317565b909155505f905061116064e8d4a510008561233d565b9050610bbd6001600160a01b037f0000000000000000000000000000000000000000000000000000000000000000168483611740565b61119e611bc5565b6111a66115cd565b805f036111c657604051631f2a200560e01b815260040160405180910390fd5b60115461010090046001600160a01b03161561126957601154604051632c289dcf60e01b81523360048201526101009091046001600160a01b031690632c289dcf90602401602060405180830381865afa158015611226573d5f803e3d5ffd5b505050506040513d601f19601f8201168201806040525081019061124a919061260e565b61126957604051630abef54160e31b8152336004820152602401610a88565b6112716115eb565b5f6112818264e8d4a5100061235c565b90505f61128d82611beb565b90506112c46001600160a01b037f000000000000000000000000000000000000000000000000000000000000000016333086611b8f565b8160075f8282546112d5919061232a565b909155506112e590503382611c1e565b604080518381526020810183905233917f73a19dd210f1a7f902193214c0ee91dd35ee5b4d920cba8d519eca65a7b488ca910160405180910390a25050610b9660015f8051602061265983398151915255565b5f82815260056020526040902060010154611352816114f0565b610bbd8383611806565b5f611366816114f0565b505f9182526012602052604090912055565b7f40c9f3039121156094d205fc9e8752882a377a6f1b16a7d618e028e52897bc386113a2816114f0565b6113aa6115cd565b815f036113ca57604051631f2a200560e01b815260040160405180910390fd5b5f6113d3611034565b9050808311156114005760405163a17e11d560e01b81526004810184905260248101829052604401610a88565b6114086115eb565b8260085f828254611419919061232a565b90915550505f858152601060205260408120805485929061143b90849061232a565b909155505f905061145164e8d4a510008561233d565b90506114876001600160a01b037f0000000000000000000000000000000000000000000000000000000000000000168683611740565b846001600160a01b0316867f0ceeb4503a2fe0b51298a0af21358f3d89e7eab3f65ae2a7835859c3e2c51604866040516114c391815260200190565b60405180910390a35050610bbd60015f8051602061265983398151915255565b610bf68383836001611c52565b610b968133611d24565b6001600160a01b038381165f908152600160209081526040808320938616835292905220545f19811015610bbd578181101561156257604051637dc7a0d960e11b81526001600160a01b03841660048201526024810182905260448101839052606401610a88565b610bbd84848484035f611c52565b6001600160a01b03831661159957604051634b637e8f60e11b81525f6004820152602401610a88565b6001600160a01b0382166115c25760405163ec442f0560e01b81525f6004820152602401610a88565b610bf6838383611d5d565b6115d5611e83565b60025f8051602061265983398151915255565b90565b5f600a54426115fa9190612317565b9050805f036116065750565b5f611612610c6e610c2c565b90505f6a1a1601fc4ea7109e0000008383600854611630919061235c565b61163a919061235c565b611644919061233d565b905080156116d8578060085f82825461165d919061232a565b9091555050600f545f90670de0b6b3a76400009061167b908461235c565b611685919061233d565b90508060095f828254611698919061232a565b909155505060408051838152602081018390527f3d8708181c6452c5711a2b4c6ed3f12149f6ea35f78549aba00a89d041e766ca910160405180910390a1505b505042600a5550565b5f806116ec60025490565b9050805f036116fd57505f92915050565b8060075484610cb5919061235c565b6001600160a01b03821661173557604051634b637e8f60e11b81525f6004820152602401610a88565b610ff7825f83611d5d565b61174d8383836001611eb2565b610bf657604051635274afe760e01b81526001600160a01b0384166004820152602401610a88565b5f6117808383610ffb565b6117ff575f8381526005602090815260408083206001600160a01b03861684529091529020805460ff191660011790556117b73390565b6001600160a01b0316826001600160a01b0316847f2f8788117e7eff1d82e926ec794901d17c78024a50270940304540a733656f0d60405160405180910390a450600161083a565b505f61083a565b5f6118118383610ffb565b156117ff575f8381526005602090815260408083206001600160a01b0386168085529252808320805460ff1916905551339286917ff6391f5c32d9c69d2a47ea670b442974b53935d1edc7fd64eb21e047a839171b9190a450600161083a565b611879611f14565b6006805460ff191690557f5db9ee0a495bf2e6ff9c91a7834c1ba4fdd244a5e8aa4e537bd38aeae4b073aa335b6040516001600160a01b03909116815260200160405180910390a1565b5f8386116118e9576118d86115e88785611f37565b6118e2908661232a565b9050611928565b5f6118f86115e8865b86611f37565b90505f61190c6115e86118f281898c612317565b905080611919838961232a565b611923919061232a565b925050505b95945050505050565b611939611bc5565b6006805460ff191660011790557f62e78cea01bee320cd4e420270b5ea74000d11b0c9f74754ebdbfc544b05a2586118a63390565b80608001515160011461199457604051634acbbb9d60e11b815260040160405180910390fd5b5f81608001515f815181106119ab576119ab612629565b602002602001015190507f00000000000000000000000000000000000000000000000000000000000000006001600160a01b0316815f01516001600160a01b031614611a0a57604051634acbbb9d60e11b815260040160405180910390fd5b60208101515f819003611a3057604051631f2a200560e01b815260040160405180910390fd5b5f611a408264e8d4a5100061235c565b90505f8460600151806020019051810190611a5b919061263d565b60115490915061010090046001600160a01b031615611b0e57601154604051632c289dcf60e01b81526001600160a01b03838116600483015261010090920490911690632c289dcf90602401602060405180830381865afa158015611ac2573d5f803e3d5ffd5b505050506040513d601f19601f82011682018060405250810190611ae6919061260e565b611b0e57604051630abef54160e31b81526001600160a01b0382166004820152602401610a88565b611b166115eb565b5f611b2083611beb565b90508260075f828254611b33919061232a565b90915550611b4390508282611c1e565b60408051848152602081018390526001600160a01b038416917f73a19dd210f1a7f902193214c0ee91dd35ee5b4d920cba8d519eca65a7b488ca910160405180910390a2505050505050565b611b9d848484846001611f4c565b610bbd57604051635274afe760e01b81526001600160a01b0385166004820152602401610a88565b60065460ff1615611be95760405163d93c066560e01b815260040160405180910390fd5b565b5f80611bf660025490565b9050801580611c055750600754155b15611c11575090919050565b600754610cb5828561235c565b6001600160a01b038216611c475760405163ec442f0560e01b81525f6004820152602401610a88565b610ff75f8383611d5d565b6001600160a01b038416611c7b5760405163e602df0560e01b81525f6004820152602401610a88565b6001600160a01b038316611ca457604051634a1406b160e11b81525f6004820152602401610a88565b6001600160a01b038085165f9081526001602090815260408083209387168352929052208290558015610bbd57826001600160a01b0316846001600160a01b03167f8c5be1e5ebec7d5bd14f71427d1e84f3dd0314c0f7b2291e5b200ac8c7c3b92584604051611d1691815260200190565b60405180910390a350505050565b611d2e8282610ffb565b610ff75760405163e2517d3f60e01b81526001600160a01b038216600482015260248101839052604401610a88565b6001600160a01b038316611d87578060025f828254611d7c919061232a565b90915550611df79050565b6001600160a01b0383165f9081526020819052604090205481811015611dd95760405163391434e360e21b81526001600160a01b03851660048201526024810182905260448101839052606401610a88565b6001600160a01b0384165f9081526020819052604090209082900390555b6001600160a01b038216611e1357600280548290039055611e31565b6001600160a01b0382165f9081526020819052604090208054820190555b816001600160a01b0316836001600160a01b03167fddf252ad1be2c89b69c2b068fc378daa952ba7f163c4a11628f55a4df523b3ef83604051611e7691815260200190565b60405180910390a3505050565b5f8051602061265983398151915254600203611be957604051633ee5aeb560e01b815260040160405180910390fd5b60405163a9059cbb60e01b5f8181526001600160a01b038616600452602485905291602083604481808b5af1925060015f51148316611f08578383151615611efc573d5f823e3d81fd5b5f873b113d1516831692505b60405250949350505050565b60065460ff16611be957604051638dfc202b60e01b815260040160405180910390fd5b5f611f456115e88484611fb9565b9392505050565b6040516323b872dd60e01b5f8181526001600160a01b038781166004528616602452604485905291602083606481808c5af1925060015f51148316611fa8578383151615611f9c573d5f823e3d81fd5b5f883b113d1516831692505b604052505f60605295945050505050565b5f80805f19848609848602925082811083820303915050805f03611fea5750670de0b6b3a76400009004905061083a565b670de0b6b3a7640000811061201c57604051635173648d60e01b81526004810186905260248101859052604401610a88565b5f670de0b6b3a764000085870962040000818503049310909103600160ee1b02919091177faccb18165bd6fe31ae1cf318dc5b51eee0e1ba569b88cd74c1773b91fac106690291505092915050565b5f6020828403121561207b575f80fd5b81356001600160e01b031981168114611f45575f80fd5b5f5b838110156120ac578181015183820152602001612094565b50505f910152565b602081525f82518060208401526120d2816040850160208701612092565b601f01601f19169190910160400192915050565b6001600160a01b0381168114610b96575f80fd5b5f806040838503121561210b575f80fd5b8235612116816120e6565b946020939093013593505050565b5f60208284031215612134575f80fd5b5035919050565b8015158114610b96575f80fd5b5f8060408385031215612159575f80fd5b8235612164816120e6565b915060208301356121748161213b565b809150509250929050565b5f6020828403121561218f575f80fd5b8135611f45816120e6565b5f805f606084860312156121ac575f80fd5b83356121b7816120e6565b925060208401356121c7816120e6565b929592945050506040919091013590565b5f80604083850312156121e9575f80fd5b823591506020830135612174816120e6565b5f805f806080858703121561220e575f80fd5b5050823594602084013594506040840135936060013592509050565b5f6020828403121561223a575f80fd5b813567ffffffffffffffff811115612250575f80fd5b820160a08185031215611f45575f80fd5b5f8060408385031215612272575f80fd5b50508035926020909101359150565b5f8060408385031215612292575f80fd5b823561229d816120e6565b91506020830135612174816120e6565b5f805f606084860312156122bf575f80fd5b8335925060208401356121c7816120e6565b600181811c908216806122e557607f821691505b602082108103610cc257634e487b7160e01b5f52602260045260245ffd5b634e487b7160e01b5f52601160045260245ffd5b8181038181111561083a5761083a612303565b8082018082111561083a5761083a612303565b5f8261235757634e487b7160e01b5f52601260045260245ffd5b500490565b808202811582820484141761083a5761083a612303565b634e487b7160e01b5f52604160045260245ffd5b6040805190810167ffffffffffffffff811182821017156123aa576123aa612373565b60405290565b60405160a0810167ffffffffffffffff811182821017156123aa576123aa612373565b604051601f8201601f1916810167ffffffffffffffff811182821017156123fc576123fc612373565b604052919050565b803567ffffffffffffffff8116811461241b575f80fd5b919050565b5f82601f83011261242f575f80fd5b813567ffffffffffffffff81111561244957612449612373565b61245c601f8201601f19166020016123d3565b818152846020838601011115612470575f80fd5b816020850160208301375f918101602001919091529392505050565b5f82601f83011261249b575f80fd5b8135602067ffffffffffffffff8211156124b7576124b7612373565b6124c5818360051b016123d3565b82815260069290921b840181019181810190868411156124e3575f80fd5b8286015b8481101561252957604081890312156124fe575f80fd5b612506612387565b8135612511816120e6565b815281850135858201528352918301916040016124e7565b509695505050505050565b5f60a08236031215612544575f80fd5b61254c6123b0565b8235815261255c60208401612404565b6020820152604083013567ffffffffffffffff8082111561257b575f80fd5b61258736838701612420565b6040840152606085013591508082111561259f575f80fd5b6125ab36838701612420565b606084015260808501359150808211156125c3575f80fd5b506125d03682860161248c565b60808301525092915050565b5f82516125ed818460208701612092565b9190910192915050565b5f60208284031215612607575f80fd5b5051919050565b5f6020828403121561261e575f80fd5b8151611f458161213b565b634e487b7160e01b5f52603260045260245ffd5b5f6020828403121561264d575f80fd5b8151611f45816120e656fe9b779b17422d0df92223018b32b4d1fa46e071723d6817e2486d003becc55f00a26469706673582212203c99abd35da6ea8f3c57da9f12b2a2a67927e73c0393de1b0bc10953e3594c8764736f6c63430008180033","linkReferences":{}},"methodIdentifiers":{"AUCTION_ROLE()":"430730a3","CCIP_RECEIVER_ROLE()":"b7b6b86a","DEFAULT_ADMIN_ROLE()":"a217fddf","GUARDIAN_ROLE()":"24ea54f4","acePolicyManager()":"47278d67","allowance(address,address)":"dd62ed3e","approve(address,uint256)":"095ea7b3","balanceOf(address)":"70a08231","baseRate()":"1f68f20a","borrowerSpoke()":"d3f9615a","categoryRateMultiplier(bytes32)":"c90f70d1","ccipReceive((bytes32,uint64,bytes,bytes,(address,uint256)[]))":"85572ffb","complianceEnabled()":"d83c8270","decimals()":"313ce567","deposit(uint256)":"b6b55f25","disburseLoan(uint256,address,uint256)":"ff408ad3","getAvailableLiquidity()":"9b745aec","getCategoryInterestRate(bytes32)":"6857ce28","getInterestRate()":"5257b566","getRoleAdmin(bytes32)":"248a9ca3","getRouter()":"b0f479a1","getTotalBorrowed()":"0307c4a1","getTotalDeposits()":"168a4822","getUtilizationRate()":"4a417a53","grantRole(bytes32,address)":"2f2ff15d","hasRole(bytes32,address)":"91d14854","kink()":"fd2da339","lastAccrualTimestamp()":"c0789dcb","localBypass()":"4c6c3a5f","name()":"06fdde03","pause()":"8456cb59","paused()":"5c975abb","renounceRole(bytes32,address)":"36568abe","repayLoan(uint256,uint256)":"8a700b53","reserveFactor()":"4322b714","revokeRole(bytes32,address)":"d547741f","setACEPolicyManager(address)":"140a54d7","setCategoryRateMultiplier(bytes32,uint256)":"f908cdad","setInterestRateParams(uint256,uint256,uint256,uint256)":"3b458c01","setLocalBypass(address,bool)":"10308cea","setReserveFactor(uint256)":"1c446983","slope1()":"a62b75a8","slope2()":"d0134cb7","socializeBadDebt(uint256)":"0f65ed80","supportsInterface(bytes4)":"01ffc9a7","symbol()":"95d89b41","totalBadDebt()":"4986bd50","totalBorrowed()":"4c19386c","totalDeposited()":"ff50abdc","totalReserves()":"8f840ddd","totalSupply()":"18160ddd","transfer(address,uint256)":"a9059cbb","transferFrom(address,address,uint256)":"23b872dd","underlyingAsset()":"7158da7c","unpause()":"3f4ba83a","vaultDebt(uint256)":"d310f49b","withdraw(uint256)":"2e1a7d4d","withdrawReserves(uint256,address)":"ab379949"},"id":103}