{"abi":[{"type":"constructor","inputs":[{"name":"admin","type":"address","internalType":"address"},{"name":"_ccipRouter","type":"address","internalType":"address"},{"name":"_maxLTV","type":"uint256","internalType":"uint256"},{"name":"_maintenanceMargin","type":"uint256","internalType":"uint256"},{"name":"_oracleStalenessTolerance","type":"uint256","internalType":"uint256"},{"name":"_localChainSelector","type":"uint64","internalType":"uint64"}],"stateMutability":"nonpayable"},{"type":"receive","stateMutability":"payable"},{"type":"function","name":"DEFAULT_ADMIN_ROLE","inputs":[],"outputs":[{"name":"","type":"bytes32","internalType":"bytes32"}],"stateMutability":"view"},{"type":"function","name":"GUARDIAN_ROLE","inputs":[],"outputs":[{"name":"","type":"bytes32","internalType":"bytes32"}],"stateMutability":"view"},{"type":"function","name":"LIQUIDATOR_ROLE","inputs":[],"outputs":[{"name":"","type":"bytes32","internalType":"bytes32"}],"stateMutability":"view"},{"type":"function","name":"ORACLE_ROLE","inputs":[],"outputs":[{"name":"","type":"bytes32","internalType":"bytes32"}],"stateMutability":"view"},{"type":"function","name":"ccipReceive","inputs":[{"name":"message","type":"tuple","internalType":"struct Client.Any2EVMMessage","components":[{"name":"messageId","type":"bytes32","internalType":"bytes32"},{"name":"sourceChainSelector","type":"uint64","internalType":"uint64"},{"name":"sender","type":"bytes","internalType":"bytes"},{"name":"data","type":"bytes","internalType":"bytes"},{"name":"destTokenAmounts","type":"tuple[]","internalType":"struct Client.EVMTokenAmount[]","components":[{"name":"token","type":"address","internalType":"address"},{"name":"amount","type":"uint256","internalType":"uint256"}]}]}],"outputs":[],"stateMutability":"nonpayable"},{"type":"function","name":"ccipRouter","inputs":[],"outputs":[{"name":"","type":"address","internalType":"contract IRouterClient"}],"stateMutability":"view"},{"type":"function","name":"claimSurplus","inputs":[{"name":"vaultId","type":"uint256","internalType":"uint256"}],"outputs":[],"stateMutability":"nonpayable"},{"type":"function","name":"clearDebt","inputs":[{"name":"vaultId","type":"uint256","internalType":"uint256"},{"name":"amountRepaid","type":"uint256","internalType":"uint256"}],"outputs":[],"stateMutability":"nonpayable"},{"type":"function","name":"depositCollateral","inputs":[{"name":"tokenContract","type":"address","internalType":"address"},{"name":"conditionId","type":"uint256","internalType":"uint256"},{"name":"outcomeIndex","type":"uint256","internalType":"uint256"},{"name":"amount","type":"uint256","internalType":"uint256"},{"name":"hubChainSelector","type":"uint64","internalType":"uint64"},{"name":"requestedLTV","type":"uint256","internalType":"uint256"},{"name":"resolutionTimestamp","type":"uint256","internalType":"uint256"}],"outputs":[],"stateMutability":"nonpayable"},{"type":"function","name":"depositCollateralWithAIValue","inputs":[{"name":"tokenContract","type":"address","internalType":"address"},{"name":"conditionId","type":"uint256","internalType":"uint256"},{"name":"outcomeIndex","type":"uint256","internalType":"uint256"},{"name":"amount","type":"uint256","internalType":"uint256"},{"name":"hubChainSelector","type":"uint64","internalType":"uint64"},{"name":"requestedLTV","type":"uint256","internalType":"uint256"},{"name":"resolutionTimestamp","type":"uint256","internalType":"uint256"},{"name":"aiValuation","type":"uint256","internalType":"uint256"}],"outputs":[],"stateMutability":"nonpayable"},{"type":"function","name":"getRoleAdmin","inputs":[{"name":"role","type":"bytes32","internalType":"bytes32"}],"outputs":[{"name":"","type":"bytes32","internalType":"bytes32"}],"stateMutability":"view"},{"type":"function","name":"getRouter","inputs":[],"outputs":[{"name":"","type":"address","internalType":"address"}],"stateMutability":"view"},{"type":"function","name":"getVault","inputs":[{"name":"vaultId","type":"uint256","internalType":"uint256"}],"outputs":[{"name":"","type":"tuple","internalType":"struct IBorrowerSpoke.Vault","components":[{"name":"owner","type":"address","internalType":"address"},{"name":"tokenContract","type":"address","internalType":"address"},{"name":"conditionId","type":"uint256","internalType":"uint256"},{"name":"outcomeIndex","type":"uint256","internalType":"uint256"},{"name":"amount","type":"uint256","internalType":"uint256"},{"name":"loanAmount","type":"uint256","internalType":"uint256"},{"name":"collateralValue","type":"uint256","internalType":"uint256"},{"name":"healthFactor","type":"uint256","internalType":"uint256"},{"name":"hubChainSelector","type":"uint64","internalType":"uint64"},{"name":"requestedLTV","type":"uint256","internalType":"uint256"},{"name":"lastOracleUpdate","type":"uint256","internalType":"uint256"},{"name":"resolutionTimestamp","type":"uint256","internalType":"uint256"},{"name":"status","type":"uint8","internalType":"enum IBorrowerSpoke.VaultStatus"}]}],"stateMutability":"view"},{"type":"function","name":"getVaultCount","inputs":[],"outputs":[{"name":"","type":"uint256","internalType":"uint256"}],"stateMutability":"view"},{"type":"function","name":"getVaultSurplus","inputs":[{"name":"vaultId","type":"uint256","internalType":"uint256"}],"outputs":[{"name":"","type":"uint256","internalType":"uint256"}],"stateMutability":"view"},{"type":"function","name":"getVaultsByOwner","inputs":[{"name":"owner","type":"address","internalType":"address"}],"outputs":[{"name":"","type":"uint256[]","internalType":"uint256[]"}],"stateMutability":"view"},{"type":"function","name":"grantRole","inputs":[{"name":"role","type":"bytes32","internalType":"bytes32"},{"name":"account","type":"address","internalType":"address"}],"outputs":[],"stateMutability":"nonpayable"},{"type":"function","name":"handleLiquidationUSDC","inputs":[{"name":"vaultId","type":"uint256","internalType":"uint256"},{"name":"usdcAmount","type":"uint256","internalType":"uint256"}],"outputs":[],"stateMutability":"nonpayable"},{"type":"function","name":"hasRole","inputs":[{"name":"role","type":"bytes32","internalType":"bytes32"},{"name":"account","type":"address","internalType":"address"}],"outputs":[{"name":"","type":"bool","internalType":"bool"}],"stateMutability":"view"},{"type":"function","name":"hubReceiver","inputs":[],"outputs":[{"name":"","type":"address","internalType":"address"}],"stateMutability":"view"},{"type":"function","name":"linkToken","inputs":[],"outputs":[{"name":"","type":"address","internalType":"contract IERC20"}],"stateMutability":"view"},{"type":"function","name":"localChainSelector","inputs":[],"outputs":[{"name":"","type":"uint64","internalType":"uint64"}],"stateMutability":"view"},{"type":"function","name":"maintenanceMargin","inputs":[],"outputs":[{"name":"","type":"uint256","internalType":"uint256"}],"stateMutability":"view"},{"type":"function","name":"markVaultFailed","inputs":[{"name":"vaultId","type":"uint256","internalType":"uint256"}],"outputs":[],"stateMutability":"nonpayable"},{"type":"function","name":"maxLTV","inputs":[],"outputs":[{"name":"","type":"uint256","internalType":"uint256"}],"stateMutability":"view"},{"type":"function","name":"minTimeToResolution","inputs":[],"outputs":[{"name":"","type":"uint256","internalType":"uint256"}],"stateMutability":"view"},{"type":"function","name":"onERC1155BatchReceived","inputs":[{"name":"","type":"address","internalType":"address"},{"name":"","type":"address","internalType":"address"},{"name":"","type":"uint256[]","internalType":"uint256[]"},{"name":"","type":"uint256[]","internalType":"uint256[]"},{"name":"","type":"bytes","internalType":"bytes"}],"outputs":[{"name":"","type":"bytes4","internalType":"bytes4"}],"stateMutability":"pure"},{"type":"function","name":"onERC1155Received","inputs":[{"name":"","type":"address","internalType":"address"},{"name":"","type":"address","internalType":"address"},{"name":"","type":"uint256","internalType":"uint256"},{"name":"","type":"uint256","internalType":"uint256"},{"name":"","type":"bytes","internalType":"bytes"}],"outputs":[{"name":"","type":"bytes4","internalType":"bytes4"}],"stateMutability":"pure"},{"type":"function","name":"oracleStalenessTolerance","inputs":[],"outputs":[{"name":"","type":"uint256","internalType":"uint256"}],"stateMutability":"view"},{"type":"function","name":"pause","inputs":[],"outputs":[],"stateMutability":"nonpayable"},{"type":"function","name":"paused","inputs":[],"outputs":[{"name":"","type":"bool","internalType":"bool"}],"stateMutability":"view"},{"type":"function","name":"polymarketAdapter","inputs":[],"outputs":[{"name":"","type":"address","internalType":"address"}],"stateMutability":"view"},{"type":"function","name":"receiveValuation","inputs":[{"name":"report","type":"tuple","internalType":"struct IBorrowerSpoke.ValuationReport","components":[{"name":"vaultId","type":"uint256","internalType":"uint256"},{"name":"alpha","type":"uint256","internalType":"uint256"},{"name":"impliedProbability","type":"uint256","internalType":"uint256"},{"name":"collateralValue","type":"uint256","internalType":"uint256"},{"name":"healthFactor","type":"uint256","internalType":"uint256"},{"name":"timestamp","type":"uint256","internalType":"uint256"}]}],"outputs":[],"stateMutability":"nonpayable"},{"type":"function","name":"recoverCollateral","inputs":[{"name":"vaultId","type":"uint256","internalType":"uint256"}],"outputs":[],"stateMutability":"nonpayable"},{"type":"function","name":"renounceRole","inputs":[{"name":"role","type":"bytes32","internalType":"bytes32"},{"name":"callerConfirmation","type":"address","internalType":"address"}],"outputs":[],"stateMutability":"nonpayable"},{"type":"function","name":"resolutionCutoff","inputs":[],"outputs":[{"name":"","type":"uint256","internalType":"uint256"}],"stateMutability":"view"},{"type":"function","name":"revokeRole","inputs":[{"name":"role","type":"bytes32","internalType":"bytes32"},{"name":"account","type":"address","internalType":"address"}],"outputs":[],"stateMutability":"nonpayable"},{"type":"function","name":"setHubParams","inputs":[{"name":"_hubReceiver","type":"address","internalType":"address"},{"name":"_linkToken","type":"address","internalType":"address"},{"name":"_usdcToken","type":"address","internalType":"address"}],"outputs":[],"stateMutability":"nonpayable"},{"type":"function","name":"setMaintenanceMargin","inputs":[{"name":"newMargin","type":"uint256","internalType":"uint256"}],"outputs":[],"stateMutability":"nonpayable"},{"type":"function","name":"setMaxLTV","inputs":[{"name":"newMaxLTV","type":"uint256","internalType":"uint256"}],"outputs":[],"stateMutability":"nonpayable"},{"type":"function","name":"setMinTimeToResolution","inputs":[{"name":"_minTime","type":"uint256","internalType":"uint256"}],"outputs":[],"stateMutability":"nonpayable"},{"type":"function","name":"setOracleStalenessTolerance","inputs":[{"name":"newTolerance","type":"uint256","internalType":"uint256"}],"outputs":[],"stateMutability":"nonpayable"},{"type":"function","name":"setPolymarketAdapter","inputs":[{"name":"_adapter","type":"address","internalType":"address"}],"outputs":[],"stateMutability":"nonpayable"},{"type":"function","name":"setResolutionCutoff","inputs":[{"name":"_cutoff","type":"uint256","internalType":"uint256"}],"outputs":[],"stateMutability":"nonpayable"},{"type":"function","name":"supportsInterface","inputs":[{"name":"interfaceId","type":"bytes4","internalType":"bytes4"}],"outputs":[{"name":"","type":"bool","internalType":"bool"}],"stateMutability":"pure"},{"type":"function","name":"triggerResolutionCutoff","inputs":[{"name":"vaultId","type":"uint256","internalType":"uint256"}],"outputs":[],"stateMutability":"nonpayable"},{"type":"function","name":"unpause","inputs":[],"outputs":[],"stateMutability":"nonpayable"},{"type":"function","name":"usdcToken","inputs":[],"outputs":[{"name":"","type":"address","internalType":"contract IERC20"}],"stateMutability":"view"},{"type":"function","name":"withdrawCollateral","inputs":[{"name":"vaultId","type":"uint256","internalType":"uint256"}],"outputs":[],"stateMutability":"nonpayable"},{"type":"function","name":"withdrawFees","inputs":[{"name":"token","type":"address","internalType":"address"},{"name":"amount","type":"uint256","internalType":"uint256"}],"outputs":[],"stateMutability":"nonpayable"},{"type":"event","name":"CollateralDeposited","inputs":[{"name":"vaultId","type":"uint256","indexed":true,"internalType":"uint256"},{"name":"owner","type":"address","indexed":true,"internalType":"address"},{"name":"conditionId","type":"uint256","indexed":false,"internalType":"uint256"},{"name":"outcomeIndex","type":"uint256","indexed":false,"internalType":"uint256"},{"name":"amount","type":"uint256","indexed":false,"internalType":"uint256"},{"name":"hubChainSelector","type":"uint64","indexed":false,"internalType":"uint64"},{"name":"requestedLTV","type":"uint256","indexed":false,"internalType":"uint256"}],"anonymous":false},{"type":"event","name":"CollateralRecovered","inputs":[{"name":"vaultId","type":"uint256","indexed":true,"internalType":"uint256"},{"name":"owner","type":"address","indexed":true,"internalType":"address"},{"name":"amount","type":"uint256","indexed":false,"internalType":"uint256"}],"anonymous":false},{"type":"event","name":"CollateralWithdrawn","inputs":[{"name":"vaultId","type":"uint256","indexed":true,"internalType":"uint256"},{"name":"owner","type":"address","indexed":true,"internalType":"address"},{"name":"amount","type":"uint256","indexed":false,"internalType":"uint256"}],"anonymous":false},{"type":"event","name":"LiquidationTriggered","inputs":[{"name":"vaultId","type":"uint256","indexed":true,"internalType":"uint256"}],"anonymous":false},{"type":"event","name":"Paused","inputs":[{"name":"account","type":"address","indexed":false,"internalType":"address"}],"anonymous":false},{"type":"event","name":"ResolutionCutoffTriggered","inputs":[{"name":"vaultId","type":"uint256","indexed":true,"internalType":"uint256"}],"anonymous":false},{"type":"event","name":"RoleAdminChanged","inputs":[{"name":"role","type":"bytes32","indexed":true,"internalType":"bytes32"},{"name":"previousAdminRole","type":"bytes32","indexed":true,"internalType":"bytes32"},{"name":"newAdminRole","type":"bytes32","indexed":true,"internalType":"bytes32"}],"anonymous":false},{"type":"event","name":"RoleGranted","inputs":[{"name":"role","type":"bytes32","indexed":true,"internalType":"bytes32"},{"name":"account","type":"address","indexed":true,"internalType":"address"},{"name":"sender","type":"address","indexed":true,"internalType":"address"}],"anonymous":false},{"type":"event","name":"RoleRevoked","inputs":[{"name":"role","type":"bytes32","indexed":true,"internalType":"bytes32"},{"name":"account","type":"address","indexed":true,"internalType":"address"},{"name":"sender","type":"address","indexed":true,"internalType":"address"}],"anonymous":false},{"type":"event","name":"SurplusClaimed","inputs":[{"name":"vaultId","type":"uint256","indexed":true,"internalType":"uint256"},{"name":"owner","type":"address","indexed":true,"internalType":"address"},{"name":"amount","type":"uint256","indexed":false,"internalType":"uint256"}],"anonymous":false},{"type":"event","name":"Unpaused","inputs":[{"name":"account","type":"address","indexed":false,"internalType":"address"}],"anonymous":false},{"type":"event","name":"ValuationReceived","inputs":[{"name":"vaultId","type":"uint256","indexed":true,"internalType":"uint256"},{"name":"collateralValue","type":"uint256","indexed":false,"internalType":"uint256"},{"name":"healthFactor","type":"uint256","indexed":false,"internalType":"uint256"},{"name":"alpha","type":"uint256","indexed":false,"internalType":"uint256"}],"anonymous":false},{"type":"event","name":"VaultStatusChanged","inputs":[{"name":"vaultId","type":"uint256","indexed":true,"internalType":"uint256"},{"name":"oldStatus","type":"uint8","indexed":false,"internalType":"enum IBorrowerSpoke.VaultStatus"},{"name":"newStatus","type":"uint8","indexed":false,"internalType":"enum IBorrowerSpoke.VaultStatus"}],"anonymous":false},{"type":"error","name":"AccessControlBadConfirmation","inputs":[]},{"type":"error","name":"AccessControlUnauthorizedAccount","inputs":[{"name":"account","type":"address","internalType":"address"},{"name":"neededRole","type":"bytes32","internalType":"bytes32"}]},{"type":"error","name":"EnforcedPause","inputs":[]},{"type":"error","name":"ExpectedPause","inputs":[]},{"type":"error","name":"InsufficientProtocolFees","inputs":[]},{"type":"error","name":"InvalidLTV","inputs":[{"name":"requestedLTV","type":"uint256","internalType":"uint256"},{"name":"maxAllowed","type":"uint256","internalType":"uint256"}]},{"type":"error","name":"InvalidRouter","inputs":[{"name":"router","type":"address","internalType":"address"}]},{"type":"error","name":"InvalidStatusTransition","inputs":[{"name":"current","type":"uint8","internalType":"enum IBorrowerSpoke.VaultStatus"},{"name":"target","type":"uint8","internalType":"enum IBorrowerSpoke.VaultStatus"}]},{"type":"error","name":"LoanNotRepaid","inputs":[{"name":"vaultId","type":"uint256","internalType":"uint256"},{"name":"outstandingDebt","type":"uint256","internalType":"uint256"}]},{"type":"error","name":"MarketTooCloseToResolution","inputs":[{"name":"resolutionTimestamp","type":"uint256","internalType":"uint256"},{"name":"minTimeRequired","type":"uint256","internalType":"uint256"}]},{"type":"error","name":"NotVaultOwner","inputs":[{"name":"vaultId","type":"uint256","internalType":"uint256"},{"name":"caller","type":"address","internalType":"address"}]},{"type":"error","name":"OracleReportStale","inputs":[{"name":"lastUpdate","type":"uint256","internalType":"uint256"},{"name":"tolerance","type":"uint256","internalType":"uint256"}]},{"type":"error","name":"PRBMath_MulDiv18_Overflow","inputs":[{"name":"x","type":"uint256","internalType":"uint256"},{"name":"y","type":"uint256","internalType":"uint256"}]},{"type":"error","name":"ReentrancyGuardReentrantCall","inputs":[]},{"type":"error","name":"ResolutionCutoffNotReached","inputs":[{"name":"resolutionTimestamp","type":"uint256","internalType":"uint256"},{"name":"cutoff","type":"uint256","internalType":"uint256"}]},{"type":"error","name":"SafeERC20FailedOperation","inputs":[{"name":"token","type":"address","internalType":"address"}]},{"type":"error","name":"VaultNotActive","inputs":[{"name":"vaultId","type":"uint256","internalType":"uint256"},{"name":"currentStatus","type":"uint8","internalType":"enum IBorrowerSpoke.VaultStatus"}]},{"type":"error","name":"VaultNotFound","inputs":[{"name":"vaultId","type":"uint256","internalType":"uint256"}]},{"type":"error","name":"ZeroAmount","inputs":[]}],"bytecode":{"object":"0x60c060405234801562000010575f80fd5b5060405162003e9738038062003e978339810160408190526200003391620001f2565b846001600160a01b03811662000062576040516335fdcccd60e21b81525f600482015260240160405180910390fd5b6001600160a01b031660805260017f9b779b17422d0df92223018b32b4d1fa46e071723d6817e2486d003becc55f00556200009e5f876200012a565b50620000cb7f55435dd261a4b9b3364963f7738a7a662ad9c84396d64be3365284bb7f0a5041876200012a565b506001600160a01b0390941660a05260069290925560075560085562015180600a556202a300600b55600e80546001600160401b03909216600160a01b02600160a01b600160e01b031990921691909117905550600160055562000264565b5f828152602081815260408083206001600160a01b038516845290915281205460ff16620001cd575f838152602081815260408083206001600160a01b03861684529091529020805460ff19166001179055620001843390565b6001600160a01b0316826001600160a01b0316847f2f8788117e7eff1d82e926ec794901d17c78024a50270940304540a733656f0d60405160405180910390a4506001620001d0565b505f5b92915050565b80516001600160a01b0381168114620001ed575f80fd5b919050565b5f805f805f8060c0878903121562000208575f80fd5b6200021387620001d6565b95506200022360208801620001d6565b6040880151606089015160808a015160a08b0151939850919650945092506001600160401b038116811462000256575f80fd5b809150509295509295509295565b60805160a051613bc4620002d35f395f818161038001528181610f43015281816110470152818161107e015281816110bf0152818161117d015281816111be01528181611bd601528181611cff01528181611d3b0152611df101525f81816107fa01526124c00152613bc45ff3fe6080604052600436106102c2575f3560e01c806374d4e4911161016f578063ac818711116100d8578063d547741f11610092578063f1863dff1161006d578063f1863dff1461090b578063f23a6e611461092a578063f384bd0514610956578063ffe50d5f1461096b575f80fd5b8063d547741f14610899578063d5eb0581146108b8578063e74ca38d146108cd575f80fd5b8063ac818711146107a1578063ad3b1b47146107cd578063b0f479a1146107ec578063bc197c811461081e578063bdc4e4dd14610865578063cbcf74e114610884575f80fd5b806391d148541161012957806391d14854146106da5780639403b634146106f95780639baf0d4414610725578063a217fddf14610750578063a2359b7e14610763578063a9fb957f14610782575f80fd5b806374d4e491146106365780637736ad371461064a57806383e75db2146106695780638456cb591461068857806385572ffb1461069c5780638fc1175a146106bb575f80fd5b80632f2ff15d1161022b5780635009b7dd116101e55780636112fe2e116101c05780636112fe2e146105c457806363b7577a146105e357806366522c37146106025780636bf5cb0814610621575f80fd5b80635009b7dd1461056f57806357970e931461058e5780635c975abb146105ad575f80fd5b80632f2ff15d146104ca578063320e4de2146104e957806336568abe146104fe5780633e2b71941461051d5780633f4ba83a1461053c57806349e29e4b14610550575f80fd5b806315d8b8751161027c57806315d8b875146103d957806316d8887a146103f85780631b2522bc1461042b57806321e272921461044a578063248a9ca31461046957806324ea54f414610497575f80fd5b806301ffc9a7146102cd57806307e2cea51461030157806308a0c3751461032f5780630b516a66146103505780630de229841461036f57806311eac855146103ba575f80fd5b366102c957005b5f80fd5b3480156102d8575f80fd5b506102ec6102e7366004613183565b61098a565b60405190151581526020015b60405180910390f35b34801561030c575f80fd5b506103215f80516020613b4f83398151915281565b6040519081526020016102f8565b34801561033a575f80fd5b5061034e6103493660046131aa565b6109f6565b005b34801561035b575f80fd5b5061034e61036a3660046131c1565b610a06565b34801561037a575f80fd5b506103a27f000000000000000000000000000000000000000000000000000000000000000081565b6040516001600160a01b0390911681526020016102f8565b3480156103c5575f80fd5b50600e546103a2906001600160a01b031681565b3480156103e4575f80fd5b5061034e6103f33660046131fc565b610a69565b348015610403575f80fd5b506103217f5e17fc5225d4a099df75359ce1f405503ca79498a8dc46a7d583235a0ee45c1681565b348015610436575f80fd5b5061034e6104453660046131aa565b610a96565b348015610455575f80fd5b5061034e6104643660046131aa565b610b89565b348015610474575f80fd5b506103216104833660046131aa565b5f9081526020819052604090206001015490565b3480156104a2575f80fd5b506103217f55435dd261a4b9b3364963f7738a7a662ad9c84396d64be3365284bb7f0a504181565b3480156104d5575f80fd5b5061034e6104e4366004613215565b610cbf565b3480156104f4575f80fd5b50610321600b5481565b348015610509575f80fd5b5061034e610518366004613215565b610ce3565b348015610528575f80fd5b5061034e6105373660046131c1565b610d1b565b348015610547575f80fd5b5061034e6112ca565b34801561055b575f80fd5b5061034e61056a3660046131aa565b6112dc565b34801561057a575f80fd5b5061034e6105893660046131aa565b61134a565b348015610599575f80fd5b50600d546103a2906001600160a01b031681565b3480156105b8575f80fd5b5060015460ff166102ec565b3480156105cf575f80fd5b5061034e6105de3660046131aa565b6113bb565b3480156105ee575f80fd5b5061034e6105fd3660046131aa565b611577565b34801561060d575f80fd5b5061034e61061c366004613255565b6116bb565b34801561062c575f80fd5b5061032160085481565b348015610641575f80fd5b50610321611f15565b348015610655575f80fd5b5061034e6106643660046132b3565b611f2a565b348015610674575f80fd5b5061034e6106833660046132c9565b611fac565b348015610693575f80fd5b5061034e612483565b3480156106a7575f80fd5b5061034e6106b636600461332f565b6124b5565b3480156106c6575f80fd5b5061034e6106d53660046131aa565b612511565b3480156106e5575f80fd5b506102ec6106f4366004613215565b612521565b348015610704575f80fd5b506107186107133660046131aa565b612549565b6040516102f89190613399565b348015610730575f80fd5b5061032161073f3660046131aa565b5f9081526004602052604090205490565b34801561075b575f80fd5b506103215f81565b34801561076e575f80fd5b5061034e61077d3660046131aa565b612634565b34801561078d575f80fd5b50600c546103a2906001600160a01b031681565b3480156107ac575f80fd5b506107c06107bb3660046131fc565b612644565b6040516102f8919061345b565b3480156107d8575f80fd5b5061034e6107e736600461349e565b6126ad565b3480156107f7575f80fd5b507f00000000000000000000000000000000000000000000000000000000000000006103a2565b348015610829575f80fd5b5061084c61083836600461354a565b63bc197c8160e01b98975050505050505050565b6040516001600160e01b031990911681526020016102f8565b348015610870575f80fd5b506009546103a2906001600160a01b031681565b34801561088f575f80fd5b50610321600a5481565b3480156108a4575f80fd5b5061034e6108b3366004613215565b612703565b3480156108c3575f80fd5b5061032160075481565b3480156108d8575f80fd5b50600e546108f390600160a01b90046001600160401b031681565b6040516001600160401b0390911681526020016102f8565b348015610916575f80fd5b5061034e6109253660046135fc565b612727565b348015610935575f80fd5b5061084c61094436600461363c565b63f23a6e6160e01b9695505050505050565b348015610961575f80fd5b5061032160065481565b348015610976575f80fd5b5061034e6109853660046131aa565b6127a6565b5f6001600160e01b03198216630271189760e51b14806109ba57506001600160e01b031982166385572ffb60e01b145b806109d557506001600160e01b03198216637965db0b60e01b145b806109f057506001600160e01b031982166301ffc9a760e01b145b92915050565b5f610a008161285a565b50600655565b5f80516020613b4f833981519152610a1d8161285a565b5f610a2784612864565b905080600501548310610a4a575f6005820155610a4584600361289c565b610a63565b82816005015f828254610a5d91906136c2565b90915550505b50505050565b5f610a738161285a565b50600980546001600160a01b0319166001600160a01b0392909216919091179055565b610a9e6129aa565b5f610aa882612864565b80549091506001600160a01b03163314610ae3576040516390b8b53760e01b8152600481018390523360248201526044015b60405180910390fd5b5f8281526004602052604081205490819003610b1257604051631f2a200560e01b815260040160405180910390fd5b5f83815260046020526040812055600e54610b37906001600160a01b031633836129c8565b604051818152339084907f060c1a8b7e19e0e6e3deffe56fd2fef99a7d5a4bc2234061734f110cf5b6367c9060200160405180910390a35050610b8660015f80516020613b6f83398151915255565b50565b5f80516020613b4f833981519152610ba08161285a565b5f610baa83612864565b90506001600c82015460ff166004811115610bc757610bc7613365565b14158015610bed57505f600c82015460ff166004811115610bea57610bea613365565b14155b15610c1857600c81015460405163bb8f957160e01b8152610ada91859160ff909116906004016136d5565b600a5481600b0154610c2a91906136c2565b421015610c5b57600b810154600a54604051634256f27760e01b815260048101929092526024820152604401610ada565b610c6683600261289c565b60405183907fa88687d6c023e366bc5e9bb207a402cfd4e581a5c95e2ccf011f914abd47b5bd905f90a260405183907fa073183e356b5f886e3feebe34c6a82eb7e006563eae1efaac67addeaa34b45d905f90a2505050565b5f82815260208190526040902060010154610cd98161285a565b610a6383836129fd565b6001600160a01b0381163314610d0c5760405163334bd91960e11b815260040160405180910390fd5b610d168282612a8c565b505050565b7f5e17fc5225d4a099df75359ce1f405503ca79498a8dc46a7d583235a0ee45c16610d458161285a565b610d4d6129aa565b5f610d5784612864565b90506002600c82015460ff166004811115610d7457610d74613365565b14610d9e57600c81015460405163e3962ba360e01b8152610ada9160ff16906002906004016136e9565b600e54610db6906001600160a01b0316333086612af5565b60058101545f610dcb8564e8d4a51000613704565b90505f828211610ddb5781610ddd565b825b90505f838311610ded575f610df7565b610df784846136c2565b90508115611261575f610e0f64e8d4a510008461371b565b6040805160018082528183019092529192505f9190816020015b604080518082019091525f8082526020820152815260200190600190039081610e2957505060408051808201909152600e546001600160a01b031681526020810184905281519192509082905f90610e8357610e8361374e565b60209081029190910101526040805160a08101909152600c546001600160a01b031660c08201525f908060e0810160405160208183030381529060405281526020018c604051602001610ed891815260200190565b60408051601f198184030181529181529082526020828101869052600d546001600160a01b031683830152815190810190915262030d408152606090910190610f2090612b2b565b905260088901546040516320487ded60e01b81529192505f916001600160a01b037f000000000000000000000000000000000000000000000000000000000000000016916320487ded91610f82916001600160401b03169086906004016137af565b602060405180830381865afa158015610f9d573d5f803e3d5ffd5b505050506040513d601f19601f82011682018060405250810190610fc19190613889565b600d546040516370a0823160e01b815230600482015291925082916001600160a01b03909116906370a0823190602401602060405180830381865afa15801561100c573d5f803e3d5ffd5b505050506040513d601f19601f820116820180604052508101906110309190613889565b1061114457600d5461106c906001600160a01b03167f000000000000000000000000000000000000000000000000000000000000000083612b68565b600e546110a3906001600160a01b03167f000000000000000000000000000000000000000000000000000000000000000086612b68565b60088901546040516396f4e9f960e01b81526001600160a01b037f000000000000000000000000000000000000000000000000000000000000000016916396f4e9f9916110fe916001600160401b03169086906004016137af565b6020604051808303815f875af115801561111a573d5f803e3d5ffd5b505050506040513d601f19601f8201168201806040525081019061113e9190613889565b50611244565b804710156111655760405163e1728b2160e01b815260040160405180910390fd5b5f6060830152600e546111a2906001600160a01b03167f000000000000000000000000000000000000000000000000000000000000000086612b68565b60088901546040516396f4e9f960e01b81526001600160a01b037f000000000000000000000000000000000000000000000000000000000000000016916396f4e9f9918491611201916001600160401b039091169087906004016137af565b60206040518083038185885af115801561121d573d5f803e3d5ffd5b50505050506040513d601f19601f820116820180604052508101906112429190613889565b505b85896005015f82825461125791906136c2565b9091555050505050505b80156112995761127664e8d4a510008261371b565b5f89815260046020526040812080549091906112939084906138a0565b90915550505b84600501545f036112af576112af88600361289c565b5050505050610d1660015f80516020613b6f83398151915255565b5f6112d48161285a565b610b86612bba565b5f6112e68161285a565b600a548210156113445760405162461bcd60e51b815260206004820152602360248201527f6d696e54696d65206d757374206265203e3d207265736f6c7574696f6e43757460448201526237b33360e91b6064820152608401610ada565b50600b55565b5f80516020613b4f8339815191526113618161285a565b5f61136b83612864565b90505f600c82015460ff16600481111561138757611387613365565b146113b057600c81015460405163e3962ba360e01b8152610ada9160ff169060049081016136e9565b610d1683600461289c565b6113c36129aa565b5f6113cd82612864565b80549091506001600160a01b03163314611403576040516390b8b53760e01b815260048101839052336024820152604401610ada565b600581015415611436576005810154604051635946fad360e01b8152610ada918491600401918252602082015260400190565b6001600c82015460ff16600481111561145157611451613365565b1415801561147757505f600c82015460ff16600481111561147457611474613365565b14155b156114a157600c81015460405163e3962ba360e01b8152610ada9160ff16906003906004016136e9565b6114ac82600361289c565b60018101546002820154600480840154604051637921219560e11b81526001600160a01b039094169363f242432a936114eb93309333939091016138b3565b5f604051808303815f87803b158015611502575f80fd5b505af1158015611514573d5f803e3d5ffd5b50505050336001600160a01b0316827f7c5e5cb62e5ed3caf3764e4b0afedfedef533e27809d43367799787ad2abcd41836004015460405161155891815260200190565b60405180910390a350610b8660015f80516020613b6f83398151915255565b61157f6129aa565b5f61158982612864565b80549091506001600160a01b031633146115bf576040516390b8b53760e01b815260048101839052336024820152604401610ada565b6004600c82015460ff1660048111156115da576115da613365565b1461160457600c81015460405163e3962ba360e01b8152610ada9160ff16906003906004016136e9565b61160f82600361289c565b60018101546002820154600480840154604051637921219560e11b81526001600160a01b039094169363f242432a9361164e93309333939091016138b3565b5f604051808303815f87803b158015611665575f80fd5b505af1158015611677573d5f803e3d5ffd5b50505050336001600160a01b0316827f84ec08cff398b5f03b9ccf2f4078cf36b6fb091edcf758df704729f6f04cfed4836004015460405161155891815260200190565b6116c3612c0c565b6116cb6129aa565b835f036116eb57604051631f2a200560e01b815260040160405180910390fd5b60065482111561171c5760065460405163489eea3360e11b8152610ada918491600401918252602082015260400190565b600b5461172990426138a0565b81101561175757600b54604051632ed22e5d60e01b8152610ada918391600401918252602082015260400190565b604051637921219560e11b81526001600160a01b0388169063f242432a9061178990339030908b908a906004016138b3565b5f604051808303815f87803b1580156117a0575f80fd5b505af11580156117b2573d5f803e3d5ffd5b5050600580545f93509150826117c7836138ea565b919050559050604051806101a00160405280336001600160a01b03168152602001896001600160a01b031681526020018881526020018781526020018681526020015f81526020015f81526020015f198152602001856001600160401b031681526020018481526020015f81526020018381526020015f600481111561184f5761184f613365565b90525f82815260026020818152604092839020845181546001600160a01b03199081166001600160a01b0392831617835592860151600180840180549095169190921617909255928401519183019190915560608301516003830155608083015160048084019190915560a0840151600584015560c0840151600684015560e0840151600784015561010084015160088401805467ffffffffffffffff19166001600160401b039092169190911790556101208401516009840155610140840151600a840155610160840151600b840155610180840151600c840180549193909260ff1990921691849081111561194857611948613365565b021790555050335f9081526003602090815260408220805460018101825590835291200182905550600c546001600160a01b031615611e9a576040805160c081018252828152336020820152908101849052606081018890526080810187905260a08101869052600e546001600160401b03600160a01b909104811690861603611b0157600c54815160208301516040808501516060860151608087015160a0880151935160248101969096526001600160a01b0394851660448701526064860192909252608485015260a484015260c48301525f92839291169060e40160408051601f198184030181529181526020820180516001600160e01b031663dfed0e5360e01b17905251611a5b9190613902565b5f604051808303815f865af19150503d805f8114611a94576040519150601f19603f3d011682016040523d82523d5f602084013e611a99565b606091505b509150915081611afa57805115611ab257805181602001fd5b60405162461bcd60e51b815260206004820152601860248201527f4c6f63616c206279706173732063616c6c206661696c656400000000000000006044820152606401610ada565b5050611e71565b5f611b0b82612c32565b6040805160a081018252600c546001600160a01b031660c0808301919091528251808303909101815260e0820183528152602080820184905282515f808252918101845293945092909182019083611b84565b604080518082019091525f8082526020820152815260200190600190039081611b5e5790505b508152600d546001600160a01b031660208083019190915260408051918201815262061a80825290910190611bb890612b2b565b90526040516320487ded60e01b81529091505f906001600160a01b037f000000000000000000000000000000000000000000000000000000000000000016906320487ded90611c0d908b9086906004016137af565b602060405180830381865afa158015611c28573d5f803e3d5ffd5b505050506040513d601f19601f82011682018060405250810190611c4c9190613889565b600d549091506001600160a01b031615611db957600d546040516370a0823160e01b81523060048201525f916001600160a01b0316906370a0823190602401602060405180830381865afa158015611ca6573d5f803e3d5ffd5b505050506040513d601f19601f82011682018060405250810190611cca9190613889565b905081811015611ced5760405163e1728b2160e01b815260040160405180910390fd5b600d54611d24906001600160a01b03167f000000000000000000000000000000000000000000000000000000000000000084612b68565b6040516396f4e9f960e01b81526001600160a01b037f000000000000000000000000000000000000000000000000000000000000000016906396f4e9f990611d72908c9087906004016137af565b6020604051808303815f875af1158015611d8e573d5f803e3d5ffd5b505050506040513d601f19601f82011682018060405250810190611db29190613889565b5050611e6d565b80471015611dda5760405163e1728b2160e01b815260040160405180910390fd5b6040516396f4e9f960e01b81526001600160a01b037f000000000000000000000000000000000000000000000000000000000000000016906396f4e9f9908390611e2a908c9087906004016137af565b60206040518083038185885af1158015611e46573d5f803e3d5ffd5b50505050506040513d601f19601f82011682018060405250810190611e6b9190613889565b505b5050505b600e546001600160401b03600160a01b909104811690861603611e9857611e988287612ca8565b505b60408051888152602081018890529081018690526001600160401b038516606082015260808101849052339082907f70cf0ca1a874b811c451bb766bb709c4028b0096b95194b07f93f0a6ced2fef79060a00160405180910390a350611f0c60015f80516020613b6f83398151915255565b50505050505050565b5f6001600554611f2591906136c2565b905090565b5f80516020613b4f833981519152611f418161285a565b611f5a82356060840135608085013560a0860135612cc0565b60408051606084810135825260808501356020808401919091528501358284015291518435927ff7da6cfe5627cac5b1bfb19aada1936703fb36347cbed1c25b3017d081eed940928290030190a25050565b611fb4612c0c565b845f03611fd457604051631f2a200560e01b815260040160405180910390fd5b6006548311156120055760065460405163489eea3360e11b8152610ada918591600401918252602082015260400190565b600b5461201290426138a0565b82101561204057600b54604051632ed22e5d60e01b8152610ada918491600401918252602082015260400190565b604051637921219560e11b81526001600160a01b0389169063f242432a9061207290339030908c908b906004016138b3565b5f604051808303815f87803b158015612089575f80fd5b505af115801561209b573d5f803e3d5ffd5b5050600580545f93509150826120b0836138ea565b919050559050604051806101a00160405280336001600160a01b031681526020018a6001600160a01b031681526020018981526020018881526020018781526020015f81526020015f81526020015f198152602001866001600160401b031681526020018581526020015f81526020018481526020015f600481111561213857612138613365565b90525f82815260026020818152604092839020845181546001600160a01b03199081166001600160a01b0392831617835592860151600180840180549095169190921617909255928401519183019190915560608301516003830155608083015160048084019190915560a0840151600584015560c0840151600684015560e0840151600784015561010084015160088401805467ffffffffffffffff19166001600160401b039092169190911790556101208401516009840155610140840151600a840155610160840151600b840155610180840151600c840180549193909260ff1990921691849081111561223157612231613365565b021790555050335f9081526003602090815260408220805460018101825590835291200182905550600c546001600160a01b0316158015906122875750600e546001600160401b03868116600160a01b90920416145b156123be576040805160c0810182528281523360208201908152818301878152606083018c8152608084018c815260a085018c8152600c5496516024810189905294516001600160a01b03908116604487015293516064860152915160848501525160a48401525160c483015260e4820186905291925f9283929116906101040160408051601f198184030181529181526020820180516001600160e01b03166319a9226f60e21b1790525161233d9190613902565b5f604051808303815f865af19150503d805f8114612376576040519150601f19603f3d011682016040523d82523d5f602084013e61237b565b606091505b50915091508161239457805115611ab257805181602001fd5b5050505f81815260026020526040902060068101839055600c01805460ff1916600117905561241d565b60405162461bcd60e51b815260206004820152602e60248201527f546869732066756e6374696f6e206973204f4e4c5920666f72206c6f63616c2060448201526d6279706173732074657374696e6760901b6064820152608401610ada565b60408051898152602081018990529081018790526001600160401b038616606082015260808101859052339082907f70cf0ca1a874b811c451bb766bb709c4028b0096b95194b07f93f0a6ced2fef79060a00160405180910390a3505050505050505050565b7f55435dd261a4b9b3364963f7738a7a662ad9c84396d64be3365284bb7f0a50416124ad8161285a565b610b86612dd7565b336001600160a01b037f00000000000000000000000000000000000000000000000000000000000000001614612500576040516335fdcccd60e21b8152336004820152602401610ada565b610b8661250c82613aa7565b612e12565b5f61251b8161285a565b50600855565b5f918252602082815260408084206001600160a01b0393909316845291905290205460ff1690565b6125516130fd565b5f8281526002602081815260409283902083516101a08101855281546001600160a01b039081168252600183015416928101929092529182015492810192909252600381015460608301526004808201546080840152600582015460a0840152600682015460c0840152600782015460e084015260088201546001600160401b03166101008401526009820154610120840152600a820154610140840152600b820154610160840152600c82015461018084019160ff9091169081111561261a5761261a613365565b600481111561262b5761262b613365565b90525092915050565b5f61263e8161285a565b50600755565b6001600160a01b0381165f908152600360209081526040918290208054835181840281018401909452808452606093928301828280156126a157602002820191905f5260205f20905b81548152602001906001019080831161268d575b50505050509050919050565b5f6126b78161285a565b6001600160a01b0383166126ef57604051339083156108fc029084905f818181858888f19350505050158015610a63573d5f803e3d5ffd5b610d166001600160a01b03841633846129c8565b5f8281526020819052604090206001015461271d8161285a565b610a638383612a8c565b5f6127318161285a565b600c80546001600160a01b0319166001600160a01b038681169190911790915583161561277457600d80546001600160a01b0319166001600160a01b0385161790555b6001600160a01b03821615610a6357600e80546001600160a01b0384166001600160a01b031990911617905550505050565b5f6127b08161285a565b5f82116127f45760405162461bcd60e51b815260206004820152601260248201527104375746f6666206d757374206265203e20360741b6044820152606401610ada565b81600b5410156128545760405162461bcd60e51b815260206004820152602560248201527f6d696e54696d65546f5265736f6c7574696f6e206d757374206265203e3d20636044820152643aba37b33360d91b6064820152608401610ada565b50600a55565b610b868133612e89565b5f81815260026020526040812080546001600160a01b03166109f05760405163d7d2fbf160e01b815260048101849052602401610ada565b5f828152600260205260409020600c8101805460ff811691849160ff191660018360048111156128ce576128ce613365565b021790555060028360048111156128e7576128e7613365565b1480156128fe57506009546001600160a01b031615155b1561296a5760018281015460095460405163a22cb46560e01b81526001600160a01b0391821660048201526024810193909352169063a22cb465906044015f604051808303815f87803b158015612953575f80fd5b505af1158015612965573d5f803e3d5ffd5b505050505b837f0781a6d4cd199c5b899609d3331d7887343884207928ea6cea520cd820465ec5828560405161299c9291906136e9565b60405180910390a250505050565b6129b2612ec2565b60025f80516020613b6f83398151915255565b90565b6129d58383836001612ef1565b610d1657604051635274afe760e01b81526001600160a01b0384166004820152602401610ada565b5f612a088383612521565b612a85575f838152602081815260408083206001600160a01b03861684529091529020805460ff19166001179055612a3d3390565b6001600160a01b0316826001600160a01b0316847f2f8788117e7eff1d82e926ec794901d17c78024a50270940304540a733656f0d60405160405180910390a45060016109f0565b505f6109f0565b5f612a978383612521565b15612a85575f838152602081815260408083206001600160a01b0386168085529252808320805460ff1916905551339286917ff6391f5c32d9c69d2a47ea670b442974b53935d1edc7fd64eb21e047a839171b9190a45060016109f0565b612b03848484846001612f53565b610a6357604051635274afe760e01b81526001600160a01b0385166004820152602401610ada565b60408051915160248084019190915281518084039091018152604490920190526020810180516001600160e01b03166397a657c960e01b17905290565b612b748383835f612fc0565b610d1657612b8583835f6001612fc0565b612bad57604051635274afe760e01b81526001600160a01b0384166004820152602401610ada565b6129d58383836001612fc0565b612bc261300a565b6001805460ff191690557f5db9ee0a495bf2e6ff9c91a7834c1ba4fdd244a5e8aa4e537bd38aeae4b073aa335b6040516001600160a01b03909116815260200160405180910390a1565b60015460ff1615612c305760405163d93c066560e01b815260040160405180910390fd5b565b6060815f015182602001518360400151846060015185608001518660a00151604051602001612c92969594939291909586526001600160a01b0394909416602086015260408501929092526060840152608083015260a082015260c00190565b6040516020818303038152906040529050919050565b612cbc8282671bc16d674ec8000042612cc0565b5050565b5f612cca85612864565b90505f600c82015460ff166004811115612ce657612ce6613365565b14158015612d0d57506001600c82015460ff166004811115612d0a57612d0a613365565b14155b15612d3757600c81015460405163e3962ba360e01b8152610ada9160ff16906001906004016136e9565b6006810184905560078101839055600a81018290555f600c82015460ff166004811115612d6657612d66613365565b03612d8a57612d7685600161289c565b612d8484826009015461302d565b60058201555b612d95836007541190565b15612dd057612da585600261289c565b60405185907fa073183e356b5f886e3feebe34c6a82eb7e006563eae1efaac67addeaa34b45d905f90a25b5050505050565b612ddf612c0c565b6001805460ff1916811790557f62e78cea01bee320cd4e420270b5ea74000d11b0c9f74754ebdbfc544b05a25833612bef565b5f8160600151806020019051810190612e2b9190613889565b9050816080015151600103612cbc575f82608001515f81518110612e5157612e5161374e565b60200260200101516020015190508060045f8481526020019081526020015f205f828254612e7f91906138a0565b9091555050505050565b612e938282612521565b612cbc5760405163e2517d3f60e01b81526001600160a01b038216600482015260248101839052604401610ada565b5f80516020613b6f83398151915254600203612c3057604051633ee5aeb560e01b815260040160405180910390fd5b60405163a9059cbb60e01b5f8181526001600160a01b038616600452602485905291602083604481808b5af1925060015f51148316612f47578383151615612f3b573d5f823e3d81fd5b5f873b113d1516831692505b60405250949350505050565b6040516323b872dd60e01b5f8181526001600160a01b038781166004528616602452604485905291602083606481808c5af1925060015f51148316612faf578383151615612fa3573d5f823e3d81fd5b5f883b113d1516831692505b604052505f60605295945050505050565b60405163095ea7b360e01b5f8181526001600160a01b038616600452602485905291602083604481808b5af1925060015f51148316612f47578383151615612f3b573d5f823e3d81fd5b60015460ff16612c3057604051638dfc202b60e01b815260040160405180910390fd5b5f61303b6129c58484613042565b9392505050565b5f61303b6129c584845f80805f19848609848602925082811083820303915050805f0361307c5750670de0b6b3a7640000900490506109f0565b670de0b6b3a764000081106130ae57604051635173648d60e01b81526004810186905260248101859052604401610ada565b5f670de0b6b3a764000085870962040000818503049310909103600160ee1b02919091177faccb18165bd6fe31ae1cf318dc5b51eee0e1ba569b88cd74c1773b91fac106690291505092915050565b604051806101a001604052805f6001600160a01b031681526020015f6001600160a01b031681526020015f81526020015f81526020015f81526020015f81526020015f81526020015f81526020015f6001600160401b031681526020015f81526020015f81526020015f81526020015f600481111561317e5761317e613365565b905290565b5f60208284031215613193575f80fd5b81356001600160e01b03198116811461303b575f80fd5b5f602082840312156131ba575f80fd5b5035919050565b5f80604083850312156131d2575f80fd5b50508035926020909101359150565b80356001600160a01b03811681146131f7575f80fd5b919050565b5f6020828403121561320c575f80fd5b61303b826131e1565b5f8060408385031215613226575f80fd5b82359150613236602084016131e1565b90509250929050565b80356001600160401b03811681146131f7575f80fd5b5f805f805f805f60e0888a03121561326b575f80fd5b613274886131e1565b96506020880135955060408801359450606088013593506132976080890161323f565b925060a0880135915060c0880135905092959891949750929550565b5f60c082840312156132c3575f80fd5b50919050565b5f805f805f805f80610100898b0312156132e1575f80fd5b6132ea896131e1565b975060208901359650604089013595506060890135945061330d60808a0161323f565b979a969950949793969560a0850135955060c08501359460e001359350915050565b5f6020828403121561333f575f80fd5b81356001600160401b03811115613354575f80fd5b820160a0818503121561303b575f80fd5b634e487b7160e01b5f52602160045260245ffd5b6005811061339557634e487b7160e01b5f52602160045260245ffd5b9052565b81516001600160a01b031681526101a0810160208301516133c560208401826001600160a01b03169052565b5060408301516040830152606083015160608301526080830151608083015260a083015160a083015260c083015160c083015260e083015160e08301526101008084015161341d828501826001600160401b03169052565b50506101208381015190830152610140808401519083015261016080840151908301526101808084015161345382850182613379565b505092915050565b602080825282518282018190525f9190848201906040850190845b8181101561349257835183529284019291840191600101613476565b50909695505050505050565b5f80604083850312156134af575f80fd5b6134b8836131e1565b946020939093013593505050565b5f8083601f8401126134d6575f80fd5b5081356001600160401b038111156134ec575f80fd5b6020830191508360208260051b8501011115613506575f80fd5b9250929050565b5f8083601f84011261351d575f80fd5b5081356001600160401b03811115613533575f80fd5b602083019150836020828501011115613506575f80fd5b5f805f805f805f8060a0898b031215613561575f80fd5b61356a896131e1565b975061357860208a016131e1565b965060408901356001600160401b0380821115613593575f80fd5b61359f8c838d016134c6565b909850965060608b01359150808211156135b7575f80fd5b6135c38c838d016134c6565b909650945060808b01359150808211156135db575f80fd5b506135e88b828c0161350d565b999c989b5096995094979396929594505050565b5f805f6060848603121561360e575f80fd5b613617846131e1565b9250613625602085016131e1565b9150613633604085016131e1565b90509250925092565b5f805f805f8060a08789031215613651575f80fd5b61365a876131e1565b9550613668602088016131e1565b9450604087013593506060870135925060808701356001600160401b03811115613690575f80fd5b61369c89828a0161350d565b979a9699509497509295939492505050565b634e487b7160e01b5f52601160045260245ffd5b818103818111156109f0576109f06136ae565b8281526040810161303b6020830184613379565b604081016136f78285613379565b61303b6020830184613379565b80820281158282048414176109f0576109f06136ae565b5f8261373557634e487b7160e01b5f52601260045260245ffd5b500490565b634e487b7160e01b5f52604160045260245ffd5b634e487b7160e01b5f52603260045260245ffd5b5f5b8381101561377c578181015183820152602001613764565b50505f910152565b5f815180845261379b816020860160208601613762565b601f01601f19169290920160200192915050565b5f60406001600160401b03851683526020604081850152845160a060408601526137dc60e0860182613784565b905081860151603f19808784030160608801526137f98383613784565b6040890151888203830160808a0152805180835290860194505f9350908501905b8084101561384c57845180516001600160a01b031683528601518683015293850193600193909301929086019061381a565b5060608901516001600160a01b031660a08901526080890151888203830160c08a0152955061387b8187613784565b9a9950505050505050505050565b5f60208284031215613899575f80fd5b5051919050565b808201808211156109f0576109f06136ae565b6001600160a01b0394851681529290931660208301526040820152606081019190915260a0608082018190525f9082015260c00190565b5f600182016138fb576138fb6136ae565b5060010190565b5f8251613913818460208701613762565b9190910192915050565b604080519081016001600160401b038111828210171561393f5761393f61373a565b60405290565b60405160a081016001600160401b038111828210171561393f5761393f61373a565b604051601f8201601f191681016001600160401b038111828210171561398f5761398f61373a565b604052919050565b5f82601f8301126139a6575f80fd5b81356001600160401b038111156139bf576139bf61373a565b6139d2601f8201601f1916602001613967565b8181528460208386010111156139e6575f80fd5b816020850160208301375f918101602001919091529392505050565b5f82601f830112613a11575f80fd5b813560206001600160401b03821115613a2c57613a2c61373a565b613a3a818360051b01613967565b82815260069290921b84018101918181019086841115613a58575f80fd5b8286015b84811015613a9c5760408189031215613a73575f80fd5b613a7b61391d565b613a84826131e1565b81528185013585820152835291830191604001613a5c565b509695505050505050565b5f60a08236031215613ab7575f80fd5b613abf613945565b82358152613acf6020840161323f565b602082015260408301356001600160401b0380821115613aed575f80fd5b613af936838701613997565b60408401526060850135915080821115613b11575f80fd5b613b1d36838701613997565b60608401526080850135915080821115613b35575f80fd5b50613b4236828601613a02565b6080830152509291505056fe68e79a7bf1e0bc45d0a330c573bc367f9cf464fd326078812f301165fbda4ef19b779b17422d0df92223018b32b4d1fa46e071723d6817e2486d003becc55f00a26469706673582212204f3d76b98967de51194927302c220a37bc4247b5091394cf3ec644204cfaf8b564736f6c63430008180033","linkReferences":{}},"methodIdentifiers":{"DEFAULT_ADMIN_ROLE()":"a217fddf","GUARDIAN_ROLE()":"24ea54f4","LIQUIDATOR_ROLE()":"16d8887a","ORACLE_ROLE()":"07e2cea5","ccipReceive((bytes32,uint64,bytes,bytes,(address,uint256)[]))":"85572ffb","ccipRouter()":"0de22984","claimSurplus(uint256)":"1b2522bc","clearDebt(uint256,uint256)":"0b516a66","depositCollateral(address,uint256,uint256,uint256,uint64,uint256,uint256)":"66522c37","depositCollateralWithAIValue(address,uint256,uint256,uint256,uint64,uint256,uint256,uint256)":"83e75db2","getRoleAdmin(bytes32)":"248a9ca3","getRouter()":"b0f479a1","getVault(uint256)":"9403b634","getVaultCount()":"74d4e491","getVaultSurplus(uint256)":"9baf0d44","getVaultsByOwner(address)":"ac818711","grantRole(bytes32,address)":"2f2ff15d","handleLiquidationUSDC(uint256,uint256)":"3e2b7194","hasRole(bytes32,address)":"91d14854","hubReceiver()":"a9fb957f","linkToken()":"57970e93","localChainSelector()":"e74ca38d","maintenanceMargin()":"d5eb0581","markVaultFailed(uint256)":"5009b7dd","maxLTV()":"f384bd05","minTimeToResolution()":"320e4de2","onERC1155BatchReceived(address,address,uint256[],uint256[],bytes)":"bc197c81","onERC1155Received(address,address,uint256,uint256,bytes)":"f23a6e61","oracleStalenessTolerance()":"6bf5cb08","pause()":"8456cb59","paused()":"5c975abb","polymarketAdapter()":"bdc4e4dd","receiveValuation((uint256,uint256,uint256,uint256,uint256,uint256))":"7736ad37","recoverCollateral(uint256)":"63b7577a","renounceRole(bytes32,address)":"36568abe","resolutionCutoff()":"cbcf74e1","revokeRole(bytes32,address)":"d547741f","setHubParams(address,address,address)":"f1863dff","setMaintenanceMargin(uint256)":"a2359b7e","setMaxLTV(uint256)":"08a0c375","setMinTimeToResolution(uint256)":"49e29e4b","setOracleStalenessTolerance(uint256)":"8fc1175a","setPolymarketAdapter(address)":"15d8b875","setResolutionCutoff(uint256)":"ffe50d5f","supportsInterface(bytes4)":"01ffc9a7","triggerResolutionCutoff(uint256)":"21e27292","unpause()":"3f4ba83a","usdcToken()":"11eac855","withdrawCollateral(uint256)":"6112fe2e","withdrawFees(address,uint256)":"ad3b1b47"},"id":96}