{"abi":[{"type":"constructor","inputs":[{"name":"admin","type":"address","internalType":"address"},{"name":"_maxLTV","type":"uint256","internalType":"uint256"},{"name":"_maintenanceMargin","type":"uint256","internalType":"uint256"},{"name":"_timeDecayConstant","type":"uint256","internalType":"uint256"},{"name":"_reserveFactor","type":"uint256","internalType":"uint256"},{"name":"_minAuctionDuration","type":"uint256","internalType":"uint256"},{"name":"_executionDelay","type":"uint256","internalType":"uint256"}],"stateMutability":"nonpayable"},{"type":"function","name":"DEFAULT_ADMIN_ROLE","inputs":[],"outputs":[{"name":"","type":"bytes32","internalType":"bytes32"}],"stateMutability":"view"},{"type":"function","name":"EXECUTOR_ROLE","inputs":[],"outputs":[{"name":"","type":"bytes32","internalType":"bytes32"}],"stateMutability":"view"},{"type":"function","name":"GUARDIAN_ROLE","inputs":[],"outputs":[{"name":"","type":"bytes32","internalType":"bytes32"}],"stateMutability":"view"},{"type":"function","name":"KEY_MAINTENANCE_MARGIN","inputs":[],"outputs":[{"name":"","type":"bytes32","internalType":"bytes32"}],"stateMutability":"view"},{"type":"function","name":"KEY_MAX_LTV","inputs":[],"outputs":[{"name":"","type":"bytes32","internalType":"bytes32"}],"stateMutability":"view"},{"type":"function","name":"KEY_MIN_AUCTION_DURATION","inputs":[],"outputs":[{"name":"","type":"bytes32","internalType":"bytes32"}],"stateMutability":"view"},{"type":"function","name":"KEY_MIN_TIME_TO_RESOLUTION","inputs":[],"outputs":[{"name":"","type":"bytes32","internalType":"bytes32"}],"stateMutability":"view"},{"type":"function","name":"KEY_RESERVE_FACTOR","inputs":[],"outputs":[{"name":"","type":"bytes32","internalType":"bytes32"}],"stateMutability":"view"},{"type":"function","name":"KEY_RESOLUTION_CUTOFF","inputs":[],"outputs":[{"name":"","type":"bytes32","internalType":"bytes32"}],"stateMutability":"view"},{"type":"function","name":"KEY_TIME_DECAY_CONSTANT","inputs":[],"outputs":[{"name":"","type":"bytes32","internalType":"bytes32"}],"stateMutability":"view"},{"type":"function","name":"PROPOSER_ROLE","inputs":[],"outputs":[{"name":"","type":"bytes32","internalType":"bytes32"}],"stateMutability":"view"},{"type":"function","name":"cancelProposal","inputs":[{"name":"proposalId","type":"uint256","internalType":"uint256"}],"outputs":[],"stateMutability":"nonpayable"},{"type":"function","name":"categoryRiskPremiums","inputs":[{"name":"","type":"bytes32","internalType":"bytes32"}],"outputs":[{"name":"","type":"uint256","internalType":"uint256"}],"stateMutability":"view"},{"type":"function","name":"executeProposal","inputs":[{"name":"proposalId","type":"uint256","internalType":"uint256"}],"outputs":[],"stateMutability":"nonpayable"},{"type":"function","name":"executionDelay","inputs":[],"outputs":[{"name":"","type":"uint256","internalType":"uint256"}],"stateMutability":"view"},{"type":"function","name":"getAllParameters","inputs":[],"outputs":[{"name":"_maxLTV","type":"uint256","internalType":"uint256"},{"name":"_maintenanceMargin","type":"uint256","internalType":"uint256"},{"name":"_timeDecayConstant","type":"uint256","internalType":"uint256"},{"name":"_reserveFactor","type":"uint256","internalType":"uint256"},{"name":"_minAuctionDuration","type":"uint256","internalType":"uint256"},{"name":"_resolutionCutoff","type":"uint256","internalType":"uint256"},{"name":"_minTimeToResolution","type":"uint256","internalType":"uint256"}],"stateMutability":"view"},{"type":"function","name":"getProposal","inputs":[{"name":"proposalId","type":"uint256","internalType":"uint256"}],"outputs":[{"name":"","type":"tuple","internalType":"struct Governance.ParameterProposal","components":[{"name":"parameterKey","type":"bytes32","internalType":"bytes32"},{"name":"newValue","type":"uint256","internalType":"uint256"},{"name":"proposedAt","type":"uint256","internalType":"uint256"},{"name":"executionTime","type":"uint256","internalType":"uint256"},{"name":"executed","type":"bool","internalType":"bool"},{"name":"cancelled","type":"bool","internalType":"bool"},{"name":"proposer","type":"address","internalType":"address"}]}],"stateMutability":"view"},{"type":"function","name":"getRoleAdmin","inputs":[{"name":"role","type":"bytes32","internalType":"bytes32"}],"outputs":[{"name":"","type":"bytes32","internalType":"bytes32"}],"stateMutability":"view"},{"type":"function","name":"grantRole","inputs":[{"name":"role","type":"bytes32","internalType":"bytes32"},{"name":"account","type":"address","internalType":"address"}],"outputs":[],"stateMutability":"nonpayable"},{"type":"function","name":"hasRole","inputs":[{"name":"role","type":"bytes32","internalType":"bytes32"},{"name":"account","type":"address","internalType":"address"}],"outputs":[{"name":"","type":"bool","internalType":"bool"}],"stateMutability":"view"},{"type":"function","name":"maintenanceMargin","inputs":[],"outputs":[{"name":"","type":"uint256","internalType":"uint256"}],"stateMutability":"view"},{"type":"function","name":"maxLTV","inputs":[],"outputs":[{"name":"","type":"uint256","internalType":"uint256"}],"stateMutability":"view"},{"type":"function","name":"minAuctionDuration","inputs":[],"outputs":[{"name":"","type":"uint256","internalType":"uint256"}],"stateMutability":"view"},{"type":"function","name":"minTimeToResolution","inputs":[],"outputs":[{"name":"","type":"uint256","internalType":"uint256"}],"stateMutability":"view"},{"type":"function","name":"nextProposalId","inputs":[],"outputs":[{"name":"","type":"uint256","internalType":"uint256"}],"stateMutability":"view"},{"type":"function","name":"proposals","inputs":[{"name":"","type":"uint256","internalType":"uint256"}],"outputs":[{"name":"parameterKey","type":"bytes32","internalType":"bytes32"},{"name":"newValue","type":"uint256","internalType":"uint256"},{"name":"proposedAt","type":"uint256","internalType":"uint256"},{"name":"executionTime","type":"uint256","internalType":"uint256"},{"name":"executed","type":"bool","internalType":"bool"},{"name":"cancelled","type":"bool","internalType":"bool"},{"name":"proposer","type":"address","internalType":"address"}],"stateMutability":"view"},{"type":"function","name":"proposeParameterChange","inputs":[{"name":"parameterKey","type":"bytes32","internalType":"bytes32"},{"name":"newValue","type":"uint256","internalType":"uint256"}],"outputs":[{"name":"proposalId","type":"uint256","internalType":"uint256"}],"stateMutability":"nonpayable"},{"type":"function","name":"renounceRole","inputs":[{"name":"role","type":"bytes32","internalType":"bytes32"},{"name":"callerConfirmation","type":"address","internalType":"address"}],"outputs":[],"stateMutability":"nonpayable"},{"type":"function","name":"reserveFactor","inputs":[],"outputs":[{"name":"","type":"uint256","internalType":"uint256"}],"stateMutability":"view"},{"type":"function","name":"resolutionCutoff","inputs":[],"outputs":[{"name":"","type":"uint256","internalType":"uint256"}],"stateMutability":"view"},{"type":"function","name":"revokeRole","inputs":[{"name":"role","type":"bytes32","internalType":"bytes32"},{"name":"account","type":"address","internalType":"address"}],"outputs":[],"stateMutability":"nonpayable"},{"type":"function","name":"setCategoryRiskPremium","inputs":[{"name":"category","type":"bytes32","internalType":"bytes32"},{"name":"premium","type":"uint256","internalType":"uint256"}],"outputs":[],"stateMutability":"nonpayable"},{"type":"function","name":"supportsInterface","inputs":[{"name":"interfaceId","type":"bytes4","internalType":"bytes4"}],"outputs":[{"name":"","type":"bool","internalType":"bool"}],"stateMutability":"view"},{"type":"function","name":"timeDecayConstant","inputs":[],"outputs":[{"name":"","type":"uint256","internalType":"uint256"}],"stateMutability":"view"},{"type":"event","name":"CategoryRiskPremiumSet","inputs":[{"name":"category","type":"bytes32","indexed":true,"internalType":"bytes32"},{"name":"premium","type":"uint256","indexed":false,"internalType":"uint256"}],"anonymous":false},{"type":"event","name":"ParameterExecuted","inputs":[{"name":"proposalId","type":"uint256","indexed":true,"internalType":"uint256"},{"name":"parameterKey","type":"bytes32","indexed":true,"internalType":"bytes32"},{"name":"oldValue","type":"uint256","indexed":false,"internalType":"uint256"},{"name":"newValue","type":"uint256","indexed":false,"internalType":"uint256"}],"anonymous":false},{"type":"event","name":"ParameterProposed","inputs":[{"name":"proposalId","type":"uint256","indexed":true,"internalType":"uint256"},{"name":"parameterKey","type":"bytes32","indexed":true,"internalType":"bytes32"},{"name":"newValue","type":"uint256","indexed":false,"internalType":"uint256"},{"name":"executionTime","type":"uint256","indexed":false,"internalType":"uint256"},{"name":"proposer","type":"address","indexed":false,"internalType":"address"}],"anonymous":false},{"type":"event","name":"ProposalCancelled","inputs":[{"name":"proposalId","type":"uint256","indexed":true,"internalType":"uint256"}],"anonymous":false},{"type":"event","name":"RoleAdminChanged","inputs":[{"name":"role","type":"bytes32","indexed":true,"internalType":"bytes32"},{"name":"previousAdminRole","type":"bytes32","indexed":true,"internalType":"bytes32"},{"name":"newAdminRole","type":"bytes32","indexed":true,"internalType":"bytes32"}],"anonymous":false},{"type":"event","name":"RoleGranted","inputs":[{"name":"role","type":"bytes32","indexed":true,"internalType":"bytes32"},{"name":"account","type":"address","indexed":true,"internalType":"address"},{"name":"sender","type":"address","indexed":true,"internalType":"address"}],"anonymous":false},{"type":"event","name":"RoleRevoked","inputs":[{"name":"role","type":"bytes32","indexed":true,"internalType":"bytes32"},{"name":"account","type":"address","indexed":true,"internalType":"address"},{"name":"sender","type":"address","indexed":true,"internalType":"address"}],"anonymous":false},{"type":"error","name":"AccessControlBadConfirmation","inputs":[]},{"type":"error","name":"AccessControlUnauthorizedAccount","inputs":[{"name":"account","type":"address","internalType":"address"},{"name":"neededRole","type":"bytes32","internalType":"bytes32"}]},{"type":"error","name":"ExecutionDelayNotMet","inputs":[{"name":"executionTime","type":"uint256","internalType":"uint256"},{"name":"currentTime","type":"uint256","internalType":"uint256"}]},{"type":"error","name":"InvalidParameterKey","inputs":[{"name":"key","type":"bytes32","internalType":"bytes32"}]},{"type":"error","name":"ParameterOutOfBounds","inputs":[{"name":"key","type":"bytes32","internalType":"bytes32"},{"name":"value","type":"uint256","internalType":"uint256"}]},{"type":"error","name":"ProposalAlreadyExecuted","inputs":[{"name":"proposalId","type":"uint256","internalType":"uint256"}]},{"type":"error","name":"ProposalCancelledError","inputs":[{"name":"proposalId","type":"uint256","internalType":"uint256"}]},{"type":"error","name":"ProposalNotFound","inputs":[{"name":"proposalId","type":"uint256","internalType":"uint256"}]}],"bytecode":{"object":"0x608060405234801562000010575f80fd5b50604051620014e9380380620014e98339810160408190526200003391620001a5565b6200003f5f88620000f9565b506200006c7fb09aa5aeb3702cfd50b6b62bc4532604938f21248a27a1d5ca736082b6819cc188620000f9565b50620000997fd8aa0f3194971a2a116679f7c2090f6939c8d4e01a2a8d7e41d55e5351469e6388620000f9565b50620000c67f55435dd261a4b9b3364963f7738a7a662ad9c84396d64be3365284bb7f0a504188620000f9565b506001958655600294909455600392909255600455600555620151806006556202a300600755600955600b55506200020a565b5f828152602081815260408083206001600160a01b038516845290915281205460ff166200019c575f838152602081815260408083206001600160a01b03861684529091529020805460ff19166001179055620001533390565b6001600160a01b0316826001600160a01b0316847f2f8788117e7eff1d82e926ec794901d17c78024a50270940304540a733656f0d60405160405180910390a45060016200019f565b505f5b92915050565b5f805f805f805f60e0888a031215620001bc575f80fd5b87516001600160a01b0381168114620001d3575f80fd5b602089015160408a015160608b015160808c015160a08d015160c0909d0151949e939d50919b909a50909850965090945092505050565b6112d180620002185f395ff3fe608060405234801561000f575f80fd5b50600436106101fd575f3560e01c80635779a44811610114578063aa3c27a5116100a9578063d5eb058111610079578063d5eb05811461062a578063e0a8f6f514610633578063f384bd0514610646578063f4f96acf1461064f578063f91c61aa14610662575f80fd5b8063aa3c27a5146104e0578063c7f758a8146104f4578063cbcf74e11461060e578063d547741f14610617575f80fd5b80639171491b116100e45780639171491b1461046857806391d14854146104b25780639310c8df146104c5578063a217fddf146104d9575f80fd5b80635779a44814610410578063684fbd48146104245780638b257989146104385780638f61f4f514610441575f80fd5b806329e0c8001161019557806333c3bf781161016557806333c3bf78146103c457806336568abe146103d75780634322b714146103ea57806354134876146103f357806354aca24b146103fc575f80fd5b806329e0c8001461038b5780632ab09d141461039f5780632f2ff15d146103a8578063320e4de2146103bb575f80fd5b80630fe05925116101d05780630fe059251461030f57806318ea828614610323578063248a9ca31461034257806324ea54f414610364575f80fd5b8063013cf08b1461020157806301ffc9a7146102a257806307bd0265146102c55780630d61b519146102fa575b5f80fd5b61025b61020f3660046110de565b600a6020525f9081526040902080546001820154600283015460038401546004909401549293919290919060ff808216916101008104909116906201000090046001600160a01b031687565b60408051978852602088019690965294860193909352606085019190915215156080840152151560a08301526001600160a01b031660c082015260e0015b60405180910390f35b6102b56102b03660046110f5565b61066b565b6040519015158152602001610299565b6102ec7fd8aa0f3194971a2a116679f7c2090f6939c8d4e01a2a8d7e41d55e5351469e6381565b604051908152602001610299565b61030d6103083660046110de565b6106a1565b005b6102ec5f805160206111fc83398151915281565b6102ec6103313660046110de565b60086020525f908152604090205481565b6102ec6103503660046110de565b5f9081526020819052604090206001015490565b6102ec7f55435dd261a4b9b3364963f7738a7a662ad9c84396d64be3365284bb7f0a504181565b6102ec5f8051602061127c83398151915281565b6102ec600b5481565b61030d6103b6366004611123565b61080d565b6102ec60075481565b61030d6103d236600461115c565b610837565b61030d6103e5366004611123565b6108c5565b6102ec60045481565b6102ec60055481565b6102ec5f805160206111bc83398151915281565b6102ec5f8051602061121c83398151915281565b6102ec5f805160206111dc83398151915281565b6102ec60095481565b6102ec7fb09aa5aeb3702cfd50b6b62bc4532604938f21248a27a1d5ca736082b6819cc181565b600154600254600354600454600554600654600754604080519788526020880196909652948601939093526060850191909152608084015260a083015260c082015260e001610299565b6102b56104c0366004611123565b6108fd565b6102ec5f8051602061123c83398151915281565b6102ec5f81565b6102ec5f8051602061125c83398151915281565b6105b06105023660046110de565b6040805160e0810182525f80825260208201819052918101829052606081018290526080810182905260a0810182905260c0810191909152505f908152600a6020908152604091829020825160e081018452815481526001820154928101929092526002810154928201929092526003820154606082015260049091015460ff80821615156080840152610100820416151560a08301526201000090046001600160a01b031660c082015290565b60405161029991908151815260208083015190820152604080830151908201526060808301519082015260808083015115159082015260a08083015115159082015260c0918201516001600160a01b03169181019190915260e00190565b6102ec60065481565b61030d610625366004611123565b610925565b6102ec60025481565b61030d6106413660046110de565b610949565b6102ec60015481565b6102ec61065d36600461115c565b610a11565b6102ec60035481565b5f6001600160e01b03198216637965db0b60e01b148061069b57506301ffc9a760e01b6001600160e01b03198316145b92915050565b7fd8aa0f3194971a2a116679f7c2090f6939c8d4e01a2a8d7e41d55e5351469e636106cb81610b64565b5f828152600a6020526040812060028101549091036107055760405163428d06a960e01b8152600481018490526024015b60405180910390fd5b600481015460ff161561072e57604051632776407360e11b8152600481018490526024016106fc565b6004810154610100900460ff161561075c57604051632841651f60e21b8152600481018490526024016106fc565b806003015442101561079057600381015460405163d83b1f6560e01b815260048101919091524260248201526044016106fc565b60048101805460ff1916600117905580545f906107ac90610b71565b90506107bf825f01548360010154610c52565b8154600183015460405186917f6035a831b684e87c41466da892a0151101d4b6ecb6c1f7d0a36d156df799875e916107ff91868252602082015260400190565b60405180910390a350505050565b5f8281526020819052604090206001015461082781610b64565b6108318383610d08565b50505050565b5f61084181610b64565b670de0b6b3a7640000821115610874576040516340bfe3ed60e11b815260048101849052602481018390526044016106fc565b5f83815260086020526040908190208390555183907f663c02f9056a7704385665193f0a45686ebe6367f5ec4c2844812dd14a57011e906108b89085815260200190565b60405180910390a2505050565b6001600160a01b03811633146108ee5760405163334bd91960e11b815260040160405180910390fd5b6108f88282610d97565b505050565b5f918252602082815260408084206001600160a01b0393909316845291905290205460ff1690565b5f8281526020819052604090206001015461093f81610b64565b6108318383610d97565b7f55435dd261a4b9b3364963f7738a7a662ad9c84396d64be3365284bb7f0a504161097381610b64565b5f828152600a6020526040812060028101549091036109a85760405163428d06a960e01b8152600481018490526024016106fc565b600481015460ff16156109d157604051632776407360e11b8152600481018490526024016106fc565b60048101805461ff00191661010017905560405183907f416e669c63d9a3a5e36ee7cc7e2104b8db28ccd286aa18966e98fa230c73b08c905f90a2505050565b5f7fb09aa5aeb3702cfd50b6b62bc4532604938f21248a27a1d5ca736082b6819cc1610a3c81610b64565b610a468484610e00565b600b8054905f610a5583611190565b9190505591505f60095442610a6a91906111a8565b6040805160e08101825287815260208082018881524283850190815260608085018781525f6080870181815260a088018281523360c08a018181528f8552600a8a52938b902099518a55965160018a01559451600289015591516003880155905160049096018054935191516001600160a01b0316620100000262010000600160b01b03199215156101000261ff00199815159890981661ffff1990951694909417969096171691909117909355835189815291820185905292810192909252919250869185917f3dd544cacb0f69091dd5d687ae0b3e6812f08c5f53fe79f77c3b4554af4ef9bf910160405180910390a3505092915050565b610b6e81336110a5565b50565b5f5f805160206111dc8339815191528203610b8e57505060015490565b5f805160206111fc8339815191528203610baa57505060025490565b5f8051602061125c8339815191528203610bc657505060035490565b5f8051602061123c8339815191528203610be257505060045490565b5f805160206111bc8339815191528203610bfe57505060055490565b5f8051602061121c8339815191528203610c1a57505060065490565b5f8051602061127c8339815191528203610c3657505060075490565b6040516339a0b4b960e21b8152600481018390526024016106fc565b5f805160206111dc8339815191528203610c6c5760015550565b5f805160206111fc8339815191528203610c865760025550565b5f8051602061125c8339815191528203610ca05760035550565b5f8051602061123c8339815191528203610cba5760045550565b5f805160206111bc8339815191528203610cd45760055550565b5f8051602061121c8339815191528203610cee5760065550565b5f8051602061127c8339815191528203610c365760075550565b5f610d1383836108fd565b610d90575f838152602081815260408083206001600160a01b03861684529091529020805460ff19166001179055610d483390565b6001600160a01b0316826001600160a01b0316847f2f8788117e7eff1d82e926ec794901d17c78024a50270940304540a733656f0d60405160405180910390a450600161069b565b505f61069b565b5f610da283836108fd565b15610d90575f838152602081815260408083206001600160a01b0386168085529252808320805460ff1916905551339286917ff6391f5c32d9c69d2a47ea670b442974b53935d1edc7fd64eb21e047a839171b9190a450600161069b565b5f805160206111dc83398151915282148015610e235750670d2f13f7789f000081115b15610e4b576040516340bfe3ed60e11b815260048101839052602481018290526044016106fc565b5f805160206111fc83398151915282148015610e7f5750670de0b6b3a7640000811080610e7f5750671bc16d674ec8000081115b15610ea7576040516340bfe3ed60e11b815260048101839052602481018290526044016106fc565b5f8051602061123c83398151915282148015610eca57506706f05b59d3b2000081115b15610ef2576040516340bfe3ed60e11b815260048101839052602481018290526044016106fc565b5f805160206111bc83398151915282148015610f0f5750610e1081105b15610f37576040516340bfe3ed60e11b815260048101839052602481018290526044016106fc565b5f8051602061121c83398151915282148015610f605750610e10811080610f60575062093a8081115b15610f88576040516340bfe3ed60e11b815260048101839052602481018290526044016106fc565b5f8051602061127c83398151915282148015610fb15750610e10811080610fb1575062278d0081115b15610fd9576040516340bfe3ed60e11b815260048101839052602481018290526044016106fc565b5f805160206111dc833981519152821415801561100357505f805160206111fc8339815191528214155b801561101c57505f8051602061125c8339815191528214155b801561103557505f8051602061123c8339815191528214155b801561104e57505f805160206111bc8339815191528214155b801561106757505f8051602061121c8339815191528214155b801561108057505f8051602061127c8339815191528214155b156110a1576040516339a0b4b960e21b8152600481018390526024016106fc565b5050565b6110af82826108fd565b6110a15760405163e2517d3f60e01b81526001600160a01b0382166004820152602481018390526044016106fc565b5f602082840312156110ee575f80fd5b5035919050565b5f60208284031215611105575f80fd5b81356001600160e01b03198116811461111c575f80fd5b9392505050565b5f8060408385031215611134575f80fd5b8235915060208301356001600160a01b0381168114611151575f80fd5b809150509250929050565b5f806040838503121561116d575f80fd5b50508035926020909101359150565b634e487b7160e01b5f52601160045260245ffd5b5f600182016111a1576111a161117c565b5060010190565b8082018082111561069b5761069b61117c56fea15f3d36b04d9b08817003eca59ff45173f1a5772e0efcc637e31900426a8294f7bc30d7b5189e377b232baadd0de904b311675dca1e23e1b6490312aaf2f668f80cfc97be478cb3117827b5ff41fd6917046462bc5a9190186d9cff3f975babd46f7c5b982f16554cb0c0983e5ae959c6f7c549aab56fbc6b555c15284d6caed0cca8829af5113265ba6d5826af2dfeeebe0de6ea61810fc07515463ece0262d24427ecab488a24706dd3b697f78993b231da6b8d3db95dfc9e7e0a92fdd5aad4e3273da7d0dd9f18ba9d058ed0cbf0eb4b64a5103073a6a8ec3c0724cb40a8a2646970667358221220821d54ae16936c9c839a6d2ce2d0916cfe6c1950ce797f11d7920e65707e771f64736f6c63430008180033","linkReferences":{}},"methodIdentifiers":{"DEFAULT_ADMIN_ROLE()":"a217fddf","EXECUTOR_ROLE()":"07bd0265","GUARDIAN_ROLE()":"24ea54f4","KEY_MAINTENANCE_MARGIN()":"0fe05925","KEY_MAX_LTV()":"684fbd48","KEY_MIN_AUCTION_DURATION()":"54aca24b","KEY_MIN_TIME_TO_RESOLUTION()":"29e0c800","KEY_RESERVE_FACTOR()":"9310c8df","KEY_RESOLUTION_CUTOFF()":"5779a448","KEY_TIME_DECAY_CONSTANT()":"aa3c27a5","PROPOSER_ROLE()":"8f61f4f5","cancelProposal(uint256)":"e0a8f6f5","categoryRiskPremiums(bytes32)":"18ea8286","executeProposal(uint256)":"0d61b519","executionDelay()":"8b257989","getAllParameters()":"9171491b","getProposal(uint256)":"c7f758a8","getRoleAdmin(bytes32)":"248a9ca3","grantRole(bytes32,address)":"2f2ff15d","hasRole(bytes32,address)":"91d14854","maintenanceMargin()":"d5eb0581","maxLTV()":"f384bd05","minAuctionDuration()":"54134876","minTimeToResolution()":"320e4de2","nextProposalId()":"2ab09d14","proposals(uint256)":"013cf08b","proposeParameterChange(bytes32,uint256)":"f4f96acf","renounceRole(bytes32,address)":"36568abe","reserveFactor()":"4322b714","resolutionCutoff()":"cbcf74e1","revokeRole(bytes32,address)":"d547741f","setCategoryRiskPremium(bytes32,uint256)":"33c3bf78","supportsInterface(bytes4)":"01ffc9a7","timeDecayConstant()":"f91c61aa"},"id":99}