{"abi":[{"type":"constructor","inputs":[{"name":"admin","type":"address","internalType":"address"}],"stateMutability":"nonpayable"},{"type":"function","name":"BRIDGE_ROLE","inputs":[],"outputs":[{"name":"","type":"bytes32","internalType":"bytes32"}],"stateMutability":"view"},{"type":"function","name":"DEFAULT_ADMIN_ROLE","inputs":[],"outputs":[{"name":"","type":"bytes32","internalType":"bytes32"}],"stateMutability":"view"},{"type":"function","name":"getRoleAdmin","inputs":[{"name":"role","type":"bytes32","internalType":"bytes32"}],"outputs":[{"name":"","type":"bytes32","internalType":"bytes32"}],"stateMutability":"view"},{"type":"function","name":"grantRole","inputs":[{"name":"role","type":"bytes32","internalType":"bytes32"},{"name":"account","type":"address","internalType":"address"}],"outputs":[],"stateMutability":"nonpayable"},{"type":"function","name":"hasRole","inputs":[{"name":"role","type":"bytes32","internalType":"bytes32"},{"name":"account","type":"address","internalType":"address"}],"outputs":[{"name":"","type":"bool","internalType":"bool"}],"stateMutability":"view"},{"type":"function","name":"lockTokens","inputs":[{"name":"tokenContract","type":"address","internalType":"address"},{"name":"tokenId","type":"uint256","internalType":"uint256"},{"name":"amount","type":"uint256","internalType":"uint256"},{"name":"originalOwner","type":"address","internalType":"address"}],"outputs":[{"name":"lockId","type":"uint256","internalType":"uint256"}],"stateMutability":"nonpayable"},{"type":"function","name":"lockedPositions","inputs":[{"name":"","type":"uint256","internalType":"uint256"}],"outputs":[{"name":"tokenContract","type":"address","internalType":"address"},{"name":"tokenId","type":"uint256","internalType":"uint256"},{"name":"amount","type":"uint256","internalType":"uint256"},{"name":"originalOwner","type":"address","internalType":"address"},{"name":"released","type":"bool","internalType":"bool"}],"stateMutability":"view"},{"type":"function","name":"nextLockId","inputs":[],"outputs":[{"name":"","type":"uint256","internalType":"uint256"}],"stateMutability":"view"},{"type":"function","name":"onERC1155BatchReceived","inputs":[{"name":"","type":"address","internalType":"address"},{"name":"","type":"address","internalType":"address"},{"name":"","type":"uint256[]","internalType":"uint256[]"},{"name":"","type":"uint256[]","internalType":"uint256[]"},{"name":"","type":"bytes","internalType":"bytes"}],"outputs":[{"name":"","type":"bytes4","internalType":"bytes4"}],"stateMutability":"pure"},{"type":"function","name":"onERC1155Received","inputs":[{"name":"","type":"address","internalType":"address"},{"name":"","type":"address","internalType":"address"},{"name":"","type":"uint256","internalType":"uint256"},{"name":"","type":"uint256","internalType":"uint256"},{"name":"","type":"bytes","internalType":"bytes"}],"outputs":[{"name":"","type":"bytes4","internalType":"bytes4"}],"stateMutability":"pure"},{"type":"function","name":"releaseTokens","inputs":[{"name":"lockId","type":"uint256","internalType":"uint256"},{"name":"recipient","type":"address","internalType":"address"}],"outputs":[],"stateMutability":"nonpayable"},{"type":"function","name":"renounceRole","inputs":[{"name":"role","type":"bytes32","internalType":"bytes32"},{"name":"callerConfirmation","type":"address","internalType":"address"}],"outputs":[],"stateMutability":"nonpayable"},{"type":"function","name":"revokeRole","inputs":[{"name":"role","type":"bytes32","internalType":"bytes32"},{"name":"account","type":"address","internalType":"address"}],"outputs":[],"stateMutability":"nonpayable"},{"type":"function","name":"supportsInterface","inputs":[{"name":"interfaceId","type":"bytes4","internalType":"bytes4"}],"outputs":[{"name":"","type":"bool","internalType":"bool"}],"stateMutability":"view"},{"type":"event","name":"RoleAdminChanged","inputs":[{"name":"role","type":"bytes32","indexed":true,"internalType":"bytes32"},{"name":"previousAdminRole","type":"bytes32","indexed":true,"internalType":"bytes32"},{"name":"newAdminRole","type":"bytes32","indexed":true,"internalType":"bytes32"}],"anonymous":false},{"type":"event","name":"RoleGranted","inputs":[{"name":"role","type":"bytes32","indexed":true,"internalType":"bytes32"},{"name":"account","type":"address","indexed":true,"internalType":"address"},{"name":"sender","type":"address","indexed":true,"internalType":"address"}],"anonymous":false},{"type":"event","name":"RoleRevoked","inputs":[{"name":"role","type":"bytes32","indexed":true,"internalType":"bytes32"},{"name":"account","type":"address","indexed":true,"internalType":"address"},{"name":"sender","type":"address","indexed":true,"internalType":"address"}],"anonymous":false},{"type":"event","name":"TokensLocked","inputs":[{"name":"lockId","type":"uint256","indexed":true,"internalType":"uint256"},{"name":"tokenContract","type":"address","indexed":true,"internalType":"address"},{"name":"tokenId","type":"uint256","indexed":false,"internalType":"uint256"},{"name":"amount","type":"uint256","indexed":false,"internalType":"uint256"},{"name":"originalOwner","type":"address","indexed":false,"internalType":"address"}],"anonymous":false},{"type":"event","name":"TokensReleased","inputs":[{"name":"lockId","type":"uint256","indexed":true,"internalType":"uint256"},{"name":"recipient","type":"address","indexed":true,"internalType":"address"},{"name":"amount","type":"uint256","indexed":false,"internalType":"uint256"}],"anonymous":false},{"type":"error","name":"AccessControlBadConfirmation","inputs":[]},{"type":"error","name":"AccessControlUnauthorizedAccount","inputs":[{"name":"account","type":"address","internalType":"address"},{"name":"neededRole","type":"bytes32","internalType":"bytes32"}]},{"type":"error","name":"AlreadyReleased","inputs":[{"name":"lockId","type":"uint256","internalType":"uint256"}]},{"type":"error","name":"LockNotFound","inputs":[{"name":"lockId","type":"uint256","internalType":"uint256"}]},{"type":"error","name":"ZeroAmount","inputs":[]}],"bytecode":{"object":"0x608060405234801561000f575f80fd5b50604051610c4c380380610c4c83398101604081905261002e916100ed565b6100385f82610044565b5050600160025561011a565b5f828152602081815260408083206001600160a01b038516845290915281205460ff166100e4575f838152602081815260408083206001600160a01b03861684529091529020805460ff1916600117905561009c3390565b6001600160a01b0316826001600160a01b0316847f2f8788117e7eff1d82e926ec794901d17c78024a50270940304540a733656f0d60405160405180910390a45060016100e7565b505f5b92915050565b5f602082840312156100fd575f80fd5b81516001600160a01b0381168114610113575f80fd5b9392505050565b610b25806101275f395ff3fe608060405234801561000f575f80fd5b50600436106100e5575f3560e01c80636518a0b311610088578063b5bfddea11610063578063b5bfddea14610237578063bc197c811461025e578063d547741f14610299578063f23a6e61146102ac575f80fd5b80636518a0b31461021457806391d148541461021d578063a217fddf14610230575f80fd5b8063248a9ca3116100c3578063248a9ca3146101b75780632a7d3e8d146101d95780632f2ff15d146101ee57806336568abe14610201575f80fd5b806301a5e163146100e957806301ffc9a7146101735780630aa393f314610196575b5f80fd5b6101376100f736600461081b565b600160208190525f918252604090912080549181015460028201546003909201546001600160a01b0393841693919291811690600160a01b900460ff1685565b604080516001600160a01b03968716815260208101959095528401929092529092166060820152901515608082015260a0015b60405180910390f35b610186610181366004610832565b6102cc565b604051901515815260200161016a565b6101a96101a436600461087b565b6102f6565b60405190815260200161016a565b6101a96101c536600461081b565b5f9081526020819052604090206001015490565b6101ec6101e73660046108be565b610496565b005b6101ec6101fc3660046108be565b6105f7565b6101ec61020f3660046108be565b610621565b6101a960025481565b61018661022b3660046108be565b610659565b6101a95f81565b6101a97f52ba824bfabc2bcfcdf7f0edbb486ebb05e1836c90e78047efeb949990f72e5f81565b61028061026c36600461096e565b63bc197c8160e01b98975050505050505050565b6040516001600160e01b0319909116815260200161016a565b6101ec6102a73660046108be565b610681565b6102806102ba366004610a21565b63f23a6e6160e01b9695505050505050565b5f6001600160e01b03198216630271189760e51b14806102f057506102f0826106a5565b92915050565b5f7f52ba824bfabc2bcfcdf7f0edbb486ebb05e1836c90e78047efeb949990f72e5f610321816106d9565b835f0361034157604051631f2a200560e01b815260040160405180910390fd5b60028054905f61035083610a94565b90915550604051637921219560e11b81529092506001600160a01b0387169063f242432a9061038990339030908a908a90600401610ab8565b5f604051808303815f87803b1580156103a0575f80fd5b505af11580156103b2573d5f803e3d5ffd5b50506040805160a0810182526001600160a01b038a811680835260208084018c81528486018c81528b851660608088018281525f60808a018181528f82526001808952918c90209a518b54908b166001600160a01b0319909116178b559551908a01559251600289015591516003909701805493511515600160a01b026001600160a81b031990941697909616969096179190911790935584518c81529081018b9052938401929092529093508592507fde6442c5af34cd2c720590da3a43126adbad1594f096cb39869565ab6c2be1fb910160405180910390a350949350505050565b7f52ba824bfabc2bcfcdf7f0edbb486ebb05e1836c90e78047efeb949990f72e5f6104c0816106d9565b5f83815260016020526040812060028101549091036104fa5760405163d58d677960e01b8152600481018590526024015b60405180910390fd5b6003810154600160a01b900460ff161561052a576040516350514a3b60e01b8152600481018590526024016104f1565b60038101805460ff60a01b1916600160a01b179055805460018201546002830154604051637921219560e11b81526001600160a01b039093169263f242432a9261057c92309289929190600401610ab8565b5f604051808303815f87803b158015610593575f80fd5b505af11580156105a5573d5f803e3d5ffd5b50505050826001600160a01b0316847fa6c812047c4dc10f52f9e7943b1b3dfafae864d5e0d4ded081bbbde69dd6ff0d83600201546040516105e991815260200190565b60405180910390a350505050565b5f82815260208190526040902060010154610611816106d9565b61061b83836106e6565b50505050565b6001600160a01b038116331461064a5760405163334bd91960e11b815260040160405180910390fd5b6106548282610775565b505050565b5f918252602082815260408084206001600160a01b0393909316845291905290205460ff1690565b5f8281526020819052604090206001015461069b816106d9565b61061b8383610775565b5f6001600160e01b03198216637965db0b60e01b14806102f057506301ffc9a760e01b6001600160e01b03198316146102f0565b6106e381336107de565b50565b5f6106f18383610659565b61076e575f838152602081815260408083206001600160a01b03861684529091529020805460ff191660011790556107263390565b6001600160a01b0316826001600160a01b0316847f2f8788117e7eff1d82e926ec794901d17c78024a50270940304540a733656f0d60405160405180910390a45060016102f0565b505f6102f0565b5f6107808383610659565b1561076e575f838152602081815260408083206001600160a01b0386168085529252808320805460ff1916905551339286917ff6391f5c32d9c69d2a47ea670b442974b53935d1edc7fd64eb21e047a839171b9190a45060016102f0565b6107e88282610659565b6108175760405163e2517d3f60e01b81526001600160a01b0382166004820152602481018390526044016104f1565b5050565b5f6020828403121561082b575f80fd5b5035919050565b5f60208284031215610842575f80fd5b81356001600160e01b031981168114610859575f80fd5b9392505050565b80356001600160a01b0381168114610876575f80fd5b919050565b5f805f806080858703121561088e575f80fd5b61089785610860565b935060208501359250604085013591506108b360608601610860565b905092959194509250565b5f80604083850312156108cf575f80fd5b823591506108df60208401610860565b90509250929050565b5f8083601f8401126108f8575f80fd5b50813567ffffffffffffffff81111561090f575f80fd5b6020830191508360208260051b8501011115610929575f80fd5b9250929050565b5f8083601f840112610940575f80fd5b50813567ffffffffffffffff811115610957575f80fd5b602083019150836020828501011115610929575f80fd5b5f805f805f805f8060a0898b031215610985575f80fd5b61098e89610860565b975061099c60208a01610860565b9650604089013567ffffffffffffffff808211156109b8575f80fd5b6109c48c838d016108e8565b909850965060608b01359150808211156109dc575f80fd5b6109e88c838d016108e8565b909650945060808b0135915080821115610a00575f80fd5b50610a0d8b828c01610930565b999c989b5096995094979396929594505050565b5f805f805f8060a08789031215610a36575f80fd5b610a3f87610860565b9550610a4d60208801610860565b94506040870135935060608701359250608087013567ffffffffffffffff811115610a76575f80fd5b610a8289828a01610930565b979a9699509497509295939492505050565b5f60018201610ab157634e487b7160e01b5f52601160045260245ffd5b5060010190565b6001600160a01b0394851681529290931660208301526040820152606081019190915260a0608082018190525f9082015260c0019056fea264697066735822122073f3cfc89a6e768b596a15aa680554bd0bd763ababd3a95bef2dd9486403814864736f6c63430008180033","linkReferences":{}},"methodIdentifiers":{"BRIDGE_ROLE()":"b5bfddea","DEFAULT_ADMIN_ROLE()":"a217fddf","getRoleAdmin(bytes32)":"248a9ca3","grantRole(bytes32,address)":"2f2ff15d","hasRole(bytes32,address)":"91d14854","lockTokens(address,uint256,uint256,address)":"0aa393f3","lockedPositions(uint256)":"01a5e163","nextLockId()":"6518a0b3","onERC1155BatchReceived(address,address,uint256[],uint256[],bytes)":"bc197c81","onERC1155Received(address,address,uint256,uint256,bytes)":"f23a6e61","releaseTokens(uint256,address)":"2a7d3e8d","renounceRole(bytes32,address)":"36568abe","revokeRole(bytes32,address)":"d547741f","supportsInterface(bytes4)":"01ffc9a7"},"id":104}